{
	"Project/ERC721/SCUtest.sol": {
		"SCUtest": {
			"abi": [
				{
					"inputs": [
						{
							"internalType": "string",
							"name": "name_",
							"type": "string"
						},
						{
							"internalType": "string",
							"name": "symbol_",
							"type": "string"
						}
					],
					"stateMutability": "nonpayable",
					"type": "constructor"
				},
				{
					"anonymous": false,
					"inputs": [
						{
							"indexed": true,
							"internalType": "address",
							"name": "owner",
							"type": "address"
						},
						{
							"indexed": true,
							"internalType": "address",
							"name": "approved",
							"type": "address"
						},
						{
							"indexed": true,
							"internalType": "uint256",
							"name": "tokenId",
							"type": "uint256"
						}
					],
					"name": "Approval",
					"type": "event"
				},
				{
					"anonymous": false,
					"inputs": [
						{
							"indexed": true,
							"internalType": "address",
							"name": "owner",
							"type": "address"
						},
						{
							"indexed": true,
							"internalType": "address",
							"name": "operator",
							"type": "address"
						},
						{
							"indexed": false,
							"internalType": "bool",
							"name": "approved",
							"type": "bool"
						}
					],
					"name": "ApprovalForAll",
					"type": "event"
				},
				{
					"anonymous": false,
					"inputs": [
						{
							"indexed": true,
							"internalType": "address",
							"name": "from",
							"type": "address"
						},
						{
							"indexed": true,
							"internalType": "address",
							"name": "to",
							"type": "address"
						},
						{
							"indexed": true,
							"internalType": "uint256",
							"name": "tokenId",
							"type": "uint256"
						}
					],
					"name": "Transfer",
					"type": "event"
				},
				{
					"inputs": [],
					"name": "MAX_APES",
					"outputs": [
						{
							"internalType": "uint256",
							"name": "",
							"type": "uint256"
						}
					],
					"stateMutability": "view",
					"type": "function"
				},
				{
					"inputs": [
						{
							"internalType": "address",
							"name": "to",
							"type": "address"
						},
						{
							"internalType": "uint256",
							"name": "tokenId",
							"type": "uint256"
						}
					],
					"name": "approve",
					"outputs": [],
					"stateMutability": "nonpayable",
					"type": "function"
				},
				{
					"inputs": [
						{
							"internalType": "address",
							"name": "owner",
							"type": "address"
						}
					],
					"name": "balanceOf",
					"outputs": [
						{
							"internalType": "uint256",
							"name": "",
							"type": "uint256"
						}
					],
					"stateMutability": "view",
					"type": "function"
				},
				{
					"inputs": [
						{
							"internalType": "uint256",
							"name": "tokenId",
							"type": "uint256"
						}
					],
					"name": "getApproved",
					"outputs": [
						{
							"internalType": "address",
							"name": "",
							"type": "address"
						}
					],
					"stateMutability": "view",
					"type": "function"
				},
				{
					"inputs": [
						{
							"internalType": "address",
							"name": "owner",
							"type": "address"
						},
						{
							"internalType": "address",
							"name": "operator",
							"type": "address"
						}
					],
					"name": "isApprovedForAll",
					"outputs": [
						{
							"internalType": "bool",
							"name": "",
							"type": "bool"
						}
					],
					"stateMutability": "view",
					"type": "function"
				},
				{
					"inputs": [
						{
							"internalType": "address",
							"name": "to",
							"type": "address"
						},
						{
							"internalType": "uint256",
							"name": "tokenId",
							"type": "uint256"
						}
					],
					"name": "mint",
					"outputs": [],
					"stateMutability": "nonpayable",
					"type": "function"
				},
				{
					"inputs": [],
					"name": "name",
					"outputs": [
						{
							"internalType": "string",
							"name": "",
							"type": "string"
						}
					],
					"stateMutability": "view",
					"type": "function"
				},
				{
					"inputs": [
						{
							"internalType": "uint256",
							"name": "tokenId",
							"type": "uint256"
						}
					],
					"name": "ownerOf",
					"outputs": [
						{
							"internalType": "address",
							"name": "owner",
							"type": "address"
						}
					],
					"stateMutability": "view",
					"type": "function"
				},
				{
					"inputs": [
						{
							"internalType": "address",
							"name": "from",
							"type": "address"
						},
						{
							"internalType": "address",
							"name": "to",
							"type": "address"
						},
						{
							"internalType": "uint256",
							"name": "tokenId",
							"type": "uint256"
						}
					],
					"name": "safeTransferFrom",
					"outputs": [],
					"stateMutability": "nonpayable",
					"type": "function"
				},
				{
					"inputs": [
						{
							"internalType": "address",
							"name": "from",
							"type": "address"
						},
						{
							"internalType": "address",
							"name": "to",
							"type": "address"
						},
						{
							"internalType": "uint256",
							"name": "tokenId",
							"type": "uint256"
						},
						{
							"internalType": "bytes",
							"name": "_data",
							"type": "bytes"
						}
					],
					"name": "safeTransferFrom",
					"outputs": [],
					"stateMutability": "nonpayable",
					"type": "function"
				},
				{
					"inputs": [
						{
							"internalType": "address",
							"name": "operator",
							"type": "address"
						},
						{
							"internalType": "bool",
							"name": "approved",
							"type": "bool"
						}
					],
					"name": "setApprovalForAll",
					"outputs": [],
					"stateMutability": "nonpayable",
					"type": "function"
				},
				{
					"inputs": [
						{
							"internalType": "bytes4",
							"name": "interfaceId",
							"type": "bytes4"
						}
					],
					"name": "supportsInterface",
					"outputs": [
						{
							"internalType": "bool",
							"name": "",
							"type": "bool"
						}
					],
					"stateMutability": "pure",
					"type": "function"
				},
				{
					"inputs": [],
					"name": "symbol",
					"outputs": [
						{
							"internalType": "string",
							"name": "",
							"type": "string"
						}
					],
					"stateMutability": "view",
					"type": "function"
				},
				{
					"inputs": [
						{
							"internalType": "uint256",
							"name": "tokenId",
							"type": "uint256"
						}
					],
					"name": "tokenURI",
					"outputs": [
						{
							"internalType": "string",
							"name": "",
							"type": "string"
						}
					],
					"stateMutability": "view",
					"type": "function"
				},
				{
					"inputs": [
						{
							"internalType": "address",
							"name": "from",
							"type": "address"
						},
						{
							"internalType": "address",
							"name": "to",
							"type": "address"
						},
						{
							"internalType": "uint256",
							"name": "tokenId",
							"type": "uint256"
						}
					],
					"name": "transferFrom",
					"outputs": [],
					"stateMutability": "nonpayable",
					"type": "function"
				}
			],
			"devdoc": {
				"kind": "dev",
				"methods": {
					"supportsInterface(bytes4)": {
						"details": "如果合約實現了查詢的`interfaceId`，則返回true 規則詳見：https://eips.ethereum.org/EIPS/eip-165#how-interfaces-are-identified[EIP section]"
					}
				},
				"version": 1
			},
			"evm": {
				"assembly": "    /* \"Project/ERC721/SCUtest.sol\":99:723  contract SCUtest is ERC721{... */\n  mstore(0x40, 0x80)\n    /* \"Project/ERC721/SCUtest.sol\":155:160  10000 */\n  0x2710\n    /* \"Project/ERC721/SCUtest.sol\":132:160  uint public MAX_APES = 10000 */\n  0x06\n  sstore\n    /* \"Project/ERC721/SCUtest.sol\":200:286  constructor(string memory name_, string memory symbol_) ERC721(name_, symbol_){... */\n  callvalue\n  dup1\n  iszero\n  tag_1\n  jumpi\n  0x00\n  dup1\n  revert\ntag_1:\n  pop\n  mload(0x40)\n  sub(codesize, bytecodeSize)\n  dup1\n  bytecodeSize\n  dup4\n  codecopy\n  dup2\n  dup2\n  add\n  0x40\n  mstore\n  dup2\n  add\n  swap1\n  tag_2\n  swap2\n  swap1\n  tag_3\n  jump\t// in\ntag_2:\n    /* \"Project/ERC721/SCUtest.sol\":263:268  name_ */\n  dup2\n    /* \"Project/ERC721/SCUtest.sol\":270:277  symbol_ */\n  dup2\n    /* \"Project/ERC721/ERC721.sol\":1146:1151  name_ */\n  dup2\n    /* \"Project/ERC721/ERC721.sol\":1139:1143  name */\n  0x00\n    /* \"Project/ERC721/ERC721.sol\":1139:1151  name = name_ */\n  swap1\n  dup2\n  tag_7\n  swap2\n  swap1\n  tag_8\n  jump\t// in\ntag_7:\n  pop\n    /* \"Project/ERC721/ERC721.sol\":1171:1178  symbol_ */\n  dup1\n    /* \"Project/ERC721/ERC721.sol\":1162:1168  symbol */\n  0x01\n    /* \"Project/ERC721/ERC721.sol\":1162:1178  symbol = symbol_ */\n  swap1\n  dup2\n  tag_9\n  swap2\n  swap1\n  tag_8\n  jump\t// in\ntag_9:\n  pop\n    /* \"Project/ERC721/ERC721.sol\":1072:1186  constructor(string memory name_, string memory symbol_) {... */\n  pop\n  pop\n    /* \"Project/ERC721/SCUtest.sol\":200:286  constructor(string memory name_, string memory symbol_) ERC721(name_, symbol_){... */\n  pop\n  pop\n    /* \"Project/ERC721/SCUtest.sol\":99:723  contract SCUtest is ERC721{... */\n  jump(tag_11)\n    /* \"#utility.yul\":7:82   */\ntag_12:\n    /* \"#utility.yul\":40:46   */\n  0x00\n    /* \"#utility.yul\":73:75   */\n  0x40\n    /* \"#utility.yul\":67:76   */\n  mload\n    /* \"#utility.yul\":57:76   */\n  swap1\n  pop\n    /* \"#utility.yul\":7:82   */\n  swap1\n  jump\t// out\n    /* \"#utility.yul\":88:205   */\ntag_13:\n    /* \"#utility.yul\":197:198   */\n  0x00\n    /* \"#utility.yul\":194:195   */\n  dup1\n    /* \"#utility.yul\":187:199   */\n  revert\n    /* \"#utility.yul\":211:328   */\ntag_14:\n    /* \"#utility.yul\":320:321   */\n  0x00\n    /* \"#utility.yul\":317:318   */\n  dup1\n    /* \"#utility.yul\":310:322   */\n  revert\n    /* \"#utility.yul\":334:451   */\ntag_15:\n    /* \"#utility.yul\":443:444   */\n  0x00\n    /* \"#utility.yul\":440:441   */\n  dup1\n    /* \"#utility.yul\":433:445   */\n  revert\n    /* \"#utility.yul\":457:574   */\ntag_16:\n    /* \"#utility.yul\":566:567   */\n  0x00\n    /* \"#utility.yul\":563:564   */\n  dup1\n    /* \"#utility.yul\":556:568   */\n  revert\n    /* \"#utility.yul\":580:682   */\ntag_17:\n    /* \"#utility.yul\":621:627   */\n  0x00\n    /* \"#utility.yul\":672:674   */\n  0x1f\n    /* \"#utility.yul\":668:675   */\n  not\n    /* \"#utility.yul\":663:665   */\n  0x1f\n    /* \"#utility.yul\":656:661   */\n  dup4\n    /* \"#utility.yul\":652:666   */\n  add\n    /* \"#utility.yul\":648:676   */\n  and\n    /* \"#utility.yul\":638:676   */\n  swap1\n  pop\n    /* \"#utility.yul\":580:682   */\n  swap2\n  swap1\n  pop\n  jump\t// out\n    /* \"#utility.yul\":688:868   */\ntag_18:\n    /* \"#utility.yul\":736:813   */\n  0x4e487b7100000000000000000000000000000000000000000000000000000000\n    /* \"#utility.yul\":733:734   */\n  0x00\n    /* \"#utility.yul\":726:814   */\n  mstore\n    /* \"#utility.yul\":833:837   */\n  0x41\n    /* \"#utility.yul\":830:831   */\n  0x04\n    /* \"#utility.yul\":823:838   */\n  mstore\n    /* \"#utility.yul\":857:861   */\n  0x24\n    /* \"#utility.yul\":854:855   */\n  0x00\n    /* \"#utility.yul\":847:862   */\n  revert\n    /* \"#utility.yul\":874:1155   */\ntag_19:\n    /* \"#utility.yul\":957:984   */\n  tag_53\n    /* \"#utility.yul\":979:983   */\n  dup3\n    /* \"#utility.yul\":957:984   */\n  tag_17\n  jump\t// in\ntag_53:\n    /* \"#utility.yul\":949:955   */\n  dup2\n    /* \"#utility.yul\":945:985   */\n  add\n    /* \"#utility.yul\":1087:1093   */\n  dup2\n    /* \"#utility.yul\":1075:1085   */\n  dup2\n    /* \"#utility.yul\":1072:1094   */\n  lt\n    /* \"#utility.yul\":1051:1069   */\n  0xffffffffffffffff\n    /* \"#utility.yul\":1039:1049   */\n  dup3\n    /* \"#utility.yul\":1036:1070   */\n  gt\n    /* \"#utility.yul\":1033:1095   */\n  or\n    /* \"#utility.yul\":1030:1118   */\n  iszero\n  tag_54\n  jumpi\n    /* \"#utility.yul\":1098:1116   */\n  tag_55\n  tag_18\n  jump\t// in\ntag_55:\n    /* \"#utility.yul\":1030:1118   */\ntag_54:\n    /* \"#utility.yul\":1138:1148   */\n  dup1\n    /* \"#utility.yul\":1134:1136   */\n  0x40\n    /* \"#utility.yul\":1127:1149   */\n  mstore\n    /* \"#utility.yul\":917:1155   */\n  pop\n    /* \"#utility.yul\":874:1155   */\n  pop\n  pop\n  jump\t// out\n    /* \"#utility.yul\":1161:1290   */\ntag_20:\n    /* \"#utility.yul\":1195:1201   */\n  0x00\n    /* \"#utility.yul\":1222:1242   */\n  tag_57\n  tag_12\n  jump\t// in\ntag_57:\n    /* \"#utility.yul\":1212:1242   */\n  swap1\n  pop\n    /* \"#utility.yul\":1251:1284   */\n  tag_58\n    /* \"#utility.yul\":1279:1283   */\n  dup3\n    /* \"#utility.yul\":1271:1277   */\n  dup3\n    /* \"#utility.yul\":1251:1284   */\n  tag_19\n  jump\t// in\ntag_58:\n    /* \"#utility.yul\":1161:1290   */\n  swap2\n  swap1\n  pop\n  jump\t// out\n    /* \"#utility.yul\":1296:1604   */\ntag_21:\n    /* \"#utility.yul\":1358:1362   */\n  0x00\n    /* \"#utility.yul\":1448:1466   */\n  0xffffffffffffffff\n    /* \"#utility.yul\":1440:1446   */\n  dup3\n    /* \"#utility.yul\":1437:1467   */\n  gt\n    /* \"#utility.yul\":1434:1490   */\n  iszero\n  tag_60\n  jumpi\n    /* \"#utility.yul\":1470:1488   */\n  tag_61\n  tag_18\n  jump\t// in\ntag_61:\n    /* \"#utility.yul\":1434:1490   */\ntag_60:\n    /* \"#utility.yul\":1508:1537   */\n  tag_62\n    /* \"#utility.yul\":1530:1536   */\n  dup3\n    /* \"#utility.yul\":1508:1537   */\n  tag_17\n  jump\t// in\ntag_62:\n    /* \"#utility.yul\":1500:1537   */\n  swap1\n  pop\n    /* \"#utility.yul\":1592:1596   */\n  0x20\n    /* \"#utility.yul\":1586:1590   */\n  dup2\n    /* \"#utility.yul\":1582:1597   */\n  add\n    /* \"#utility.yul\":1574:1597   */\n  swap1\n  pop\n    /* \"#utility.yul\":1296:1604   */\n  swap2\n  swap1\n  pop\n  jump\t// out\n    /* \"#utility.yul\":1610:1856   */\ntag_22:\n    /* \"#utility.yul\":1691:1692   */\n  0x00\n    /* \"#utility.yul\":1701:1814   */\ntag_64:\n    /* \"#utility.yul\":1715:1721   */\n  dup4\n    /* \"#utility.yul\":1712:1713   */\n  dup2\n    /* \"#utility.yul\":1709:1722   */\n  lt\n    /* \"#utility.yul\":1701:1814   */\n  iszero\n  tag_66\n  jumpi\n    /* \"#utility.yul\":1800:1801   */\n  dup1\n    /* \"#utility.yul\":1795:1798   */\n  dup3\n    /* \"#utility.yul\":1791:1802   */\n  add\n    /* \"#utility.yul\":1785:1803   */\n  mload\n    /* \"#utility.yul\":1781:1782   */\n  dup2\n    /* \"#utility.yul\":1776:1779   */\n  dup5\n    /* \"#utility.yul\":1772:1783   */\n  add\n    /* \"#utility.yul\":1765:1804   */\n  mstore\n    /* \"#utility.yul\":1737:1739   */\n  0x20\n    /* \"#utility.yul\":1734:1735   */\n  dup2\n    /* \"#utility.yul\":1730:1740   */\n  add\n    /* \"#utility.yul\":1725:1740   */\n  swap1\n  pop\n    /* \"#utility.yul\":1701:1814   */\n  jump(tag_64)\ntag_66:\n    /* \"#utility.yul\":1848:1849   */\n  0x00\n    /* \"#utility.yul\":1839:1845   */\n  dup5\n    /* \"#utility.yul\":1834:1837   */\n  dup5\n    /* \"#utility.yul\":1830:1846   */\n  add\n    /* \"#utility.yul\":1823:1850   */\n  mstore\n    /* \"#utility.yul\":1672:1856   */\n  pop\n    /* \"#utility.yul\":1610:1856   */\n  pop\n  pop\n  pop\n  jump\t// out\n    /* \"#utility.yul\":1862:2296   */\ntag_23:\n    /* \"#utility.yul\":1951:1956   */\n  0x00\n    /* \"#utility.yul\":1976:2042   */\n  tag_68\n    /* \"#utility.yul\":1992:2041   */\n  tag_69\n    /* \"#utility.yul\":2034:2040   */\n  dup5\n    /* \"#utility.yul\":1992:2041   */\n  tag_21\n  jump\t// in\ntag_69:\n    /* \"#utility.yul\":1976:2042   */\n  tag_20\n  jump\t// in\ntag_68:\n    /* \"#utility.yul\":1967:2042   */\n  swap1\n  pop\n    /* \"#utility.yul\":2065:2071   */\n  dup3\n    /* \"#utility.yul\":2058:2063   */\n  dup2\n    /* \"#utility.yul\":2051:2072   */\n  mstore\n    /* \"#utility.yul\":2103:2107   */\n  0x20\n    /* \"#utility.yul\":2096:2101   */\n  dup2\n    /* \"#utility.yul\":2092:2108   */\n  add\n    /* \"#utility.yul\":2141:2144   */\n  dup5\n    /* \"#utility.yul\":2132:2138   */\n  dup5\n    /* \"#utility.yul\":2127:2130   */\n  dup5\n    /* \"#utility.yul\":2123:2139   */\n  add\n    /* \"#utility.yul\":2120:2145   */\n  gt\n    /* \"#utility.yul\":2117:2229   */\n  iszero\n  tag_70\n  jumpi\n    /* \"#utility.yul\":2148:2227   */\n  tag_71\n  tag_16\n  jump\t// in\ntag_71:\n    /* \"#utility.yul\":2117:2229   */\ntag_70:\n    /* \"#utility.yul\":2238:2290   */\n  tag_72\n    /* \"#utility.yul\":2283:2289   */\n  dup5\n    /* \"#utility.yul\":2278:2281   */\n  dup3\n    /* \"#utility.yul\":2273:2276   */\n  dup6\n    /* \"#utility.yul\":2238:2290   */\n  tag_22\n  jump\t// in\ntag_72:\n    /* \"#utility.yul\":1957:2296   */\n  pop\n    /* \"#utility.yul\":1862:2296   */\n  swap4\n  swap3\n  pop\n  pop\n  pop\n  jump\t// out\n    /* \"#utility.yul\":2316:2671   */\ntag_24:\n    /* \"#utility.yul\":2383:2388   */\n  0x00\n    /* \"#utility.yul\":2432:2435   */\n  dup3\n    /* \"#utility.yul\":2425:2429   */\n  0x1f\n    /* \"#utility.yul\":2417:2423   */\n  dup4\n    /* \"#utility.yul\":2413:2430   */\n  add\n    /* \"#utility.yul\":2409:2436   */\n  slt\n    /* \"#utility.yul\":2399:2521   */\n  tag_74\n  jumpi\n    /* \"#utility.yul\":2440:2519   */\n  tag_75\n  tag_15\n  jump\t// in\ntag_75:\n    /* \"#utility.yul\":2399:2521   */\ntag_74:\n    /* \"#utility.yul\":2550:2556   */\n  dup2\n    /* \"#utility.yul\":2544:2557   */\n  mload\n    /* \"#utility.yul\":2575:2665   */\n  tag_76\n    /* \"#utility.yul\":2661:2664   */\n  dup5\n    /* \"#utility.yul\":2653:2659   */\n  dup3\n    /* \"#utility.yul\":2646:2650   */\n  0x20\n    /* \"#utility.yul\":2638:2644   */\n  dup7\n    /* \"#utility.yul\":2634:2651   */\n  add\n    /* \"#utility.yul\":2575:2665   */\n  tag_23\n  jump\t// in\ntag_76:\n    /* \"#utility.yul\":2566:2665   */\n  swap2\n  pop\n    /* \"#utility.yul\":2389:2671   */\n  pop\n    /* \"#utility.yul\":2316:2671   */\n  swap3\n  swap2\n  pop\n  pop\n  jump\t// out\n    /* \"#utility.yul\":2677:3530   */\ntag_3:\n    /* \"#utility.yul\":2776:2782   */\n  0x00\n    /* \"#utility.yul\":2784:2790   */\n  dup1\n    /* \"#utility.yul\":2833:2835   */\n  0x40\n    /* \"#utility.yul\":2821:2830   */\n  dup4\n    /* \"#utility.yul\":2812:2819   */\n  dup6\n    /* \"#utility.yul\":2808:2831   */\n  sub\n    /* \"#utility.yul\":2804:2836   */\n  slt\n    /* \"#utility.yul\":2801:2920   */\n  iszero\n  tag_78\n  jumpi\n    /* \"#utility.yul\":2839:2918   */\n  tag_79\n  tag_13\n  jump\t// in\ntag_79:\n    /* \"#utility.yul\":2801:2920   */\ntag_78:\n    /* \"#utility.yul\":2980:2981   */\n  0x00\n    /* \"#utility.yul\":2969:2978   */\n  dup4\n    /* \"#utility.yul\":2965:2982   */\n  add\n    /* \"#utility.yul\":2959:2983   */\n  mload\n    /* \"#utility.yul\":3010:3028   */\n  0xffffffffffffffff\n    /* \"#utility.yul\":3002:3008   */\n  dup2\n    /* \"#utility.yul\":2999:3029   */\n  gt\n    /* \"#utility.yul\":2996:3113   */\n  iszero\n  tag_80\n  jumpi\n    /* \"#utility.yul\":3032:3111   */\n  tag_81\n  tag_14\n  jump\t// in\ntag_81:\n    /* \"#utility.yul\":2996:3113   */\ntag_80:\n    /* \"#utility.yul\":3137:3211   */\n  tag_82\n    /* \"#utility.yul\":3203:3210   */\n  dup6\n    /* \"#utility.yul\":3194:3200   */\n  dup3\n    /* \"#utility.yul\":3183:3192   */\n  dup7\n    /* \"#utility.yul\":3179:3201   */\n  add\n    /* \"#utility.yul\":3137:3211   */\n  tag_24\n  jump\t// in\ntag_82:\n    /* \"#utility.yul\":3127:3211   */\n  swap3\n  pop\n    /* \"#utility.yul\":2930:3221   */\n  pop\n    /* \"#utility.yul\":3281:3283   */\n  0x20\n    /* \"#utility.yul\":3270:3279   */\n  dup4\n    /* \"#utility.yul\":3266:3284   */\n  add\n    /* \"#utility.yul\":3260:3285   */\n  mload\n    /* \"#utility.yul\":3312:3330   */\n  0xffffffffffffffff\n    /* \"#utility.yul\":3304:3310   */\n  dup2\n    /* \"#utility.yul\":3301:3331   */\n  gt\n    /* \"#utility.yul\":3298:3415   */\n  iszero\n  tag_83\n  jumpi\n    /* \"#utility.yul\":3334:3413   */\n  tag_84\n  tag_14\n  jump\t// in\ntag_84:\n    /* \"#utility.yul\":3298:3415   */\ntag_83:\n    /* \"#utility.yul\":3439:3513   */\n  tag_85\n    /* \"#utility.yul\":3505:3512   */\n  dup6\n    /* \"#utility.yul\":3496:3502   */\n  dup3\n    /* \"#utility.yul\":3485:3494   */\n  dup7\n    /* \"#utility.yul\":3481:3503   */\n  add\n    /* \"#utility.yul\":3439:3513   */\n  tag_24\n  jump\t// in\ntag_85:\n    /* \"#utility.yul\":3429:3513   */\n  swap2\n  pop\n    /* \"#utility.yul\":3231:3523   */\n  pop\n    /* \"#utility.yul\":2677:3530   */\n  swap3\n  pop\n  swap3\n  swap1\n  pop\n  jump\t// out\n    /* \"#utility.yul\":3536:3635   */\ntag_25:\n    /* \"#utility.yul\":3588:3594   */\n  0x00\n    /* \"#utility.yul\":3622:3627   */\n  dup2\n    /* \"#utility.yul\":3616:3628   */\n  mload\n    /* \"#utility.yul\":3606:3628   */\n  swap1\n  pop\n    /* \"#utility.yul\":3536:3635   */\n  swap2\n  swap1\n  pop\n  jump\t// out\n    /* \"#utility.yul\":3641:3821   */\ntag_26:\n    /* \"#utility.yul\":3689:3766   */\n  0x4e487b7100000000000000000000000000000000000000000000000000000000\n    /* \"#utility.yul\":3686:3687   */\n  0x00\n    /* \"#utility.yul\":3679:3767   */\n  mstore\n    /* \"#utility.yul\":3786:3790   */\n  0x22\n    /* \"#utility.yul\":3783:3784   */\n  0x04\n    /* \"#utility.yul\":3776:3791   */\n  mstore\n    /* \"#utility.yul\":3810:3814   */\n  0x24\n    /* \"#utility.yul\":3807:3808   */\n  0x00\n    /* \"#utility.yul\":3800:3815   */\n  revert\n    /* \"#utility.yul\":3827:4147   */\ntag_27:\n    /* \"#utility.yul\":3871:3877   */\n  0x00\n    /* \"#utility.yul\":3908:3909   */\n  0x02\n    /* \"#utility.yul\":3902:3906   */\n  dup3\n    /* \"#utility.yul\":3898:3910   */\n  div\n    /* \"#utility.yul\":3888:3910   */\n  swap1\n  pop\n    /* \"#utility.yul\":3955:3956   */\n  0x01\n    /* \"#utility.yul\":3949:3953   */\n  dup3\n    /* \"#utility.yul\":3945:3957   */\n  and\n    /* \"#utility.yul\":3976:3994   */\n  dup1\n    /* \"#utility.yul\":3966:4047   */\n  tag_89\n  jumpi\n    /* \"#utility.yul\":4032:4036   */\n  0x7f\n    /* \"#utility.yul\":4024:4030   */\n  dup3\n    /* \"#utility.yul\":4020:4037   */\n  and\n    /* \"#utility.yul\":4010:4037   */\n  swap2\n  pop\n    /* \"#utility.yul\":3966:4047   */\ntag_89:\n    /* \"#utility.yul\":4094:4096   */\n  0x20\n    /* \"#utility.yul\":4086:4092   */\n  dup3\n    /* \"#utility.yul\":4083:4097   */\n  lt\n    /* \"#utility.yul\":4063:4081   */\n  dup2\n    /* \"#utility.yul\":4060:4098   */\n  sub\n    /* \"#utility.yul\":4057:4141   */\n  tag_90\n  jumpi\n    /* \"#utility.yul\":4113:4131   */\n  tag_91\n  tag_26\n  jump\t// in\ntag_91:\n    /* \"#utility.yul\":4057:4141   */\ntag_90:\n    /* \"#utility.yul\":3878:4147   */\n  pop\n    /* \"#utility.yul\":3827:4147   */\n  swap2\n  swap1\n  pop\n  jump\t// out\n    /* \"#utility.yul\":4153:4294   */\ntag_28:\n    /* \"#utility.yul\":4202:4206   */\n  0x00\n    /* \"#utility.yul\":4225:4228   */\n  dup2\n    /* \"#utility.yul\":4217:4228   */\n  swap1\n  pop\n    /* \"#utility.yul\":4248:4251   */\n  dup2\n    /* \"#utility.yul\":4245:4246   */\n  0x00\n    /* \"#utility.yul\":4238:4252   */\n  mstore\n    /* \"#utility.yul\":4282:4286   */\n  0x20\n    /* \"#utility.yul\":4279:4280   */\n  0x00\n    /* \"#utility.yul\":4269:4287   */\n  keccak256\n    /* \"#utility.yul\":4261:4287   */\n  swap1\n  pop\n    /* \"#utility.yul\":4153:4294   */\n  swap2\n  swap1\n  pop\n  jump\t// out\n    /* \"#utility.yul\":4300:4393   */\ntag_29:\n    /* \"#utility.yul\":4337:4343   */\n  0x00\n    /* \"#utility.yul\":4384:4386   */\n  0x20\n    /* \"#utility.yul\":4379:4381   */\n  0x1f\n    /* \"#utility.yul\":4372:4377   */\n  dup4\n    /* \"#utility.yul\":4368:4382   */\n  add\n    /* \"#utility.yul\":4364:4387   */\n  div\n    /* \"#utility.yul\":4354:4387   */\n  swap1\n  pop\n    /* \"#utility.yul\":4300:4393   */\n  swap2\n  swap1\n  pop\n  jump\t// out\n    /* \"#utility.yul\":4399:4506   */\ntag_30:\n    /* \"#utility.yul\":4443:4451   */\n  0x00\n    /* \"#utility.yul\":4493:4498   */\n  dup3\n    /* \"#utility.yul\":4487:4491   */\n  dup3\n    /* \"#utility.yul\":4483:4499   */\n  shl\n    /* \"#utility.yul\":4462:4499   */\n  swap1\n  pop\n    /* \"#utility.yul\":4399:4506   */\n  swap3\n  swap2\n  pop\n  pop\n  jump\t// out\n    /* \"#utility.yul\":4512:4905   */\ntag_31:\n    /* \"#utility.yul\":4581:4587   */\n  0x00\n    /* \"#utility.yul\":4631:4632   */\n  0x08\n    /* \"#utility.yul\":4619:4629   */\n  dup4\n    /* \"#utility.yul\":4615:4633   */\n  mul\n    /* \"#utility.yul\":4654:4751   */\n  tag_96\n    /* \"#utility.yul\":4684:4750   */\n  0xffffffffffffffffffffffffffffffffffffffffffffffffffffffffffffffff\n    /* \"#utility.yul\":4673:4682   */\n  dup3\n    /* \"#utility.yul\":4654:4751   */\n  tag_30\n  jump\t// in\ntag_96:\n    /* \"#utility.yul\":4772:4811   */\n  tag_97\n    /* \"#utility.yul\":4802:4810   */\n  dup7\n    /* \"#utility.yul\":4791:4800   */\n  dup4\n    /* \"#utility.yul\":4772:4811   */\n  tag_30\n  jump\t// in\ntag_97:\n    /* \"#utility.yul\":4760:4811   */\n  swap6\n  pop\n    /* \"#utility.yul\":4844:4848   */\n  dup1\n    /* \"#utility.yul\":4840:4849   */\n  not\n    /* \"#utility.yul\":4833:4838   */\n  dup5\n    /* \"#utility.yul\":4829:4850   */\n  and\n    /* \"#utility.yul\":4820:4850   */\n  swap4\n  pop\n    /* \"#utility.yul\":4893:4897   */\n  dup1\n    /* \"#utility.yul\":4883:4891   */\n  dup7\n    /* \"#utility.yul\":4879:4898   */\n  and\n    /* \"#utility.yul\":4872:4877   */\n  dup5\n    /* \"#utility.yul\":4869:4899   */\n  or\n    /* \"#utility.yul\":4859:4899   */\n  swap3\n  pop\n    /* \"#utility.yul\":4588:4905   */\n  pop\n  pop\n    /* \"#utility.yul\":4512:4905   */\n  swap4\n  swap3\n  pop\n  pop\n  pop\n  jump\t// out\n    /* \"#utility.yul\":4911:4988   */\ntag_32:\n    /* \"#utility.yul\":4948:4955   */\n  0x00\n    /* \"#utility.yul\":4977:4982   */\n  dup2\n    /* \"#utility.yul\":4966:4982   */\n  swap1\n  pop\n    /* \"#utility.yul\":4911:4988   */\n  swap2\n  swap1\n  pop\n  jump\t// out\n    /* \"#utility.yul\":4994:5054   */\ntag_33:\n    /* \"#utility.yul\":5022:5025   */\n  0x00\n    /* \"#utility.yul\":5043:5048   */\n  dup2\n    /* \"#utility.yul\":5036:5048   */\n  swap1\n  pop\n    /* \"#utility.yul\":4994:5054   */\n  swap2\n  swap1\n  pop\n  jump\t// out\n    /* \"#utility.yul\":5060:5202   */\ntag_34:\n    /* \"#utility.yul\":5110:5119   */\n  0x00\n    /* \"#utility.yul\":5143:5196   */\n  tag_101\n    /* \"#utility.yul\":5161:5195   */\n  tag_102\n    /* \"#utility.yul\":5170:5194   */\n  tag_103\n    /* \"#utility.yul\":5188:5193   */\n  dup5\n    /* \"#utility.yul\":5170:5194   */\n  tag_32\n  jump\t// in\ntag_103:\n    /* \"#utility.yul\":5161:5195   */\n  tag_33\n  jump\t// in\ntag_102:\n    /* \"#utility.yul\":5143:5196   */\n  tag_32\n  jump\t// in\ntag_101:\n    /* \"#utility.yul\":5130:5196   */\n  swap1\n  pop\n    /* \"#utility.yul\":5060:5202   */\n  swap2\n  swap1\n  pop\n  jump\t// out\n    /* \"#utility.yul\":5208:5283   */\ntag_35:\n    /* \"#utility.yul\":5251:5254   */\n  0x00\n    /* \"#utility.yul\":5272:5277   */\n  dup2\n    /* \"#utility.yul\":5265:5277   */\n  swap1\n  pop\n    /* \"#utility.yul\":5208:5283   */\n  swap2\n  swap1\n  pop\n  jump\t// out\n    /* \"#utility.yul\":5289:5558   */\ntag_36:\n    /* \"#utility.yul\":5399:5438   */\n  tag_106\n    /* \"#utility.yul\":5430:5437   */\n  dup4\n    /* \"#utility.yul\":5399:5438   */\n  tag_34\n  jump\t// in\ntag_106:\n    /* \"#utility.yul\":5460:5551   */\n  tag_107\n    /* \"#utility.yul\":5509:5550   */\n  tag_108\n    /* \"#utility.yul\":5533:5549   */\n  dup3\n    /* \"#utility.yul\":5509:5550   */\n  tag_35\n  jump\t// in\ntag_108:\n    /* \"#utility.yul\":5501:5507   */\n  dup5\n    /* \"#utility.yul\":5494:5498   */\n  dup5\n    /* \"#utility.yul\":5488:5499   */\n  sload\n    /* \"#utility.yul\":5460:5551   */\n  tag_31\n  jump\t// in\ntag_107:\n    /* \"#utility.yul\":5454:5458   */\n  dup3\n    /* \"#utility.yul\":5447:5552   */\n  sstore\n    /* \"#utility.yul\":5365:5558   */\n  pop\n    /* \"#utility.yul\":5289:5558   */\n  pop\n  pop\n  pop\n  jump\t// out\n    /* \"#utility.yul\":5564:5637   */\ntag_37:\n    /* \"#utility.yul\":5609:5612   */\n  0x00\n    /* \"#utility.yul\":5564:5637   */\n  swap1\n  jump\t// out\n    /* \"#utility.yul\":5643:5832   */\ntag_38:\n    /* \"#utility.yul\":5720:5752   */\n  tag_111\n  tag_37\n  jump\t// in\ntag_111:\n    /* \"#utility.yul\":5761:5826   */\n  tag_112\n    /* \"#utility.yul\":5819:5825   */\n  dup2\n    /* \"#utility.yul\":5811:5817   */\n  dup5\n    /* \"#utility.yul\":5805:5809   */\n  dup5\n    /* \"#utility.yul\":5761:5826   */\n  tag_36\n  jump\t// in\ntag_112:\n    /* \"#utility.yul\":5696:5832   */\n  pop\n    /* \"#utility.yul\":5643:5832   */\n  pop\n  pop\n  jump\t// out\n    /* \"#utility.yul\":5838:6024   */\ntag_39:\n    /* \"#utility.yul\":5898:6018   */\ntag_114:\n    /* \"#utility.yul\":5915:5918   */\n  dup2\n    /* \"#utility.yul\":5908:5913   */\n  dup2\n    /* \"#utility.yul\":5905:5919   */\n  lt\n    /* \"#utility.yul\":5898:6018   */\n  iszero\n  tag_116\n  jumpi\n    /* \"#utility.yul\":5969:6008   */\n  tag_117\n    /* \"#utility.yul\":6006:6007   */\n  0x00\n    /* \"#utility.yul\":5999:6004   */\n  dup3\n    /* \"#utility.yul\":5969:6008   */\n  tag_38\n  jump\t// in\ntag_117:\n    /* \"#utility.yul\":5942:5943   */\n  0x01\n    /* \"#utility.yul\":5935:5940   */\n  dup2\n    /* \"#utility.yul\":5931:5944   */\n  add\n    /* \"#utility.yul\":5922:5944   */\n  swap1\n  pop\n    /* \"#utility.yul\":5898:6018   */\n  jump(tag_114)\ntag_116:\n    /* \"#utility.yul\":5838:6024   */\n  pop\n  pop\n  jump\t// out\n    /* \"#utility.yul\":6030:6573   */\ntag_40:\n    /* \"#utility.yul\":6131:6133   */\n  0x1f\n    /* \"#utility.yul\":6126:6129   */\n  dup3\n    /* \"#utility.yul\":6123:6134   */\n  gt\n    /* \"#utility.yul\":6120:6566   */\n  iszero\n  tag_119\n  jumpi\n    /* \"#utility.yul\":6165:6203   */\n  tag_120\n    /* \"#utility.yul\":6197:6202   */\n  dup2\n    /* \"#utility.yul\":6165:6203   */\n  tag_28\n  jump\t// in\ntag_120:\n    /* \"#utility.yul\":6249:6278   */\n  tag_121\n    /* \"#utility.yul\":6267:6277   */\n  dup5\n    /* \"#utility.yul\":6249:6278   */\n  tag_29\n  jump\t// in\ntag_121:\n    /* \"#utility.yul\":6239:6247   */\n  dup2\n    /* \"#utility.yul\":6235:6279   */\n  add\n    /* \"#utility.yul\":6432:6434   */\n  0x20\n    /* \"#utility.yul\":6420:6430   */\n  dup6\n    /* \"#utility.yul\":6417:6435   */\n  lt\n    /* \"#utility.yul\":6414:6463   */\n  iszero\n  tag_122\n  jumpi\n    /* \"#utility.yul\":6453:6461   */\n  dup2\n    /* \"#utility.yul\":6438:6461   */\n  swap1\n  pop\n    /* \"#utility.yul\":6414:6463   */\ntag_122:\n    /* \"#utility.yul\":6476:6556   */\n  tag_123\n    /* \"#utility.yul\":6532:6554   */\n  tag_124\n    /* \"#utility.yul\":6550:6553   */\n  dup6\n    /* \"#utility.yul\":6532:6554   */\n  tag_29\n  jump\t// in\ntag_124:\n    /* \"#utility.yul\":6522:6530   */\n  dup4\n    /* \"#utility.yul\":6518:6555   */\n  add\n    /* \"#utility.yul\":6505:6516   */\n  dup3\n    /* \"#utility.yul\":6476:6556   */\n  tag_39\n  jump\t// in\ntag_123:\n    /* \"#utility.yul\":6135:6566   */\n  pop\n  pop\n    /* \"#utility.yul\":6120:6566   */\ntag_119:\n    /* \"#utility.yul\":6030:6573   */\n  pop\n  pop\n  pop\n  jump\t// out\n    /* \"#utility.yul\":6579:6696   */\ntag_41:\n    /* \"#utility.yul\":6633:6641   */\n  0x00\n    /* \"#utility.yul\":6683:6688   */\n  dup3\n    /* \"#utility.yul\":6677:6681   */\n  dup3\n    /* \"#utility.yul\":6673:6689   */\n  shr\n    /* \"#utility.yul\":6652:6689   */\n  swap1\n  pop\n    /* \"#utility.yul\":6579:6696   */\n  swap3\n  swap2\n  pop\n  pop\n  jump\t// out\n    /* \"#utility.yul\":6702:6871   */\ntag_42:\n    /* \"#utility.yul\":6746:6752   */\n  0x00\n    /* \"#utility.yul\":6779:6830   */\n  tag_127\n    /* \"#utility.yul\":6827:6828   */\n  0x00\n    /* \"#utility.yul\":6823:6829   */\n  not\n    /* \"#utility.yul\":6815:6820   */\n  dup5\n    /* \"#utility.yul\":6812:6813   */\n  0x08\n    /* \"#utility.yul\":6808:6821   */\n  mul\n    /* \"#utility.yul\":6779:6830   */\n  tag_41\n  jump\t// in\ntag_127:\n    /* \"#utility.yul\":6775:6831   */\n  not\n    /* \"#utility.yul\":6860:6864   */\n  dup1\n    /* \"#utility.yul\":6854:6858   */\n  dup4\n    /* \"#utility.yul\":6850:6865   */\n  and\n    /* \"#utility.yul\":6840:6865   */\n  swap2\n  pop\n    /* \"#utility.yul\":6753:6871   */\n  pop\n    /* \"#utility.yul\":6702:6871   */\n  swap3\n  swap2\n  pop\n  pop\n  jump\t// out\n    /* \"#utility.yul\":6876:7171   */\ntag_43:\n    /* \"#utility.yul\":6952:6956   */\n  0x00\n    /* \"#utility.yul\":7098:7127   */\n  tag_129\n    /* \"#utility.yul\":7123:7126   */\n  dup4\n    /* \"#utility.yul\":7117:7121   */\n  dup4\n    /* \"#utility.yul\":7098:7127   */\n  tag_42\n  jump\t// in\ntag_129:\n    /* \"#utility.yul\":7090:7127   */\n  swap2\n  pop\n    /* \"#utility.yul\":7160:7163   */\n  dup3\n    /* \"#utility.yul\":7157:7158   */\n  0x02\n    /* \"#utility.yul\":7153:7164   */\n  mul\n    /* \"#utility.yul\":7147:7151   */\n  dup3\n    /* \"#utility.yul\":7144:7165   */\n  or\n    /* \"#utility.yul\":7136:7165   */\n  swap1\n  pop\n    /* \"#utility.yul\":6876:7171   */\n  swap3\n  swap2\n  pop\n  pop\n  jump\t// out\n    /* \"#utility.yul\":7176:8571   */\ntag_8:\n    /* \"#utility.yul\":7293:7330   */\n  tag_131\n    /* \"#utility.yul\":7326:7329   */\n  dup3\n    /* \"#utility.yul\":7293:7330   */\n  tag_25\n  jump\t// in\ntag_131:\n    /* \"#utility.yul\":7395:7413   */\n  0xffffffffffffffff\n    /* \"#utility.yul\":7387:7393   */\n  dup2\n    /* \"#utility.yul\":7384:7414   */\n  gt\n    /* \"#utility.yul\":7381:7437   */\n  iszero\n  tag_132\n  jumpi\n    /* \"#utility.yul\":7417:7435   */\n  tag_133\n  tag_18\n  jump\t// in\ntag_133:\n    /* \"#utility.yul\":7381:7437   */\ntag_132:\n    /* \"#utility.yul\":7461:7499   */\n  tag_134\n    /* \"#utility.yul\":7493:7497   */\n  dup3\n    /* \"#utility.yul\":7487:7498   */\n  sload\n    /* \"#utility.yul\":7461:7499   */\n  tag_27\n  jump\t// in\ntag_134:\n    /* \"#utility.yul\":7546:7613   */\n  tag_135\n    /* \"#utility.yul\":7606:7612   */\n  dup3\n    /* \"#utility.yul\":7598:7604   */\n  dup3\n    /* \"#utility.yul\":7592:7596   */\n  dup6\n    /* \"#utility.yul\":7546:7613   */\n  tag_40\n  jump\t// in\ntag_135:\n    /* \"#utility.yul\":7640:7641   */\n  0x00\n    /* \"#utility.yul\":7664:7668   */\n  0x20\n    /* \"#utility.yul\":7651:7668   */\n  swap1\n  pop\n    /* \"#utility.yul\":7696:7698   */\n  0x1f\n    /* \"#utility.yul\":7688:7694   */\n  dup4\n    /* \"#utility.yul\":7685:7699   */\n  gt\n    /* \"#utility.yul\":7713:7714   */\n  0x01\n    /* \"#utility.yul\":7708:8326   */\n  dup2\n  eq\n  tag_137\n  jumpi\n    /* \"#utility.yul\":8370:8371   */\n  0x00\n    /* \"#utility.yul\":8387:8393   */\n  dup5\n    /* \"#utility.yul\":8384:8461   */\n  iszero\n  tag_138\n  jumpi\n    /* \"#utility.yul\":8436:8445   */\n  dup3\n    /* \"#utility.yul\":8431:8434   */\n  dup8\n    /* \"#utility.yul\":8427:8446   */\n  add\n    /* \"#utility.yul\":8421:8447   */\n  mload\n    /* \"#utility.yul\":8412:8447   */\n  swap1\n  pop\n    /* \"#utility.yul\":8384:8461   */\ntag_138:\n    /* \"#utility.yul\":8487:8554   */\n  tag_139\n    /* \"#utility.yul\":8547:8553   */\n  dup6\n    /* \"#utility.yul\":8540:8545   */\n  dup3\n    /* \"#utility.yul\":8487:8554   */\n  tag_43\n  jump\t// in\ntag_139:\n    /* \"#utility.yul\":8481:8485   */\n  dup7\n    /* \"#utility.yul\":8474:8555   */\n  sstore\n    /* \"#utility.yul\":8343:8565   */\n  pop\n    /* \"#utility.yul\":7678:8565   */\n  jump(tag_136)\n    /* \"#utility.yul\":7708:8326   */\ntag_137:\n    /* \"#utility.yul\":7760:7764   */\n  0x1f\n    /* \"#utility.yul\":7756:7765   */\n  not\n    /* \"#utility.yul\":7748:7754   */\n  dup5\n    /* \"#utility.yul\":7744:7766   */\n  and\n    /* \"#utility.yul\":7794:7831   */\n  tag_140\n    /* \"#utility.yul\":7826:7830   */\n  dup7\n    /* \"#utility.yul\":7794:7831   */\n  tag_28\n  jump\t// in\ntag_140:\n    /* \"#utility.yul\":7853:7854   */\n  0x00\n    /* \"#utility.yul\":7867:8075   */\ntag_141:\n    /* \"#utility.yul\":7881:7888   */\n  dup3\n    /* \"#utility.yul\":7878:7879   */\n  dup2\n    /* \"#utility.yul\":7875:7889   */\n  lt\n    /* \"#utility.yul\":7867:8075   */\n  iszero\n  tag_143\n  jumpi\n    /* \"#utility.yul\":7960:7969   */\n  dup5\n    /* \"#utility.yul\":7955:7958   */\n  dup10\n    /* \"#utility.yul\":7951:7970   */\n  add\n    /* \"#utility.yul\":7945:7971   */\n  mload\n    /* \"#utility.yul\":7937:7943   */\n  dup3\n    /* \"#utility.yul\":7930:7972   */\n  sstore\n    /* \"#utility.yul\":8011:8012   */\n  0x01\n    /* \"#utility.yul\":8003:8009   */\n  dup3\n    /* \"#utility.yul\":7999:8013   */\n  add\n    /* \"#utility.yul\":7989:8013   */\n  swap2\n  pop\n    /* \"#utility.yul\":8058:8060   */\n  0x20\n    /* \"#utility.yul\":8047:8056   */\n  dup6\n    /* \"#utility.yul\":8043:8061   */\n  add\n    /* \"#utility.yul\":8030:8061   */\n  swap5\n  pop\n    /* \"#utility.yul\":7904:7908   */\n  0x20\n    /* \"#utility.yul\":7901:7902   */\n  dup2\n    /* \"#utility.yul\":7897:7909   */\n  add\n    /* \"#utility.yul\":7892:7909   */\n  swap1\n  pop\n    /* \"#utility.yul\":7867:8075   */\n  jump(tag_141)\ntag_143:\n    /* \"#utility.yul\":8103:8109   */\n  dup7\n    /* \"#utility.yul\":8094:8101   */\n  dup4\n    /* \"#utility.yul\":8091:8110   */\n  lt\n    /* \"#utility.yul\":8088:8267   */\n  iszero\n  tag_144\n  jumpi\n    /* \"#utility.yul\":8161:8170   */\n  dup5\n    /* \"#utility.yul\":8156:8159   */\n  dup10\n    /* \"#utility.yul\":8152:8171   */\n  add\n    /* \"#utility.yul\":8146:8172   */\n  mload\n    /* \"#utility.yul\":8204:8252   */\n  tag_145\n    /* \"#utility.yul\":8246:8250   */\n  0x1f\n    /* \"#utility.yul\":8238:8244   */\n  dup10\n    /* \"#utility.yul\":8234:8251   */\n  and\n    /* \"#utility.yul\":8223:8232   */\n  dup3\n    /* \"#utility.yul\":8204:8252   */\n  tag_42\n  jump\t// in\ntag_145:\n    /* \"#utility.yul\":8196:8202   */\n  dup4\n    /* \"#utility.yul\":8189:8253   */\n  sstore\n    /* \"#utility.yul\":8111:8267   */\n  pop\n    /* \"#utility.yul\":8088:8267   */\ntag_144:\n    /* \"#utility.yul\":8313:8314   */\n  0x01\n    /* \"#utility.yul\":8309:8310   */\n  0x02\n    /* \"#utility.yul\":8301:8307   */\n  dup9\n    /* \"#utility.yul\":8297:8311   */\n  mul\n    /* \"#utility.yul\":8293:8315   */\n  add\n    /* \"#utility.yul\":8287:8291   */\n  dup9\n    /* \"#utility.yul\":8280:8316   */\n  sstore\n    /* \"#utility.yul\":7715:8326   */\n  pop\n  pop\n  pop\n    /* \"#utility.yul\":7678:8565   */\ntag_136:\n  pop\n    /* \"#utility.yul\":7268:8571   */\n  pop\n  pop\n  pop\n    /* \"#utility.yul\":7176:8571   */\n  pop\n  pop\n  jump\t// out\n    /* \"Project/ERC721/SCUtest.sol\":99:723  contract SCUtest is ERC721{... */\ntag_11:\n  dataSize(sub_0)\n  dup1\n  dataOffset(sub_0)\n  0x00\n  codecopy\n  0x00\n  return\nstop\n\nsub_0: assembly {\n        /* \"Project/ERC721/SCUtest.sol\":99:723  contract SCUtest is ERC721{... */\n      mstore(0x40, 0x80)\n      callvalue\n      dup1\n      iszero\n      tag_1\n      jumpi\n      0x00\n      dup1\n      revert\n    tag_1:\n      pop\n      jumpi(tag_2, lt(calldatasize, 0x04))\n      shr(0xe0, calldataload(0x00))\n      dup1\n      0x6352211e\n      gt\n      tag_18\n      jumpi\n      dup1\n      0xb88d4fde\n      gt\n      tag_19\n      jumpi\n      dup1\n      0xb88d4fde\n      eq\n      tag_14\n      jumpi\n      dup1\n      0xbb8a16bd\n      eq\n      tag_15\n      jumpi\n      dup1\n      0xc87b56dd\n      eq\n      tag_16\n      jumpi\n      dup1\n      0xe985e9c5\n      eq\n      tag_17\n      jumpi\n      jump(tag_2)\n    tag_19:\n      dup1\n      0x6352211e\n      eq\n      tag_10\n      jumpi\n      dup1\n      0x70a08231\n      eq\n      tag_11\n      jumpi\n      dup1\n      0x95d89b41\n      eq\n      tag_12\n      jumpi\n      dup1\n      0xa22cb465\n      eq\n      tag_13\n      jumpi\n      jump(tag_2)\n    tag_18:\n      dup1\n      0x095ea7b3\n      gt\n      tag_20\n      jumpi\n      dup1\n      0x095ea7b3\n      eq\n      tag_6\n      jumpi\n      dup1\n      0x23b872dd\n      eq\n      tag_7\n      jumpi\n      dup1\n      0x40c10f19\n      eq\n      tag_8\n      jumpi\n      dup1\n      0x42842e0e\n      eq\n      tag_9\n      jumpi\n      jump(tag_2)\n    tag_20:\n      dup1\n      0x01ffc9a7\n      eq\n      tag_3\n      jumpi\n      dup1\n      0x06fdde03\n      eq\n      tag_4\n      jumpi\n      dup1\n      0x081812fc\n      eq\n      tag_5\n      jumpi\n    tag_2:\n      0x00\n      dup1\n      revert\n        /* \"Project/ERC721/ERC721.sol\":1239:1566  function supportsInterface(bytes4 interfaceId)... */\n    tag_3:\n      tag_21\n      0x04\n      dup1\n      calldatasize\n      sub\n      dup2\n      add\n      swap1\n      tag_22\n      swap2\n      swap1\n      tag_23\n      jump\t// in\n    tag_22:\n      tag_24\n      jump\t// in\n    tag_21:\n      mload(0x40)\n      tag_25\n      swap2\n      swap1\n      tag_26\n      jump\t// in\n    tag_25:\n      mload(0x40)\n      dup1\n      swap2\n      sub\n      swap1\n      return\n        /* \"Project/ERC721/ERC721.sol\":463:490  string public override name */\n    tag_4:\n      tag_27\n      tag_28\n      jump\t// in\n    tag_27:\n      mload(0x40)\n      tag_29\n      swap2\n      swap1\n      tag_30\n      jump\t// in\n    tag_29:\n      mload(0x40)\n      dup1\n      swap2\n      sub\n      swap1\n      return\n        /* \"Project/ERC721/ERC721.sol\":2903:3102  function getApproved(uint tokenId) external view override returns (address) {... */\n    tag_5:\n      tag_31\n      0x04\n      dup1\n      calldatasize\n      sub\n      dup2\n      add\n      swap1\n      tag_32\n      swap2\n      swap1\n      tag_33\n      jump\t// in\n    tag_32:\n      tag_34\n      jump\t// in\n    tag_31:\n      mload(0x40)\n      tag_35\n      swap2\n      swap1\n      tag_36\n      jump\t// in\n    tag_35:\n      mload(0x40)\n      dup1\n      swap2\n      sub\n      swap1\n      return\n        /* \"Project/ERC721/ERC721.sol\":3589:3891  function approve(address to, uint tokenId) external override {... */\n    tag_6:\n      tag_37\n      0x04\n      dup1\n      calldatasize\n      sub\n      dup2\n      add\n      swap1\n      tag_38\n      swap2\n      swap1\n      tag_39\n      jump\t// in\n    tag_38:\n      tag_40\n      jump\t// in\n    tag_37:\n      stop\n        /* \"Project/ERC721/ERC721.sol\":5047:5387  function transferFrom(... */\n    tag_7:\n      tag_41\n      0x04\n      dup1\n      calldatasize\n      sub\n      dup2\n      add\n      swap1\n      tag_42\n      swap2\n      swap1\n      tag_43\n      jump\t// in\n    tag_42:\n      tag_44\n      jump\t// in\n    tag_41:\n      stop\n        /* \"Project/ERC721/SCUtest.sol\":556:720  function mint(address to, uint tokenId) external {... */\n    tag_8:\n      tag_45\n      0x04\n      dup1\n      calldatasize\n      sub\n      dup2\n      add\n      swap1\n      tag_46\n      swap2\n      swap1\n      tag_39\n      jump\t// in\n    tag_46:\n      tag_47\n      jump\t// in\n    tag_45:\n      stop\n        /* \"Project/ERC721/ERC721.sol\":6697:6873  function safeTransferFrom(... */\n    tag_9:\n      tag_48\n      0x04\n      dup1\n      calldatasize\n      sub\n      dup2\n      add\n      swap1\n      tag_49\n      swap2\n      swap1\n      tag_43\n      jump\t// in\n    tag_49:\n      tag_50\n      jump\t// in\n    tag_48:\n      stop\n        /* \"Project/ERC721/ERC721.sol\":1923:2104  function ownerOf(uint tokenId) public view override returns (address owner) {... */\n    tag_10:\n      tag_51\n      0x04\n      dup1\n      calldatasize\n      sub\n      dup2\n      add\n      swap1\n      tag_52\n      swap2\n      swap1\n      tag_33\n      jump\t// in\n    tag_52:\n      tag_53\n      jump\t// in\n    tag_51:\n      mload(0x40)\n      tag_54\n      swap2\n      swap1\n      tag_36\n      jump\t// in\n    tag_54:\n      mload(0x40)\n      dup1\n      swap2\n      sub\n      swap1\n      return\n        /* \"Project/ERC721/ERC721.sol\":1660:1837  function balanceOf(address owner) external view override returns (uint) {... */\n    tag_11:\n      tag_55\n      0x04\n      dup1\n      calldatasize\n      sub\n      dup2\n      add\n      swap1\n      tag_56\n      swap2\n      swap1\n      tag_57\n      jump\t// in\n    tag_56:\n      tag_58\n      jump\t// in\n    tag_55:\n      mload(0x40)\n      tag_59\n      swap2\n      swap1\n      tag_60\n      jump\t// in\n    tag_59:\n      mload(0x40)\n      dup1\n      swap2\n      sub\n      swap1\n      return\n        /* \"Project/ERC721/ERC721.sol\":517:546  string public override symbol */\n    tag_12:\n      tag_61\n      tag_62\n      jump\t// in\n    tag_61:\n      mload(0x40)\n      tag_63\n      swap2\n      swap1\n      tag_30\n      jump\t// in\n    tag_63:\n      mload(0x40)\n      dup1\n      swap2\n      sub\n      swap1\n      return\n        /* \"Project/ERC721/ERC721.sol\":2588:2798  function setApprovalForAll(address operator, bool approved) external override {... */\n    tag_13:\n      tag_64\n      0x04\n      dup1\n      calldatasize\n      sub\n      dup2\n      add\n      swap1\n      tag_65\n      swap2\n      swap1\n      tag_66\n      jump\t// in\n    tag_65:\n      tag_67\n      jump\t// in\n    tag_64:\n      stop\n        /* \"Project/ERC721/ERC721.sol\":6270:6652  function safeTransferFrom(... */\n    tag_14:\n      tag_68\n      0x04\n      dup1\n      calldatasize\n      sub\n      dup2\n      add\n      swap1\n      tag_69\n      swap2\n      swap1\n      tag_70\n      jump\t// in\n    tag_69:\n      tag_71\n      jump\t// in\n    tag_68:\n      stop\n        /* \"Project/ERC721/SCUtest.sol\":132:160  uint public MAX_APES = 10000 */\n    tag_15:\n      tag_72\n      tag_73\n      jump\t// in\n    tag_72:\n      mload(0x40)\n      tag_74\n      swap2\n      swap1\n      tag_60\n      jump\t// in\n    tag_74:\n      mload(0x40)\n      dup1\n      swap2\n      sub\n      swap1\n      return\n        /* \"Project/ERC721/ERC721.sol\":8879:9195  function tokenURI(uint256 tokenId) public view virtual override returns (string memory) {... */\n    tag_16:\n      tag_75\n      0x04\n      dup1\n      calldatasize\n      sub\n      dup2\n      add\n      swap1\n      tag_76\n      swap2\n      swap1\n      tag_33\n      jump\t// in\n    tag_76:\n      tag_77\n      jump\t// in\n    tag_75:\n      mload(0x40)\n      tag_78\n      swap2\n      swap1\n      tag_30\n      jump\t// in\n    tag_78:\n      mload(0x40)\n      dup1\n      swap2\n      sub\n      swap1\n      return\n        /* \"Project/ERC721/ERC721.sol\":2256:2455  function isApprovedForAll(address owner, address operator)... */\n    tag_17:\n      tag_79\n      0x04\n      dup1\n      calldatasize\n      sub\n      dup2\n      add\n      swap1\n      tag_80\n      swap2\n      swap1\n      tag_81\n      jump\t// in\n    tag_80:\n      tag_82\n      jump\t// in\n    tag_79:\n      mload(0x40)\n      tag_83\n      swap2\n      swap1\n      tag_26\n      jump\t// in\n    tag_83:\n      mload(0x40)\n      dup1\n      swap2\n      sub\n      swap1\n      return\n        /* \"Project/ERC721/ERC721.sol\":1239:1566  function supportsInterface(bytes4 interfaceId)... */\n    tag_24:\n        /* \"Project/ERC721/ERC721.sol\":1354:1358  bool */\n      0x00\n        /* \"Project/ERC721/ERC721.sol\":1411:1436  type(IERC721).interfaceId */\n      0x80ac58cd00000000000000000000000000000000000000000000000000000000\n        /* \"Project/ERC721/ERC721.sol\":1396:1436  interfaceId == type(IERC721).interfaceId */\n      not(0xffffffffffffffffffffffffffffffffffffffffffffffffffffffff)\n      and\n        /* \"Project/ERC721/ERC721.sol\":1396:1407  interfaceId */\n      dup3\n        /* \"Project/ERC721/ERC721.sol\":1396:1436  interfaceId == type(IERC721).interfaceId */\n      not(0xffffffffffffffffffffffffffffffffffffffffffffffffffffffff)\n      and\n      eq\n        /* \"Project/ERC721/ERC721.sol\":1396:1493  interfaceId == type(IERC721).interfaceId ||... */\n      dup1\n      tag_85\n      jumpi\n      pop\n        /* \"Project/ERC721/ERC721.sol\":1468:1493  type(IERC165).interfaceId */\n      0x01ffc9a700000000000000000000000000000000000000000000000000000000\n        /* \"Project/ERC721/ERC721.sol\":1453:1493  interfaceId == type(IERC165).interfaceId */\n      not(0xffffffffffffffffffffffffffffffffffffffffffffffffffffffff)\n      and\n        /* \"Project/ERC721/ERC721.sol\":1453:1464  interfaceId */\n      dup3\n        /* \"Project/ERC721/ERC721.sol\":1453:1493  interfaceId == type(IERC165).interfaceId */\n      not(0xffffffffffffffffffffffffffffffffffffffffffffffffffffffff)\n      and\n      eq\n        /* \"Project/ERC721/ERC721.sol\":1396:1493  interfaceId == type(IERC721).interfaceId ||... */\n    tag_85:\n        /* \"Project/ERC721/ERC721.sol\":1396:1558  interfaceId == type(IERC721).interfaceId ||... */\n      dup1\n      tag_86\n      jumpi\n      pop\n        /* \"Project/ERC721/ERC721.sol\":1525:1558  type(IERC721Metadata).interfaceId */\n      0x5b5e139f00000000000000000000000000000000000000000000000000000000\n        /* \"Project/ERC721/ERC721.sol\":1510:1558  interfaceId == type(IERC721Metadata).interfaceId */\n      not(0xffffffffffffffffffffffffffffffffffffffffffffffffffffffff)\n      and\n        /* \"Project/ERC721/ERC721.sol\":1510:1521  interfaceId */\n      dup3\n        /* \"Project/ERC721/ERC721.sol\":1510:1558  interfaceId == type(IERC721Metadata).interfaceId */\n      not(0xffffffffffffffffffffffffffffffffffffffffffffffffffffffff)\n      and\n      eq\n        /* \"Project/ERC721/ERC721.sol\":1396:1558  interfaceId == type(IERC721).interfaceId ||... */\n    tag_86:\n        /* \"Project/ERC721/ERC721.sol\":1376:1558  return... */\n      swap1\n      pop\n        /* \"Project/ERC721/ERC721.sol\":1239:1566  function supportsInterface(bytes4 interfaceId)... */\n      swap2\n      swap1\n      pop\n      jump\t// out\n        /* \"Project/ERC721/ERC721.sol\":463:490  string public override name */\n    tag_28:\n      0x00\n      dup1\n      sload\n      tag_87\n      swap1\n      tag_88\n      jump\t// in\n    tag_87:\n      dup1\n      0x1f\n      add\n      0x20\n      dup1\n      swap2\n      div\n      mul\n      0x20\n      add\n      mload(0x40)\n      swap1\n      dup2\n      add\n      0x40\n      mstore\n      dup1\n      swap3\n      swap2\n      swap1\n      dup2\n      dup2\n      mstore\n      0x20\n      add\n      dup3\n      dup1\n      sload\n      tag_89\n      swap1\n      tag_88\n      jump\t// in\n    tag_89:\n      dup1\n      iszero\n      tag_90\n      jumpi\n      dup1\n      0x1f\n      lt\n      tag_91\n      jumpi\n      0x0100\n      dup1\n      dup4\n      sload\n      div\n      mul\n      dup4\n      mstore\n      swap2\n      0x20\n      add\n      swap2\n      jump(tag_90)\n    tag_91:\n      dup3\n      add\n      swap2\n      swap1\n      0x00\n      mstore\n      keccak256(0x00, 0x20)\n      swap1\n    tag_92:\n      dup2\n      sload\n      dup2\n      mstore\n      swap1\n      0x01\n      add\n      swap1\n      0x20\n      add\n      dup1\n      dup4\n      gt\n      tag_92\n      jumpi\n      dup3\n      swap1\n      sub\n      0x1f\n      and\n      dup3\n      add\n      swap2\n    tag_90:\n      pop\n      pop\n      pop\n      pop\n      pop\n      dup2\n      jump\t// out\n        /* \"Project/ERC721/ERC721.sol\":2903:3102  function getApproved(uint tokenId) external view override returns (address) {... */\n    tag_34:\n        /* \"Project/ERC721/ERC721.sol\":2970:2977  address */\n      0x00\n        /* \"Project/ERC721/ERC721.sol\":3026:3027  0 */\n      dup1\n        /* \"Project/ERC721/ERC721.sol\":2998:3028  _owners[tokenId] != address(0) */\n      0xffffffffffffffffffffffffffffffffffffffff\n      and\n        /* \"Project/ERC721/ERC721.sol\":2998:3005  _owners */\n      0x02\n        /* \"Project/ERC721/ERC721.sol\":2998:3014  _owners[tokenId] */\n      0x00\n        /* \"Project/ERC721/ERC721.sol\":3006:3013  tokenId */\n      dup5\n        /* \"Project/ERC721/ERC721.sol\":2998:3014  _owners[tokenId] */\n      dup2\n      mstore\n      0x20\n      add\n      swap1\n      dup2\n      mstore\n      0x20\n      add\n      0x00\n      keccak256\n      0x00\n      swap1\n      sload\n      swap1\n      0x0100\n      exp\n      swap1\n      div\n      0xffffffffffffffffffffffffffffffffffffffff\n      and\n        /* \"Project/ERC721/ERC721.sol\":2998:3028  _owners[tokenId] != address(0) */\n      0xffffffffffffffffffffffffffffffffffffffff\n      and\n      sub\n        /* \"Project/ERC721/ERC721.sol\":2990:3052  require(_owners[tokenId] != address(0), \"token doesn't exist\") */\n      tag_94\n      jumpi\n      mload(0x40)\n      0x08c379a000000000000000000000000000000000000000000000000000000000\n      dup2\n      mstore\n      0x04\n      add\n      tag_95\n      swap1\n      tag_96\n      jump\t// in\n    tag_95:\n      mload(0x40)\n      dup1\n      swap2\n      sub\n      swap1\n      revert\n    tag_94:\n        /* \"Project/ERC721/ERC721.sol\":3070:3085  _tokenApprovals */\n      0x04\n        /* \"Project/ERC721/ERC721.sol\":3070:3094  _tokenApprovals[tokenId] */\n      0x00\n        /* \"Project/ERC721/ERC721.sol\":3086:3093  tokenId */\n      dup4\n        /* \"Project/ERC721/ERC721.sol\":3070:3094  _tokenApprovals[tokenId] */\n      dup2\n      mstore\n      0x20\n      add\n      swap1\n      dup2\n      mstore\n      0x20\n      add\n      0x00\n      keccak256\n      0x00\n      swap1\n      sload\n      swap1\n      0x0100\n      exp\n      swap1\n      div\n      0xffffffffffffffffffffffffffffffffffffffff\n      and\n        /* \"Project/ERC721/ERC721.sol\":3063:3094  return _tokenApprovals[tokenId] */\n      swap1\n      pop\n        /* \"Project/ERC721/ERC721.sol\":2903:3102  function getApproved(uint tokenId) external view override returns (address) {... */\n      swap2\n      swap1\n      pop\n      jump\t// out\n        /* \"Project/ERC721/ERC721.sol\":3589:3891  function approve(address to, uint tokenId) external override {... */\n    tag_40:\n        /* \"Project/ERC721/ERC721.sol\":3661:3674  address owner */\n      0x00\n        /* \"Project/ERC721/ERC721.sol\":3677:3684  _owners */\n      0x02\n        /* \"Project/ERC721/ERC721.sol\":3677:3693  _owners[tokenId] */\n      0x00\n        /* \"Project/ERC721/ERC721.sol\":3685:3692  tokenId */\n      dup4\n        /* \"Project/ERC721/ERC721.sol\":3677:3693  _owners[tokenId] */\n      dup2\n      mstore\n      0x20\n      add\n      swap1\n      dup2\n      mstore\n      0x20\n      add\n      0x00\n      keccak256\n      0x00\n      swap1\n      sload\n      swap1\n      0x0100\n      exp\n      swap1\n      div\n      0xffffffffffffffffffffffffffffffffffffffff\n      and\n        /* \"Project/ERC721/ERC721.sol\":3661:3693  address owner = _owners[tokenId] */\n      swap1\n      pop\n        /* \"Project/ERC721/ERC721.sol\":3740:3745  owner */\n      dup1\n        /* \"Project/ERC721/ERC721.sol\":3726:3745  msg.sender == owner */\n      0xffffffffffffffffffffffffffffffffffffffff\n      and\n        /* \"Project/ERC721/ERC721.sol\":3726:3736  msg.sender */\n      caller\n        /* \"Project/ERC721/ERC721.sol\":3726:3745  msg.sender == owner */\n      0xffffffffffffffffffffffffffffffffffffffff\n      and\n      eq\n        /* \"Project/ERC721/ERC721.sol\":3726:3786  msg.sender == owner || _operatorApprovals[owner][msg.sender] */\n      dup1\n      tag_98\n      jumpi\n      pop\n        /* \"Project/ERC721/ERC721.sol\":3749:3767  _operatorApprovals */\n      0x05\n        /* \"Project/ERC721/ERC721.sol\":3749:3774  _operatorApprovals[owner] */\n      0x00\n        /* \"Project/ERC721/ERC721.sol\":3768:3773  owner */\n      dup3\n        /* \"Project/ERC721/ERC721.sol\":3749:3774  _operatorApprovals[owner] */\n      0xffffffffffffffffffffffffffffffffffffffff\n      and\n      0xffffffffffffffffffffffffffffffffffffffff\n      and\n      dup2\n      mstore\n      0x20\n      add\n      swap1\n      dup2\n      mstore\n      0x20\n      add\n      0x00\n      keccak256\n        /* \"Project/ERC721/ERC721.sol\":3749:3786  _operatorApprovals[owner][msg.sender] */\n      0x00\n        /* \"Project/ERC721/ERC721.sol\":3775:3785  msg.sender */\n      caller\n        /* \"Project/ERC721/ERC721.sol\":3749:3786  _operatorApprovals[owner][msg.sender] */\n      0xffffffffffffffffffffffffffffffffffffffff\n      and\n      0xffffffffffffffffffffffffffffffffffffffff\n      and\n      dup2\n      mstore\n      0x20\n      add\n      swap1\n      dup2\n      mstore\n      0x20\n      add\n      0x00\n      keccak256\n      0x00\n      swap1\n      sload\n      swap1\n      0x0100\n      exp\n      swap1\n      div\n      0xff\n      and\n        /* \"Project/ERC721/ERC721.sol\":3726:3786  msg.sender == owner || _operatorApprovals[owner][msg.sender] */\n    tag_98:\n        /* \"Project/ERC721/ERC721.sol\":3704:3844  require(... */\n      tag_99\n      jumpi\n      mload(0x40)\n      0x08c379a000000000000000000000000000000000000000000000000000000000\n      dup2\n      mstore\n      0x04\n      add\n      tag_100\n      swap1\n      tag_101\n      jump\t// in\n    tag_100:\n      mload(0x40)\n      dup1\n      swap2\n      sub\n      swap1\n      revert\n    tag_99:\n        /* \"Project/ERC721/ERC721.sol\":3855:3883  _approve(owner, to, tokenId) */\n      tag_102\n        /* \"Project/ERC721/ERC721.sol\":3864:3869  owner */\n      dup2\n        /* \"Project/ERC721/ERC721.sol\":3871:3873  to */\n      dup5\n        /* \"Project/ERC721/ERC721.sol\":3875:3882  tokenId */\n      dup5\n        /* \"Project/ERC721/ERC721.sol\":3855:3863  _approve */\n      tag_103\n        /* \"Project/ERC721/ERC721.sol\":3855:3883  _approve(owner, to, tokenId) */\n      jump\t// in\n    tag_102:\n        /* \"Project/ERC721/ERC721.sol\":3650:3891  {... */\n      pop\n        /* \"Project/ERC721/ERC721.sol\":3589:3891  function approve(address to, uint tokenId) external override {... */\n      pop\n      pop\n      jump\t// out\n        /* \"Project/ERC721/ERC721.sol\":5047:5387  function transferFrom(... */\n    tag_44:\n        /* \"Project/ERC721/ERC721.sol\":5172:5185  address owner */\n      0x00\n        /* \"Project/ERC721/ERC721.sol\":5188:5204  ownerOf(tokenId) */\n      tag_105\n        /* \"Project/ERC721/ERC721.sol\":5196:5203  tokenId */\n      dup3\n        /* \"Project/ERC721/ERC721.sol\":5188:5195  ownerOf */\n      tag_53\n        /* \"Project/ERC721/ERC721.sol\":5188:5204  ownerOf(tokenId) */\n      jump\t// in\n    tag_105:\n        /* \"Project/ERC721/ERC721.sol\":5172:5204  address owner = ownerOf(tokenId) */\n      swap1\n      pop\n        /* \"Project/ERC721/ERC721.sol\":5237:5283  _isApprovedOrOwner(owner, msg.sender, tokenId) */\n      tag_106\n        /* \"Project/ERC721/ERC721.sol\":5256:5261  owner */\n      dup2\n        /* \"Project/ERC721/ERC721.sol\":5263:5273  msg.sender */\n      caller\n        /* \"Project/ERC721/ERC721.sol\":5275:5282  tokenId */\n      dup5\n        /* \"Project/ERC721/ERC721.sol\":5237:5255  _isApprovedOrOwner */\n      tag_107\n        /* \"Project/ERC721/ERC721.sol\":5237:5283  _isApprovedOrOwner(owner, msg.sender, tokenId) */\n      jump\t// in\n    tag_106:\n        /* \"Project/ERC721/ERC721.sol\":5215:5333  require(... */\n      tag_108\n      jumpi\n      mload(0x40)\n      0x08c379a000000000000000000000000000000000000000000000000000000000\n      dup2\n      mstore\n      0x04\n      add\n      tag_109\n      swap1\n      tag_110\n      jump\t// in\n    tag_109:\n      mload(0x40)\n      dup1\n      swap2\n      sub\n      swap1\n      revert\n    tag_108:\n        /* \"Project/ERC721/ERC721.sol\":5344:5379  _transfer(owner, from, to, tokenId) */\n      tag_111\n        /* \"Project/ERC721/ERC721.sol\":5354:5359  owner */\n      dup2\n        /* \"Project/ERC721/ERC721.sol\":5361:5365  from */\n      dup6\n        /* \"Project/ERC721/ERC721.sol\":5367:5369  to */\n      dup6\n        /* \"Project/ERC721/ERC721.sol\":5371:5378  tokenId */\n      dup6\n        /* \"Project/ERC721/ERC721.sol\":5344:5353  _transfer */\n      tag_112\n        /* \"Project/ERC721/ERC721.sol\":5344:5379  _transfer(owner, from, to, tokenId) */\n      jump\t// in\n    tag_111:\n        /* \"Project/ERC721/ERC721.sol\":5161:5387  {... */\n      pop\n        /* \"Project/ERC721/ERC721.sol\":5047:5387  function transferFrom(... */\n      pop\n      pop\n      pop\n      jump\t// out\n        /* \"Project/ERC721/SCUtest.sol\":556:720  function mint(address to, uint tokenId) external {... */\n    tag_47:\n        /* \"Project/ERC721/SCUtest.sol\":635:636  0 */\n      0x00\n        /* \"Project/ERC721/SCUtest.sol\":624:631  tokenId */\n      dup2\n        /* \"Project/ERC721/SCUtest.sol\":624:636  tokenId >= 0 */\n      lt\n      iszero\n        /* \"Project/ERC721/SCUtest.sol\":624:658  tokenId >= 0 && tokenId < MAX_APES */\n      dup1\n      iszero\n      tag_114\n      jumpi\n      pop\n        /* \"Project/ERC721/SCUtest.sol\":650:658  MAX_APES */\n      sload(0x06)\n        /* \"Project/ERC721/SCUtest.sol\":640:647  tokenId */\n      dup2\n        /* \"Project/ERC721/SCUtest.sol\":640:658  tokenId < MAX_APES */\n      lt\n        /* \"Project/ERC721/SCUtest.sol\":624:658  tokenId >= 0 && tokenId < MAX_APES */\n    tag_114:\n        /* \"Project/ERC721/SCUtest.sol\":616:683  require(tokenId >= 0 && tokenId < MAX_APES, \"tokenId out of range\") */\n      tag_115\n      jumpi\n      mload(0x40)\n      0x08c379a000000000000000000000000000000000000000000000000000000000\n      dup2\n      mstore\n      0x04\n      add\n      tag_116\n      swap1\n      tag_117\n      jump\t// in\n    tag_116:\n      mload(0x40)\n      dup1\n      swap2\n      sub\n      swap1\n      revert\n    tag_115:\n        /* \"Project/ERC721/SCUtest.sol\":694:712  _mint(to, tokenId) */\n      tag_118\n        /* \"Project/ERC721/SCUtest.sol\":700:702  to */\n      dup3\n        /* \"Project/ERC721/SCUtest.sol\":704:711  tokenId */\n      dup3\n        /* \"Project/ERC721/SCUtest.sol\":694:699  _mint */\n      tag_119\n        /* \"Project/ERC721/SCUtest.sol\":694:712  _mint(to, tokenId) */\n      jump\t// in\n    tag_118:\n        /* \"Project/ERC721/SCUtest.sol\":556:720  function mint(address to, uint tokenId) external {... */\n      pop\n      pop\n      jump\t// out\n        /* \"Project/ERC721/ERC721.sol\":6697:6873  function safeTransferFrom(... */\n    tag_50:\n        /* \"Project/ERC721/ERC721.sol\":6826:6865  safeTransferFrom(from, to, tokenId, \"\") */\n      tag_121\n        /* \"Project/ERC721/ERC721.sol\":6843:6847  from */\n      dup4\n        /* \"Project/ERC721/ERC721.sol\":6849:6851  to */\n      dup4\n        /* \"Project/ERC721/ERC721.sol\":6853:6860  tokenId */\n      dup4\n        /* \"Project/ERC721/ERC721.sol\":6826:6865  safeTransferFrom(from, to, tokenId, \"\") */\n      mload(0x40)\n      dup1\n      0x20\n      add\n      0x40\n      mstore\n      dup1\n      0x00\n      dup2\n      mstore\n      pop\n        /* \"Project/ERC721/ERC721.sol\":6826:6842  safeTransferFrom */\n      tag_71\n        /* \"Project/ERC721/ERC721.sol\":6826:6865  safeTransferFrom(from, to, tokenId, \"\") */\n      jump\t// in\n    tag_121:\n        /* \"Project/ERC721/ERC721.sol\":6697:6873  function safeTransferFrom(... */\n      pop\n      pop\n      pop\n      jump\t// out\n        /* \"Project/ERC721/ERC721.sol\":1923:2104  function ownerOf(uint tokenId) public view override returns (address owner) {... */\n    tag_53:\n        /* \"Project/ERC721/ERC721.sol\":1984:1997  address owner */\n      0x00\n        /* \"Project/ERC721/ERC721.sol\":2018:2025  _owners */\n      0x02\n        /* \"Project/ERC721/ERC721.sol\":2018:2034  _owners[tokenId] */\n      0x00\n        /* \"Project/ERC721/ERC721.sol\":2026:2033  tokenId */\n      dup4\n        /* \"Project/ERC721/ERC721.sol\":2018:2034  _owners[tokenId] */\n      dup2\n      mstore\n      0x20\n      add\n      swap1\n      dup2\n      mstore\n      0x20\n      add\n      0x00\n      keccak256\n      0x00\n      swap1\n      sload\n      swap1\n      0x0100\n      exp\n      swap1\n      div\n      0xffffffffffffffffffffffffffffffffffffffff\n      and\n        /* \"Project/ERC721/ERC721.sol\":2010:2034  owner = _owners[tokenId] */\n      swap1\n      pop\n        /* \"Project/ERC721/ERC721.sol\":2070:2071  0 */\n      0x00\n        /* \"Project/ERC721/ERC721.sol\":2053:2072  owner != address(0) */\n      0xffffffffffffffffffffffffffffffffffffffff\n      and\n        /* \"Project/ERC721/ERC721.sol\":2053:2058  owner */\n      dup2\n        /* \"Project/ERC721/ERC721.sol\":2053:2072  owner != address(0) */\n      0xffffffffffffffffffffffffffffffffffffffff\n      and\n      sub\n        /* \"Project/ERC721/ERC721.sol\":2045:2096  require(owner != address(0), \"token doesn't exist\") */\n      tag_123\n      jumpi\n      mload(0x40)\n      0x08c379a000000000000000000000000000000000000000000000000000000000\n      dup2\n      mstore\n      0x04\n      add\n      tag_124\n      swap1\n      tag_96\n      jump\t// in\n    tag_124:\n      mload(0x40)\n      dup1\n      swap2\n      sub\n      swap1\n      revert\n    tag_123:\n        /* \"Project/ERC721/ERC721.sol\":1923:2104  function ownerOf(uint tokenId) public view override returns (address owner) {... */\n      swap2\n      swap1\n      pop\n      jump\t// out\n        /* \"Project/ERC721/ERC721.sol\":1660:1837  function balanceOf(address owner) external view override returns (uint) {... */\n    tag_58:\n        /* \"Project/ERC721/ERC721.sol\":1726:1730  uint */\n      0x00\n        /* \"Project/ERC721/ERC721.sol\":1768:1769  0 */\n      dup1\n        /* \"Project/ERC721/ERC721.sol\":1751:1770  owner != address(0) */\n      0xffffffffffffffffffffffffffffffffffffffff\n      and\n        /* \"Project/ERC721/ERC721.sol\":1751:1756  owner */\n      dup3\n        /* \"Project/ERC721/ERC721.sol\":1751:1770  owner != address(0) */\n      0xffffffffffffffffffffffffffffffffffffffff\n      and\n      sub\n        /* \"Project/ERC721/ERC721.sol\":1743:1795  require(owner != address(0), \"owner = zero address\") */\n      tag_126\n      jumpi\n      mload(0x40)\n      0x08c379a000000000000000000000000000000000000000000000000000000000\n      dup2\n      mstore\n      0x04\n      add\n      tag_127\n      swap1\n      tag_128\n      jump\t// in\n    tag_127:\n      mload(0x40)\n      dup1\n      swap2\n      sub\n      swap1\n      revert\n    tag_126:\n        /* \"Project/ERC721/ERC721.sol\":1813:1822  _balances */\n      0x03\n        /* \"Project/ERC721/ERC721.sol\":1813:1829  _balances[owner] */\n      0x00\n        /* \"Project/ERC721/ERC721.sol\":1823:1828  owner */\n      dup4\n        /* \"Project/ERC721/ERC721.sol\":1813:1829  _balances[owner] */\n      0xffffffffffffffffffffffffffffffffffffffff\n      and\n      0xffffffffffffffffffffffffffffffffffffffff\n      and\n      dup2\n      mstore\n      0x20\n      add\n      swap1\n      dup2\n      mstore\n      0x20\n      add\n      0x00\n      keccak256\n      sload\n        /* \"Project/ERC721/ERC721.sol\":1806:1829  return _balances[owner] */\n      swap1\n      pop\n        /* \"Project/ERC721/ERC721.sol\":1660:1837  function balanceOf(address owner) external view override returns (uint) {... */\n      swap2\n      swap1\n      pop\n      jump\t// out\n        /* \"Project/ERC721/ERC721.sol\":517:546  string public override symbol */\n    tag_62:\n      0x01\n      dup1\n      sload\n      tag_129\n      swap1\n      tag_88\n      jump\t// in\n    tag_129:\n      dup1\n      0x1f\n      add\n      0x20\n      dup1\n      swap2\n      div\n      mul\n      0x20\n      add\n      mload(0x40)\n      swap1\n      dup2\n      add\n      0x40\n      mstore\n      dup1\n      swap3\n      swap2\n      swap1\n      dup2\n      dup2\n      mstore\n      0x20\n      add\n      dup3\n      dup1\n      sload\n      tag_130\n      swap1\n      tag_88\n      jump\t// in\n    tag_130:\n      dup1\n      iszero\n      tag_131\n      jumpi\n      dup1\n      0x1f\n      lt\n      tag_132\n      jumpi\n      0x0100\n      dup1\n      dup4\n      sload\n      div\n      mul\n      dup4\n      mstore\n      swap2\n      0x20\n      add\n      swap2\n      jump(tag_131)\n    tag_132:\n      dup3\n      add\n      swap2\n      swap1\n      0x00\n      mstore\n      keccak256(0x00, 0x20)\n      swap1\n    tag_133:\n      dup2\n      sload\n      dup2\n      mstore\n      swap1\n      0x01\n      add\n      swap1\n      0x20\n      add\n      dup1\n      dup4\n      gt\n      tag_133\n      jumpi\n      dup3\n      swap1\n      sub\n      0x1f\n      and\n      dup3\n      add\n      swap2\n    tag_131:\n      pop\n      pop\n      pop\n      pop\n      pop\n      dup2\n      jump\t// out\n        /* \"Project/ERC721/ERC721.sol\":2588:2798  function setApprovalForAll(address operator, bool approved) external override {... */\n    tag_67:\n        /* \"Project/ERC721/ERC721.sol\":2720:2728  approved */\n      dup1\n        /* \"Project/ERC721/ERC721.sol\":2677:2695  _operatorApprovals */\n      0x05\n        /* \"Project/ERC721/ERC721.sol\":2677:2707  _operatorApprovals[msg.sender] */\n      0x00\n        /* \"Project/ERC721/ERC721.sol\":2696:2706  msg.sender */\n      caller\n        /* \"Project/ERC721/ERC721.sol\":2677:2707  _operatorApprovals[msg.sender] */\n      0xffffffffffffffffffffffffffffffffffffffff\n      and\n      0xffffffffffffffffffffffffffffffffffffffff\n      and\n      dup2\n      mstore\n      0x20\n      add\n      swap1\n      dup2\n      mstore\n      0x20\n      add\n      0x00\n      keccak256\n        /* \"Project/ERC721/ERC721.sol\":2677:2717  _operatorApprovals[msg.sender][operator] */\n      0x00\n        /* \"Project/ERC721/ERC721.sol\":2708:2716  operator */\n      dup5\n        /* \"Project/ERC721/ERC721.sol\":2677:2717  _operatorApprovals[msg.sender][operator] */\n      0xffffffffffffffffffffffffffffffffffffffff\n      and\n      0xffffffffffffffffffffffffffffffffffffffff\n      and\n      dup2\n      mstore\n      0x20\n      add\n      swap1\n      dup2\n      mstore\n      0x20\n      add\n      0x00\n      keccak256\n      0x00\n        /* \"Project/ERC721/ERC721.sol\":2677:2728  _operatorApprovals[msg.sender][operator] = approved */\n      0x0100\n      exp\n      dup2\n      sload\n      dup2\n      0xff\n      mul\n      not\n      and\n      swap1\n      dup4\n      iszero\n      iszero\n      mul\n      or\n      swap1\n      sstore\n      pop\n        /* \"Project/ERC721/ERC721.sol\":2771:2779  operator */\n      dup2\n        /* \"Project/ERC721/ERC721.sol\":2744:2790  ApprovalForAll(msg.sender, operator, approved) */\n      0xffffffffffffffffffffffffffffffffffffffff\n      and\n        /* \"Project/ERC721/ERC721.sol\":2759:2769  msg.sender */\n      caller\n        /* \"Project/ERC721/ERC721.sol\":2744:2790  ApprovalForAll(msg.sender, operator, approved) */\n      0xffffffffffffffffffffffffffffffffffffffff\n      and\n      0x17307eab39ab6107e8899845ad3d59bd9653f200f220920489ca2b5937696c31\n        /* \"Project/ERC721/ERC721.sol\":2781:2789  approved */\n      dup4\n        /* \"Project/ERC721/ERC721.sol\":2744:2790  ApprovalForAll(msg.sender, operator, approved) */\n      mload(0x40)\n      tag_135\n      swap2\n      swap1\n      tag_26\n      jump\t// in\n    tag_135:\n      mload(0x40)\n      dup1\n      swap2\n      sub\n      swap1\n      log3\n        /* \"Project/ERC721/ERC721.sol\":2588:2798  function setApprovalForAll(address operator, bool approved) external override {... */\n      pop\n      pop\n      jump\t// out\n        /* \"Project/ERC721/ERC721.sol\":6270:6652  function safeTransferFrom(... */\n    tag_71:\n        /* \"Project/ERC721/ERC721.sol\":6426:6439  address owner */\n      0x00\n        /* \"Project/ERC721/ERC721.sol\":6442:6458  ownerOf(tokenId) */\n      tag_137\n        /* \"Project/ERC721/ERC721.sol\":6450:6457  tokenId */\n      dup4\n        /* \"Project/ERC721/ERC721.sol\":6442:6449  ownerOf */\n      tag_53\n        /* \"Project/ERC721/ERC721.sol\":6442:6458  ownerOf(tokenId) */\n      jump\t// in\n    tag_137:\n        /* \"Project/ERC721/ERC721.sol\":6426:6458  address owner = ownerOf(tokenId) */\n      swap1\n      pop\n        /* \"Project/ERC721/ERC721.sol\":6491:6537  _isApprovedOrOwner(owner, msg.sender, tokenId) */\n      tag_138\n        /* \"Project/ERC721/ERC721.sol\":6510:6515  owner */\n      dup2\n        /* \"Project/ERC721/ERC721.sol\":6517:6527  msg.sender */\n      caller\n        /* \"Project/ERC721/ERC721.sol\":6529:6536  tokenId */\n      dup6\n        /* \"Project/ERC721/ERC721.sol\":6491:6509  _isApprovedOrOwner */\n      tag_107\n        /* \"Project/ERC721/ERC721.sol\":6491:6537  _isApprovedOrOwner(owner, msg.sender, tokenId) */\n      jump\t// in\n    tag_138:\n        /* \"Project/ERC721/ERC721.sol\":6469:6587  require(... */\n      tag_139\n      jumpi\n      mload(0x40)\n      0x08c379a000000000000000000000000000000000000000000000000000000000\n      dup2\n      mstore\n      0x04\n      add\n      tag_140\n      swap1\n      tag_110\n      jump\t// in\n    tag_140:\n      mload(0x40)\n      dup1\n      swap2\n      sub\n      swap1\n      revert\n    tag_139:\n        /* \"Project/ERC721/ERC721.sol\":6598:6644  _safeTransfer(owner, from, to, tokenId, _data) */\n      tag_141\n        /* \"Project/ERC721/ERC721.sol\":6612:6617  owner */\n      dup2\n        /* \"Project/ERC721/ERC721.sol\":6619:6623  from */\n      dup7\n        /* \"Project/ERC721/ERC721.sol\":6625:6627  to */\n      dup7\n        /* \"Project/ERC721/ERC721.sol\":6629:6636  tokenId */\n      dup7\n        /* \"Project/ERC721/ERC721.sol\":6638:6643  _data */\n      dup7\n        /* \"Project/ERC721/ERC721.sol\":6598:6611  _safeTransfer */\n      tag_142\n        /* \"Project/ERC721/ERC721.sol\":6598:6644  _safeTransfer(owner, from, to, tokenId, _data) */\n      jump\t// in\n    tag_141:\n        /* \"Project/ERC721/ERC721.sol\":6415:6652  {... */\n      pop\n        /* \"Project/ERC721/ERC721.sol\":6270:6652  function safeTransferFrom(... */\n      pop\n      pop\n      pop\n      pop\n      jump\t// out\n        /* \"Project/ERC721/SCUtest.sol\":132:160  uint public MAX_APES = 10000 */\n    tag_73:\n      sload(0x06)\n      dup2\n      jump\t// out\n        /* \"Project/ERC721/ERC721.sol\":8879:9195  function tokenURI(uint256 tokenId) public view virtual override returns (string memory) {... */\n    tag_77:\n        /* \"Project/ERC721/ERC721.sol\":8952:8965  string memory */\n      0x60\n        /* \"Project/ERC721/ERC721.sol\":9014:9015  0 */\n      0x00\n        /* \"Project/ERC721/ERC721.sol\":8986:9016  _owners[tokenId] != address(0) */\n      0xffffffffffffffffffffffffffffffffffffffff\n      and\n        /* \"Project/ERC721/ERC721.sol\":8986:8993  _owners */\n      0x02\n        /* \"Project/ERC721/ERC721.sol\":8986:9002  _owners[tokenId] */\n      0x00\n        /* \"Project/ERC721/ERC721.sol\":8994:9001  tokenId */\n      dup5\n        /* \"Project/ERC721/ERC721.sol\":8986:9002  _owners[tokenId] */\n      dup2\n      mstore\n      0x20\n      add\n      swap1\n      dup2\n      mstore\n      0x20\n      add\n      0x00\n      keccak256\n      0x00\n      swap1\n      sload\n      swap1\n      0x0100\n      exp\n      swap1\n      div\n      0xffffffffffffffffffffffffffffffffffffffff\n      and\n        /* \"Project/ERC721/ERC721.sol\":8986:9016  _owners[tokenId] != address(0) */\n      0xffffffffffffffffffffffffffffffffffffffff\n      and\n      sub\n        /* \"Project/ERC721/ERC721.sol\":8978:9036  require(_owners[tokenId] != address(0), \"Token Not Exist\") */\n      tag_144\n      jumpi\n      mload(0x40)\n      0x08c379a000000000000000000000000000000000000000000000000000000000\n      dup2\n      mstore\n      0x04\n      add\n      tag_145\n      swap1\n      tag_146\n      jump\t// in\n    tag_145:\n      mload(0x40)\n      dup1\n      swap2\n      sub\n      swap1\n      revert\n    tag_144:\n        /* \"Project/ERC721/ERC721.sol\":9049:9070  string memory baseURI */\n      0x00\n        /* \"Project/ERC721/ERC721.sol\":9073:9083  _baseURI() */\n      tag_147\n        /* \"Project/ERC721/ERC721.sol\":9073:9081  _baseURI */\n      tag_148\n        /* \"Project/ERC721/ERC721.sol\":9073:9083  _baseURI() */\n      jump\t// in\n    tag_147:\n        /* \"Project/ERC721/ERC721.sol\":9049:9083  string memory baseURI = _baseURI() */\n      swap1\n      pop\n        /* \"Project/ERC721/ERC721.sol\":9125:9126  0 */\n      0x00\n        /* \"Project/ERC721/ERC721.sol\":9107:9114  baseURI */\n      dup2\n        /* \"Project/ERC721/ERC721.sol\":9101:9122  bytes(baseURI).length */\n      mload\n        /* \"Project/ERC721/ERC721.sol\":9101:9126  bytes(baseURI).length > 0 */\n      gt\n        /* \"Project/ERC721/ERC721.sol\":9101:9187  bytes(baseURI).length > 0 ? string(abi.encodePacked(baseURI, tokenId.toString())) : \"\" */\n      tag_149\n      jumpi\n      mload(0x40)\n      dup1\n      0x20\n      add\n      0x40\n      mstore\n      dup1\n      0x00\n      dup2\n      mstore\n      pop\n      jump(tag_150)\n    tag_149:\n        /* \"Project/ERC721/ERC721.sol\":9153:9160  baseURI */\n      dup1\n        /* \"Project/ERC721/ERC721.sol\":9162:9180  tokenId.toString() */\n      tag_151\n        /* \"Project/ERC721/ERC721.sol\":9162:9169  tokenId */\n      dup5\n        /* \"Project/ERC721/ERC721.sol\":9162:9178  tokenId.toString */\n      tag_152\n        /* \"Project/ERC721/ERC721.sol\":9162:9180  tokenId.toString() */\n      jump\t// in\n    tag_151:\n        /* \"Project/ERC721/ERC721.sol\":9136:9181  abi.encodePacked(baseURI, tokenId.toString()) */\n      add(0x20, mload(0x40))\n      tag_153\n      swap3\n      swap2\n      swap1\n      tag_154\n      jump\t// in\n    tag_153:\n      mload(0x40)\n      0x20\n      dup2\n      dup4\n      sub\n      sub\n      dup2\n      mstore\n      swap1\n      0x40\n      mstore\n        /* \"Project/ERC721/ERC721.sol\":9101:9187  bytes(baseURI).length > 0 ? string(abi.encodePacked(baseURI, tokenId.toString())) : \"\" */\n    tag_150:\n        /* \"Project/ERC721/ERC721.sol\":9094:9187  return bytes(baseURI).length > 0 ? string(abi.encodePacked(baseURI, tokenId.toString())) : \"\" */\n      swap2\n      pop\n      pop\n        /* \"Project/ERC721/ERC721.sol\":8879:9195  function tokenURI(uint256 tokenId) public view virtual override returns (string memory) {... */\n      swap2\n      swap1\n      pop\n      jump\t// out\n        /* \"Project/ERC721/ERC721.sol\":2256:2455  function isApprovedForAll(address owner, address operator)... */\n    tag_82:\n        /* \"Project/ERC721/ERC721.sol\":2383:2387  bool */\n      0x00\n        /* \"Project/ERC721/ERC721.sol\":2412:2430  _operatorApprovals */\n      0x05\n        /* \"Project/ERC721/ERC721.sol\":2412:2437  _operatorApprovals[owner] */\n      0x00\n        /* \"Project/ERC721/ERC721.sol\":2431:2436  owner */\n      dup5\n        /* \"Project/ERC721/ERC721.sol\":2412:2437  _operatorApprovals[owner] */\n      0xffffffffffffffffffffffffffffffffffffffff\n      and\n      0xffffffffffffffffffffffffffffffffffffffff\n      and\n      dup2\n      mstore\n      0x20\n      add\n      swap1\n      dup2\n      mstore\n      0x20\n      add\n      0x00\n      keccak256\n        /* \"Project/ERC721/ERC721.sol\":2412:2447  _operatorApprovals[owner][operator] */\n      0x00\n        /* \"Project/ERC721/ERC721.sol\":2438:2446  operator */\n      dup4\n        /* \"Project/ERC721/ERC721.sol\":2412:2447  _operatorApprovals[owner][operator] */\n      0xffffffffffffffffffffffffffffffffffffffff\n      and\n      0xffffffffffffffffffffffffffffffffffffffff\n      and\n      dup2\n      mstore\n      0x20\n      add\n      swap1\n      dup2\n      mstore\n      0x20\n      add\n      0x00\n      keccak256\n      0x00\n      swap1\n      sload\n      swap1\n      0x0100\n      exp\n      swap1\n      div\n      0xff\n      and\n        /* \"Project/ERC721/ERC721.sol\":2405:2447  return _operatorApprovals[owner][operator] */\n      swap1\n      pop\n        /* \"Project/ERC721/ERC721.sol\":2256:2455  function isApprovedForAll(address owner, address operator)... */\n      swap3\n      swap2\n      pop\n      pop\n      jump\t// out\n        /* \"Project/ERC721/ERC721.sol\":3234:3427  function _approve(... */\n    tag_103:\n        /* \"Project/ERC721/ERC721.sol\":3373:3375  to */\n      dup2\n        /* \"Project/ERC721/ERC721.sol\":3346:3361  _tokenApprovals */\n      0x04\n        /* \"Project/ERC721/ERC721.sol\":3346:3370  _tokenApprovals[tokenId] */\n      0x00\n        /* \"Project/ERC721/ERC721.sol\":3362:3369  tokenId */\n      dup4\n        /* \"Project/ERC721/ERC721.sol\":3346:3370  _tokenApprovals[tokenId] */\n      dup2\n      mstore\n      0x20\n      add\n      swap1\n      dup2\n      mstore\n      0x20\n      add\n      0x00\n      keccak256\n      0x00\n        /* \"Project/ERC721/ERC721.sol\":3346:3375  _tokenApprovals[tokenId] = to */\n      0x0100\n      exp\n      dup2\n      sload\n      dup2\n      0xffffffffffffffffffffffffffffffffffffffff\n      mul\n      not\n      and\n      swap1\n      dup4\n      0xffffffffffffffffffffffffffffffffffffffff\n      and\n      mul\n      or\n      swap1\n      sstore\n      pop\n        /* \"Project/ERC721/ERC721.sol\":3411:3418  tokenId */\n      dup1\n        /* \"Project/ERC721/ERC721.sol\":3407:3409  to */\n      dup3\n        /* \"Project/ERC721/ERC721.sol\":3391:3419  Approval(owner, to, tokenId) */\n      0xffffffffffffffffffffffffffffffffffffffff\n      and\n        /* \"Project/ERC721/ERC721.sol\":3400:3405  owner */\n      dup5\n        /* \"Project/ERC721/ERC721.sol\":3391:3419  Approval(owner, to, tokenId) */\n      0xffffffffffffffffffffffffffffffffffffffff\n      and\n      0x8c5be1e5ebec7d5bd14f71427d1e84f3dd0314c0f7b2291e5b200ac8c7c3b925\n      mload(0x40)\n      mload(0x40)\n      dup1\n      swap2\n      sub\n      swap1\n      log4\n        /* \"Project/ERC721/ERC721.sol\":3234:3427  function _approve(... */\n      pop\n      pop\n      pop\n      jump\t// out\n        /* \"Project/ERC721/ERC721.sol\":3991:4274  function _isApprovedOrOwner(... */\n    tag_107:\n        /* \"Project/ERC721/ERC721.sol\":4121:4125  bool */\n      0x00\n        /* \"Project/ERC721/ERC721.sol\":4157:4162  owner */\n      dup4\n        /* \"Project/ERC721/ERC721.sol\":4146:4162  spender == owner */\n      0xffffffffffffffffffffffffffffffffffffffff\n      and\n        /* \"Project/ERC721/ERC721.sol\":4146:4153  spender */\n      dup4\n        /* \"Project/ERC721/ERC721.sol\":4146:4162  spender == owner */\n      0xffffffffffffffffffffffffffffffffffffffff\n      and\n      eq\n        /* \"Project/ERC721/ERC721.sol\":4146:4214  spender == owner ||... */\n      dup1\n      tag_158\n      jumpi\n      pop\n        /* \"Project/ERC721/ERC721.sol\":4207:4214  spender */\n      dup3\n        /* \"Project/ERC721/ERC721.sol\":4179:4214  _tokenApprovals[tokenId] == spender */\n      0xffffffffffffffffffffffffffffffffffffffff\n      and\n        /* \"Project/ERC721/ERC721.sol\":4179:4194  _tokenApprovals */\n      0x04\n        /* \"Project/ERC721/ERC721.sol\":4179:4203  _tokenApprovals[tokenId] */\n      0x00\n        /* \"Project/ERC721/ERC721.sol\":4195:4202  tokenId */\n      dup5\n        /* \"Project/ERC721/ERC721.sol\":4179:4203  _tokenApprovals[tokenId] */\n      dup2\n      mstore\n      0x20\n      add\n      swap1\n      dup2\n      mstore\n      0x20\n      add\n      0x00\n      keccak256\n      0x00\n      swap1\n      sload\n      swap1\n      0x0100\n      exp\n      swap1\n      div\n      0xffffffffffffffffffffffffffffffffffffffff\n      and\n        /* \"Project/ERC721/ERC721.sol\":4179:4214  _tokenApprovals[tokenId] == spender */\n      0xffffffffffffffffffffffffffffffffffffffff\n      and\n      eq\n        /* \"Project/ERC721/ERC721.sol\":4146:4214  spender == owner ||... */\n    tag_158:\n        /* \"Project/ERC721/ERC721.sol\":4146:4265  spender == owner ||... */\n      dup1\n      tag_159\n      jumpi\n      pop\n        /* \"Project/ERC721/ERC721.sol\":4231:4249  _operatorApprovals */\n      0x05\n        /* \"Project/ERC721/ERC721.sol\":4231:4256  _operatorApprovals[owner] */\n      0x00\n        /* \"Project/ERC721/ERC721.sol\":4250:4255  owner */\n      dup6\n        /* \"Project/ERC721/ERC721.sol\":4231:4256  _operatorApprovals[owner] */\n      0xffffffffffffffffffffffffffffffffffffffff\n      and\n      0xffffffffffffffffffffffffffffffffffffffff\n      and\n      dup2\n      mstore\n      0x20\n      add\n      swap1\n      dup2\n      mstore\n      0x20\n      add\n      0x00\n      keccak256\n        /* \"Project/ERC721/ERC721.sol\":4231:4265  _operatorApprovals[owner][spender] */\n      0x00\n        /* \"Project/ERC721/ERC721.sol\":4257:4264  spender */\n      dup5\n        /* \"Project/ERC721/ERC721.sol\":4231:4265  _operatorApprovals[owner][spender] */\n      0xffffffffffffffffffffffffffffffffffffffff\n      and\n      0xffffffffffffffffffffffffffffffffffffffff\n      and\n      dup2\n      mstore\n      0x20\n      add\n      swap1\n      dup2\n      mstore\n      0x20\n      add\n      0x00\n      keccak256\n      0x00\n      swap1\n      sload\n      swap1\n      0x0100\n      exp\n      swap1\n      div\n      0xff\n      and\n        /* \"Project/ERC721/ERC721.sol\":4146:4265  spender == owner ||... */\n    tag_159:\n        /* \"Project/ERC721/ERC721.sol\":4138:4266  return (spender == owner ||... */\n      swap1\n      pop\n        /* \"Project/ERC721/ERC721.sol\":3991:4274  function _isApprovedOrOwner(... */\n      swap4\n      swap3\n      pop\n      pop\n      pop\n      jump\t// out\n        /* \"Project/ERC721/ERC721.sol\":4503:4938  function _transfer(... */\n    tag_112:\n        /* \"Project/ERC721/ERC721.sol\":4655:4660  owner */\n      dup4\n        /* \"Project/ERC721/ERC721.sol\":4647:4660  from == owner */\n      0xffffffffffffffffffffffffffffffffffffffff\n      and\n        /* \"Project/ERC721/ERC721.sol\":4647:4651  from */\n      dup4\n        /* \"Project/ERC721/ERC721.sol\":4647:4660  from == owner */\n      0xffffffffffffffffffffffffffffffffffffffff\n      and\n      eq\n        /* \"Project/ERC721/ERC721.sol\":4639:4674  require(from == owner, \"not owner\") */\n      tag_161\n      jumpi\n      mload(0x40)\n      0x08c379a000000000000000000000000000000000000000000000000000000000\n      dup2\n      mstore\n      0x04\n      add\n      tag_162\n      swap1\n      tag_163\n      jump\t// in\n    tag_162:\n      mload(0x40)\n      dup1\n      swap2\n      sub\n      swap1\n      revert\n    tag_161:\n        /* \"Project/ERC721/ERC721.sol\":4707:4708  0 */\n      0x00\n        /* \"Project/ERC721/ERC721.sol\":4693:4709  to != address(0) */\n      0xffffffffffffffffffffffffffffffffffffffff\n      and\n        /* \"Project/ERC721/ERC721.sol\":4693:4695  to */\n      dup3\n        /* \"Project/ERC721/ERC721.sol\":4693:4709  to != address(0) */\n      0xffffffffffffffffffffffffffffffffffffffff\n      and\n      sub\n        /* \"Project/ERC721/ERC721.sol\":4685:4742  require(to != address(0), \"transfer to the zero address\") */\n      tag_164\n      jumpi\n      mload(0x40)\n      0x08c379a000000000000000000000000000000000000000000000000000000000\n      dup2\n      mstore\n      0x04\n      add\n      tag_165\n      swap1\n      tag_166\n      jump\t// in\n    tag_165:\n      mload(0x40)\n      dup1\n      swap2\n      sub\n      swap1\n      revert\n    tag_164:\n        /* \"Project/ERC721/ERC721.sol\":4755:4791  _approve(owner, address(0), tokenId) */\n      tag_167\n        /* \"Project/ERC721/ERC721.sol\":4764:4769  owner */\n      dup5\n        /* \"Project/ERC721/ERC721.sol\":4779:4780  0 */\n      0x00\n        /* \"Project/ERC721/ERC721.sol\":4783:4790  tokenId */\n      dup4\n        /* \"Project/ERC721/ERC721.sol\":4755:4763  _approve */\n      tag_103\n        /* \"Project/ERC721/ERC721.sol\":4755:4791  _approve(owner, address(0), tokenId) */\n      jump\t// in\n    tag_167:\n        /* \"Project/ERC721/ERC721.sol\":4823:4824  1 */\n      0x01\n        /* \"Project/ERC721/ERC721.sol\":4804:4813  _balances */\n      0x03\n        /* \"Project/ERC721/ERC721.sol\":4804:4819  _balances[from] */\n      0x00\n        /* \"Project/ERC721/ERC721.sol\":4814:4818  from */\n      dup6\n        /* \"Project/ERC721/ERC721.sol\":4804:4819  _balances[from] */\n      0xffffffffffffffffffffffffffffffffffffffff\n      and\n      0xffffffffffffffffffffffffffffffffffffffff\n      and\n      dup2\n      mstore\n      0x20\n      add\n      swap1\n      dup2\n      mstore\n      0x20\n      add\n      0x00\n      keccak256\n      0x00\n        /* \"Project/ERC721/ERC721.sol\":4804:4824  _balances[from] -= 1 */\n      dup3\n      dup3\n      sload\n      tag_168\n      swap2\n      swap1\n      tag_169\n      jump\t// in\n    tag_168:\n      swap3\n      pop\n      pop\n      dup2\n      swap1\n      sstore\n      pop\n        /* \"Project/ERC721/ERC721.sol\":4852:4853  1 */\n      0x01\n        /* \"Project/ERC721/ERC721.sol\":4835:4844  _balances */\n      0x03\n        /* \"Project/ERC721/ERC721.sol\":4835:4848  _balances[to] */\n      0x00\n        /* \"Project/ERC721/ERC721.sol\":4845:4847  to */\n      dup5\n        /* \"Project/ERC721/ERC721.sol\":4835:4848  _balances[to] */\n      0xffffffffffffffffffffffffffffffffffffffff\n      and\n      0xffffffffffffffffffffffffffffffffffffffff\n      and\n      dup2\n      mstore\n      0x20\n      add\n      swap1\n      dup2\n      mstore\n      0x20\n      add\n      0x00\n      keccak256\n      0x00\n        /* \"Project/ERC721/ERC721.sol\":4835:4853  _balances[to] += 1 */\n      dup3\n      dup3\n      sload\n      tag_170\n      swap2\n      swap1\n      tag_171\n      jump\t// in\n    tag_170:\n      swap3\n      pop\n      pop\n      dup2\n      swap1\n      sstore\n      pop\n        /* \"Project/ERC721/ERC721.sol\":4883:4885  to */\n      dup2\n        /* \"Project/ERC721/ERC721.sol\":4864:4871  _owners */\n      0x02\n        /* \"Project/ERC721/ERC721.sol\":4864:4880  _owners[tokenId] */\n      0x00\n        /* \"Project/ERC721/ERC721.sol\":4872:4879  tokenId */\n      dup4\n        /* \"Project/ERC721/ERC721.sol\":4864:4880  _owners[tokenId] */\n      dup2\n      mstore\n      0x20\n      add\n      swap1\n      dup2\n      mstore\n      0x20\n      add\n      0x00\n      keccak256\n      0x00\n        /* \"Project/ERC721/ERC721.sol\":4864:4885  _owners[tokenId] = to */\n      0x0100\n      exp\n      dup2\n      sload\n      dup2\n      0xffffffffffffffffffffffffffffffffffffffff\n      mul\n      not\n      and\n      swap1\n      dup4\n      0xffffffffffffffffffffffffffffffffffffffff\n      and\n      mul\n      or\n      swap1\n      sstore\n      pop\n        /* \"Project/ERC721/ERC721.sol\":4922:4929  tokenId */\n      dup1\n        /* \"Project/ERC721/ERC721.sol\":4918:4920  to */\n      dup3\n        /* \"Project/ERC721/ERC721.sol\":4903:4930  Transfer(from, to, tokenId) */\n      0xffffffffffffffffffffffffffffffffffffffff\n      and\n        /* \"Project/ERC721/ERC721.sol\":4912:4916  from */\n      dup5\n        /* \"Project/ERC721/ERC721.sol\":4903:4930  Transfer(from, to, tokenId) */\n      0xffffffffffffffffffffffffffffffffffffffff\n      and\n      0xddf252ad1be2c89b69c2b068fc378daa952ba7f163c4a11628f55a4df523b3ef\n      mload(0x40)\n      mload(0x40)\n      dup1\n      swap2\n      sub\n      swap1\n      log4\n        /* \"Project/ERC721/ERC721.sol\":4503:4938  function _transfer(... */\n      pop\n      pop\n      pop\n      pop\n      jump\t// out\n        /* \"Project/ERC721/ERC721.sol\":7326:7640  function _mint(address to, uint tokenId) internal virtual {... */\n    tag_119:\n        /* \"Project/ERC721/ERC721.sol\":7417:7418  0 */\n      0x00\n        /* \"Project/ERC721/ERC721.sol\":7403:7419  to != address(0) */\n      0xffffffffffffffffffffffffffffffffffffffff\n      and\n        /* \"Project/ERC721/ERC721.sol\":7403:7405  to */\n      dup3\n        /* \"Project/ERC721/ERC721.sol\":7403:7419  to != address(0) */\n      0xffffffffffffffffffffffffffffffffffffffff\n      and\n      sub\n        /* \"Project/ERC721/ERC721.sol\":7395:7444  require(to != address(0), \"mint to zero address\") */\n      tag_173\n      jumpi\n      mload(0x40)\n      0x08c379a000000000000000000000000000000000000000000000000000000000\n      dup2\n      mstore\n      0x04\n      add\n      tag_174\n      swap1\n      tag_175\n      jump\t// in\n    tag_174:\n      mload(0x40)\n      dup1\n      swap2\n      sub\n      swap1\n      revert\n    tag_173:\n        /* \"Project/ERC721/ERC721.sol\":7491:7492  0 */\n      0x00\n        /* \"Project/ERC721/ERC721.sol\":7463:7493  _owners[tokenId] == address(0) */\n      0xffffffffffffffffffffffffffffffffffffffff\n      and\n        /* \"Project/ERC721/ERC721.sol\":7463:7470  _owners */\n      0x02\n        /* \"Project/ERC721/ERC721.sol\":7463:7479  _owners[tokenId] */\n      0x00\n        /* \"Project/ERC721/ERC721.sol\":7471:7478  tokenId */\n      dup4\n        /* \"Project/ERC721/ERC721.sol\":7463:7479  _owners[tokenId] */\n      dup2\n      mstore\n      0x20\n      add\n      swap1\n      dup2\n      mstore\n      0x20\n      add\n      0x00\n      keccak256\n      0x00\n      swap1\n      sload\n      swap1\n      0x0100\n      exp\n      swap1\n      div\n      0xffffffffffffffffffffffffffffffffffffffff\n      and\n        /* \"Project/ERC721/ERC721.sol\":7463:7493  _owners[tokenId] == address(0) */\n      0xffffffffffffffffffffffffffffffffffffffff\n      and\n      eq\n        /* \"Project/ERC721/ERC721.sol\":7455:7518  require(_owners[tokenId] == address(0), \"token already minted\") */\n      tag_176\n      jumpi\n      mload(0x40)\n      0x08c379a000000000000000000000000000000000000000000000000000000000\n      dup2\n      mstore\n      0x04\n      add\n      tag_177\n      swap1\n      tag_178\n      jump\t// in\n    tag_177:\n      mload(0x40)\n      dup1\n      swap2\n      sub\n      swap1\n      revert\n    tag_176:\n        /* \"Project/ERC721/ERC721.sol\":7548:7549  1 */\n      0x01\n        /* \"Project/ERC721/ERC721.sol\":7531:7540  _balances */\n      0x03\n        /* \"Project/ERC721/ERC721.sol\":7531:7544  _balances[to] */\n      0x00\n        /* \"Project/ERC721/ERC721.sol\":7541:7543  to */\n      dup5\n        /* \"Project/ERC721/ERC721.sol\":7531:7544  _balances[to] */\n      0xffffffffffffffffffffffffffffffffffffffff\n      and\n      0xffffffffffffffffffffffffffffffffffffffff\n      and\n      dup2\n      mstore\n      0x20\n      add\n      swap1\n      dup2\n      mstore\n      0x20\n      add\n      0x00\n      keccak256\n      0x00\n        /* \"Project/ERC721/ERC721.sol\":7531:7549  _balances[to] += 1 */\n      dup3\n      dup3\n      sload\n      tag_179\n      swap2\n      swap1\n      tag_171\n      jump\t// in\n    tag_179:\n      swap3\n      pop\n      pop\n      dup2\n      swap1\n      sstore\n      pop\n        /* \"Project/ERC721/ERC721.sol\":7579:7581  to */\n      dup2\n        /* \"Project/ERC721/ERC721.sol\":7560:7567  _owners */\n      0x02\n        /* \"Project/ERC721/ERC721.sol\":7560:7576  _owners[tokenId] */\n      0x00\n        /* \"Project/ERC721/ERC721.sol\":7568:7575  tokenId */\n      dup4\n        /* \"Project/ERC721/ERC721.sol\":7560:7576  _owners[tokenId] */\n      dup2\n      mstore\n      0x20\n      add\n      swap1\n      dup2\n      mstore\n      0x20\n      add\n      0x00\n      keccak256\n      0x00\n        /* \"Project/ERC721/ERC721.sol\":7560:7581  _owners[tokenId] = to */\n      0x0100\n      exp\n      dup2\n      sload\n      dup2\n      0xffffffffffffffffffffffffffffffffffffffff\n      mul\n      not\n      and\n      swap1\n      dup4\n      0xffffffffffffffffffffffffffffffffffffffff\n      and\n      mul\n      or\n      swap1\n      sstore\n      pop\n        /* \"Project/ERC721/ERC721.sol\":7624:7631  tokenId */\n      dup1\n        /* \"Project/ERC721/ERC721.sol\":7620:7622  to */\n      dup3\n        /* \"Project/ERC721/ERC721.sol\":7599:7632  Transfer(address(0), to, tokenId) */\n      0xffffffffffffffffffffffffffffffffffffffff\n      and\n        /* \"Project/ERC721/ERC721.sol\":7616:7617  0 */\n      0x00\n        /* \"Project/ERC721/ERC721.sol\":7599:7632  Transfer(address(0), to, tokenId) */\n      0xffffffffffffffffffffffffffffffffffffffff\n      and\n      0xddf252ad1be2c89b69c2b068fc378daa952ba7f163c4a11628f55a4df523b3ef\n      mload(0x40)\n      mload(0x40)\n      dup1\n      swap2\n      sub\n      swap1\n      log4\n        /* \"Project/ERC721/ERC721.sol\":7326:7640  function _mint(address to, uint tokenId) internal virtual {... */\n      pop\n      pop\n      jump\t// out\n        /* \"Project/ERC721/ERC721.sol\":5852:6154  function _safeTransfer(... */\n    tag_142:\n        /* \"Project/ERC721/ERC721.sol\":6021:6056  _transfer(owner, from, to, tokenId) */\n      tag_181\n        /* \"Project/ERC721/ERC721.sol\":6031:6036  owner */\n      dup6\n        /* \"Project/ERC721/ERC721.sol\":6038:6042  from */\n      dup6\n        /* \"Project/ERC721/ERC721.sol\":6044:6046  to */\n      dup6\n        /* \"Project/ERC721/ERC721.sol\":6048:6055  tokenId */\n      dup6\n        /* \"Project/ERC721/ERC721.sol\":6021:6030  _transfer */\n      tag_112\n        /* \"Project/ERC721/ERC721.sol\":6021:6056  _transfer(owner, from, to, tokenId) */\n      jump\t// in\n    tag_181:\n        /* \"Project/ERC721/ERC721.sol\":6075:6123  _checkOnERC721Received(from, to, tokenId, _data) */\n      tag_182\n        /* \"Project/ERC721/ERC721.sol\":6098:6102  from */\n      dup5\n        /* \"Project/ERC721/ERC721.sol\":6104:6106  to */\n      dup5\n        /* \"Project/ERC721/ERC721.sol\":6108:6115  tokenId */\n      dup5\n        /* \"Project/ERC721/ERC721.sol\":6117:6122  _data */\n      dup5\n        /* \"Project/ERC721/ERC721.sol\":6075:6097  _checkOnERC721Received */\n      tag_183\n        /* \"Project/ERC721/ERC721.sol\":6075:6123  _checkOnERC721Received(from, to, tokenId, _data) */\n      jump\t// in\n    tag_182:\n        /* \"Project/ERC721/ERC721.sol\":6067:6146  require(_checkOnERC721Received(from, to, tokenId, _data), \"not ERC721Receiver\") */\n      tag_184\n      jumpi\n      mload(0x40)\n      0x08c379a000000000000000000000000000000000000000000000000000000000\n      dup2\n      mstore\n      0x04\n      add\n      tag_185\n      swap1\n      tag_186\n      jump\t// in\n    tag_185:\n      mload(0x40)\n      dup1\n      swap2\n      sub\n      swap1\n      revert\n    tag_184:\n        /* \"Project/ERC721/ERC721.sol\":5852:6154  function _safeTransfer(... */\n      pop\n      pop\n      pop\n      pop\n      pop\n      jump\t// out\n        /* \"Project/ERC721/SCUtest.sol\":374:523  function _baseURI() internal pure override returns (string memory) {... */\n    tag_148:\n        /* \"Project/ERC721/SCUtest.sol\":426:439  string memory */\n      0x60\n        /* \"Project/ERC721/SCUtest.sol\":452:515  return \"ipfs://QmeSjSinHpPnmXmspMjwiXyN6zS4E9zccariGR3jxcaWtq/\" */\n      mload(0x40)\n      dup1\n      0x60\n      add\n      0x40\n      mstore\n      dup1\n      0x36\n      dup2\n      mstore\n      0x20\n      add\n      data_8382b382247cd07401a2ef2f394137c3f3b0972798bae0a9c78b0c261acbb56b\n      0x36\n      swap2\n      codecopy\n      swap1\n      pop\n        /* \"Project/ERC721/SCUtest.sol\":374:523  function _baseURI() internal pure override returns (string memory) {... */\n      swap1\n      jump\t// out\n        /* \"Project/ERC721/String.sol\":408:1131  function toString(uint256 value) internal pure returns (string memory) {... */\n    tag_152:\n        /* \"Project/ERC721/String.sol\":464:477  string memory */\n      0x60\n        /* \"Project/ERC721/String.sol\":694:695  0 */\n      0x00\n        /* \"Project/ERC721/String.sol\":685:690  value */\n      dup3\n        /* \"Project/ERC721/String.sol\":685:695  value == 0 */\n      sub\n        /* \"Project/ERC721/String.sol\":681:734  if (value == 0) {... */\n      tag_189\n      jumpi\n        /* \"Project/ERC721/String.sol\":712:722  return \"0\" */\n      mload(0x40)\n      dup1\n      0x40\n      add\n      0x40\n      mstore\n      dup1\n      0x01\n      dup2\n      mstore\n      0x20\n      add\n      0x3000000000000000000000000000000000000000000000000000000000000000\n      dup2\n      mstore\n      pop\n      swap1\n      pop\n      jump(tag_188)\n        /* \"Project/ERC721/String.sol\":681:734  if (value == 0) {... */\n    tag_189:\n        /* \"Project/ERC721/String.sol\":744:756  uint256 temp */\n      0x00\n        /* \"Project/ERC721/String.sol\":759:764  value */\n      dup3\n        /* \"Project/ERC721/String.sol\":744:764  uint256 temp = value */\n      swap1\n      pop\n        /* \"Project/ERC721/String.sol\":775:789  uint256 digits */\n      0x00\n        /* \"Project/ERC721/String.sol\":800:878  while (temp != 0) {... */\n    tag_190:\n        /* \"Project/ERC721/String.sol\":815:816  0 */\n      0x00\n        /* \"Project/ERC721/String.sol\":807:811  temp */\n      dup3\n        /* \"Project/ERC721/String.sol\":807:816  temp != 0 */\n      eq\n        /* \"Project/ERC721/String.sol\":800:878  while (temp != 0) {... */\n      tag_191\n      jumpi\n        /* \"Project/ERC721/String.sol\":833:841  digits++ */\n      dup1\n      dup1\n      tag_192\n      swap1\n      tag_193\n      jump\t// in\n    tag_192:\n      swap2\n      pop\n      pop\n        /* \"Project/ERC721/String.sol\":864:866  10 */\n      0x0a\n        /* \"Project/ERC721/String.sol\":856:866  temp /= 10 */\n      dup3\n      tag_194\n      swap2\n      swap1\n      tag_195\n      jump\t// in\n    tag_194:\n      swap2\n      pop\n        /* \"Project/ERC721/String.sol\":800:878  while (temp != 0) {... */\n      jump(tag_190)\n    tag_191:\n        /* \"Project/ERC721/String.sol\":888:907  bytes memory buffer */\n      0x00\n        /* \"Project/ERC721/String.sol\":920:926  digits */\n      dup2\n        /* \"Project/ERC721/String.sol\":910:927  new bytes(digits) */\n      0xffffffffffffffff\n      dup2\n      gt\n      iszero\n      tag_196\n      jumpi\n      tag_197\n      tag_198\n      jump\t// in\n    tag_197:\n    tag_196:\n      mload(0x40)\n      swap1\n      dup1\n      dup3\n      mstore\n      dup1\n      0x1f\n      add\n      not(0x1f)\n      and\n      0x20\n      add\n      dup3\n      add\n      0x40\n      mstore\n      dup1\n      iszero\n      tag_199\n      jumpi\n      dup2\n      0x20\n      add\n      0x01\n      dup3\n      mul\n      dup1\n      calldatasize\n      dup4\n      calldatacopy\n      dup1\n      dup3\n      add\n      swap2\n      pop\n      pop\n      swap1\n      pop\n    tag_199:\n      pop\n        /* \"Project/ERC721/String.sol\":888:927  bytes memory buffer = new bytes(digits) */\n      swap1\n      pop\n        /* \"Project/ERC721/String.sol\":938:1092  while (value != 0) {... */\n    tag_200:\n        /* \"Project/ERC721/String.sol\":954:955  0 */\n      0x00\n        /* \"Project/ERC721/String.sol\":945:950  value */\n      dup6\n        /* \"Project/ERC721/String.sol\":945:955  value != 0 */\n      eq\n        /* \"Project/ERC721/String.sol\":938:1092  while (value != 0) {... */\n      tag_201\n      jumpi\n        /* \"Project/ERC721/String.sol\":982:983  1 */\n      0x01\n        /* \"Project/ERC721/String.sol\":972:983  digits -= 1 */\n      dup3\n      tag_202\n      swap2\n      swap1\n      tag_169\n      jump\t// in\n    tag_202:\n      swap2\n      pop\n        /* \"Project/ERC721/String.sol\":1049:1051  10 */\n      0x0a\n        /* \"Project/ERC721/String.sol\":1041:1046  value */\n      dup6\n        /* \"Project/ERC721/String.sol\":1041:1051  value % 10 */\n      tag_203\n      swap2\n      swap1\n      tag_204\n      jump\t// in\n    tag_203:\n        /* \"Project/ERC721/String.sol\":1028:1030  48 */\n      0x30\n        /* \"Project/ERC721/String.sol\":1028:1052  48 + uint256(value % 10) */\n      tag_205\n      swap2\n      swap1\n      tag_171\n      jump\t// in\n    tag_205:\n        /* \"Project/ERC721/String.sol\":1015:1054  bytes1(uint8(48 + uint256(value % 10))) */\n      0xf8\n      shl\n        /* \"Project/ERC721/String.sol\":998:1004  buffer */\n      dup2\n        /* \"Project/ERC721/String.sol\":1005:1011  digits */\n      dup4\n        /* \"Project/ERC721/String.sol\":998:1012  buffer[digits] */\n      dup2\n      mload\n      dup2\n      lt\n      tag_206\n      jumpi\n      tag_207\n      tag_208\n      jump\t// in\n    tag_207:\n    tag_206:\n      0x20\n      add\n      add\n        /* \"Project/ERC721/String.sol\":998:1054  buffer[digits] = bytes1(uint8(48 + uint256(value % 10))) */\n      swap1\n      not(0xffffffffffffffffffffffffffffffffffffffffffffffffffffffffffffff)\n      and\n      swap1\n      dup2\n      0x00\n      byte\n      swap1\n      mstore8\n      pop\n        /* \"Project/ERC721/String.sol\":1078:1080  10 */\n      0x0a\n        /* \"Project/ERC721/String.sol\":1069:1080  value /= 10 */\n      dup6\n      tag_209\n      swap2\n      swap1\n      tag_195\n      jump\t// in\n    tag_209:\n      swap5\n      pop\n        /* \"Project/ERC721/String.sol\":938:1092  while (value != 0) {... */\n      jump(tag_200)\n    tag_201:\n        /* \"Project/ERC721/String.sol\":1116:1122  buffer */\n      dup1\n        /* \"Project/ERC721/String.sol\":1102:1123  return string(buffer) */\n      swap4\n      pop\n      pop\n      pop\n      pop\n        /* \"Project/ERC721/String.sol\":408:1131  function toString(uint256 value) internal pure returns (string memory) {... */\n    tag_188:\n      swap2\n      swap1\n      pop\n      jump\t// out\n        /* \"Project/ERC721/ERC721.sol\":8276:8786  function _checkOnERC721Received(... */\n    tag_183:\n        /* \"Project/ERC721/ERC721.sol\":8428:8432  bool */\n      0x00\n        /* \"Project/ERC721/ERC721.sol\":8449:8464  to.isContract() */\n      tag_211\n        /* \"Project/ERC721/ERC721.sol\":8449:8451  to */\n      dup5\n        /* \"Project/ERC721/ERC721.sol\":8449:8462  to.isContract */\n      0xffffffffffffffffffffffffffffffffffffffff\n      and\n      tag_212\n        /* \"Project/ERC721/ERC721.sol\":8449:8464  to.isContract() */\n      jump\t// in\n    tag_211:\n        /* \"Project/ERC721/ERC721.sol\":8445:8779  if (to.isContract()) {... */\n      iszero\n      tag_213\n      jumpi\n        /* \"Project/ERC721/ERC721.sol\":8682:8723  IERC721Receiver.onERC721Received.selector */\n      shl(0xe0, 0x150b7a02)\n        /* \"Project/ERC721/ERC721.sol\":8505:8723  IERC721Receiver(to).onERC721Received(... */\n      not(0xffffffffffffffffffffffffffffffffffffffffffffffffffffffff)\n      and\n        /* \"Project/ERC721/ERC721.sol\":8521:8523  to */\n      dup5\n        /* \"Project/ERC721/ERC721.sol\":8505:8541  IERC721Receiver(to).onERC721Received */\n      0xffffffffffffffffffffffffffffffffffffffff\n      and\n      0x150b7a02\n        /* \"Project/ERC721/ERC721.sol\":8564:8574  msg.sender */\n      caller\n        /* \"Project/ERC721/ERC721.sol\":8597:8601  from */\n      dup9\n        /* \"Project/ERC721/ERC721.sol\":8624:8631  tokenId */\n      dup8\n        /* \"Project/ERC721/ERC721.sol\":8654:8659  _data */\n      dup8\n        /* \"Project/ERC721/ERC721.sol\":8505:8678  IERC721Receiver(to).onERC721Received(... */\n      mload(0x40)\n      dup6\n      0xffffffff\n      and\n      0xe0\n      shl\n      dup2\n      mstore\n      0x04\n      add\n      tag_214\n      swap5\n      swap4\n      swap3\n      swap2\n      swap1\n      tag_215\n      jump\t// in\n    tag_214:\n      0x20\n      mload(0x40)\n      dup1\n      dup4\n      sub\n      dup2\n      0x00\n      dup8\n      gas\n      call\n      iszero\n      dup1\n      iszero\n      tag_217\n      jumpi\n      returndatasize\n      0x00\n      dup1\n      returndatacopy\n      revert(0x00, returndatasize)\n    tag_217:\n      pop\n      pop\n      pop\n      pop\n      mload(0x40)\n      returndatasize\n      not(0x1f)\n      0x1f\n      dup3\n      add\n      and\n      dup3\n      add\n      dup1\n      0x40\n      mstore\n      pop\n      dup2\n      add\n      swap1\n      tag_218\n      swap2\n      swap1\n      tag_219\n      jump\t// in\n    tag_218:\n        /* \"Project/ERC721/ERC721.sol\":8505:8723  IERC721Receiver(to).onERC721Received(... */\n      not(0xffffffffffffffffffffffffffffffffffffffffffffffffffffffff)\n      and\n      eq\n        /* \"Project/ERC721/ERC721.sol\":8481:8723  return... */\n      swap1\n      pop\n      jump(tag_210)\n        /* \"Project/ERC721/ERC721.sol\":8445:8779  if (to.isContract()) {... */\n    tag_213:\n        /* \"Project/ERC721/ERC721.sol\":8763:8767  true */\n      0x01\n        /* \"Project/ERC721/ERC721.sol\":8756:8767  return true */\n      swap1\n      pop\n        /* \"Project/ERC721/ERC721.sol\":8276:8786  function _checkOnERC721Received(... */\n    tag_210:\n      swap5\n      swap4\n      pop\n      pop\n      pop\n      pop\n      jump\t// out\n        /* \"Project/ERC721/Address.sol\":163:356  function isContract(address account) internal view returns (bool) {... */\n    tag_212:\n        /* \"Project/ERC721/Address.sol\":223:227  bool */\n      0x00\n        /* \"Project/ERC721/Address.sol\":240:249  uint size */\n      dup1\n        /* \"Project/ERC721/Address.sol\":304:311  account */\n      dup3\n        /* \"Project/ERC721/Address.sol\":292:312  extcodesize(account) */\n      extcodesize\n        /* \"Project/ERC721/Address.sol\":284:312  size := extcodesize(account) */\n      swap1\n      pop\n        /* \"Project/ERC721/Address.sol\":347:348  0 */\n      0x00\n        /* \"Project/ERC721/Address.sol\":340:344  size */\n      dup2\n        /* \"Project/ERC721/Address.sol\":340:348  size > 0 */\n      gt\n        /* \"Project/ERC721/Address.sol\":333:348  return size > 0 */\n      swap2\n      pop\n      pop\n        /* \"Project/ERC721/Address.sol\":163:356  function isContract(address account) internal view returns (bool) {... */\n      swap2\n      swap1\n      pop\n      jump\t// out\n        /* \"#utility.yul\":7:82   */\n    tag_222:\n        /* \"#utility.yul\":40:46   */\n      0x00\n        /* \"#utility.yul\":73:75   */\n      0x40\n        /* \"#utility.yul\":67:76   */\n      mload\n        /* \"#utility.yul\":57:76   */\n      swap1\n      pop\n        /* \"#utility.yul\":7:82   */\n      swap1\n      jump\t// out\n        /* \"#utility.yul\":88:205   */\n    tag_223:\n        /* \"#utility.yul\":197:198   */\n      0x00\n        /* \"#utility.yul\":194:195   */\n      dup1\n        /* \"#utility.yul\":187:199   */\n      revert\n        /* \"#utility.yul\":211:328   */\n    tag_224:\n        /* \"#utility.yul\":320:321   */\n      0x00\n        /* \"#utility.yul\":317:318   */\n      dup1\n        /* \"#utility.yul\":310:322   */\n      revert\n        /* \"#utility.yul\":334:483   */\n    tag_225:\n        /* \"#utility.yul\":370:377   */\n      0x00\n        /* \"#utility.yul\":410:476   */\n      0xffffffff00000000000000000000000000000000000000000000000000000000\n        /* \"#utility.yul\":403:408   */\n      dup3\n        /* \"#utility.yul\":399:477   */\n      and\n        /* \"#utility.yul\":388:477   */\n      swap1\n      pop\n        /* \"#utility.yul\":334:483   */\n      swap2\n      swap1\n      pop\n      jump\t// out\n        /* \"#utility.yul\":489:609   */\n    tag_226:\n        /* \"#utility.yul\":561:584   */\n      tag_291\n        /* \"#utility.yul\":578:583   */\n      dup2\n        /* \"#utility.yul\":561:584   */\n      tag_225\n      jump\t// in\n    tag_291:\n        /* \"#utility.yul\":554:559   */\n      dup2\n        /* \"#utility.yul\":551:585   */\n      eq\n        /* \"#utility.yul\":541:603   */\n      tag_292\n      jumpi\n        /* \"#utility.yul\":599:600   */\n      0x00\n        /* \"#utility.yul\":596:597   */\n      dup1\n        /* \"#utility.yul\":589:601   */\n      revert\n        /* \"#utility.yul\":541:603   */\n    tag_292:\n        /* \"#utility.yul\":489:609   */\n      pop\n      jump\t// out\n        /* \"#utility.yul\":615:752   */\n    tag_227:\n        /* \"#utility.yul\":660:665   */\n      0x00\n        /* \"#utility.yul\":698:704   */\n      dup2\n        /* \"#utility.yul\":685:705   */\n      calldataload\n        /* \"#utility.yul\":676:705   */\n      swap1\n      pop\n        /* \"#utility.yul\":714:746   */\n      tag_294\n        /* \"#utility.yul\":740:745   */\n      dup2\n        /* \"#utility.yul\":714:746   */\n      tag_226\n      jump\t// in\n    tag_294:\n        /* \"#utility.yul\":615:752   */\n      swap3\n      swap2\n      pop\n      pop\n      jump\t// out\n        /* \"#utility.yul\":758:1085   */\n    tag_23:\n        /* \"#utility.yul\":816:822   */\n      0x00\n        /* \"#utility.yul\":865:867   */\n      0x20\n        /* \"#utility.yul\":853:862   */\n      dup3\n        /* \"#utility.yul\":844:851   */\n      dup5\n        /* \"#utility.yul\":840:863   */\n      sub\n        /* \"#utility.yul\":836:868   */\n      slt\n        /* \"#utility.yul\":833:952   */\n      iszero\n      tag_296\n      jumpi\n        /* \"#utility.yul\":871:950   */\n      tag_297\n      tag_223\n      jump\t// in\n    tag_297:\n        /* \"#utility.yul\":833:952   */\n    tag_296:\n        /* \"#utility.yul\":991:992   */\n      0x00\n        /* \"#utility.yul\":1016:1068   */\n      tag_298\n        /* \"#utility.yul\":1060:1067   */\n      dup5\n        /* \"#utility.yul\":1051:1057   */\n      dup3\n        /* \"#utility.yul\":1040:1049   */\n      dup6\n        /* \"#utility.yul\":1036:1058   */\n      add\n        /* \"#utility.yul\":1016:1068   */\n      tag_227\n      jump\t// in\n    tag_298:\n        /* \"#utility.yul\":1006:1068   */\n      swap2\n      pop\n        /* \"#utility.yul\":962:1078   */\n      pop\n        /* \"#utility.yul\":758:1085   */\n      swap3\n      swap2\n      pop\n      pop\n      jump\t// out\n        /* \"#utility.yul\":1091:1181   */\n    tag_228:\n        /* \"#utility.yul\":1125:1132   */\n      0x00\n        /* \"#utility.yul\":1168:1173   */\n      dup2\n        /* \"#utility.yul\":1161:1174   */\n      iszero\n        /* \"#utility.yul\":1154:1175   */\n      iszero\n        /* \"#utility.yul\":1143:1175   */\n      swap1\n      pop\n        /* \"#utility.yul\":1091:1181   */\n      swap2\n      swap1\n      pop\n      jump\t// out\n        /* \"#utility.yul\":1187:1296   */\n    tag_229:\n        /* \"#utility.yul\":1268:1289   */\n      tag_301\n        /* \"#utility.yul\":1283:1288   */\n      dup2\n        /* \"#utility.yul\":1268:1289   */\n      tag_228\n      jump\t// in\n    tag_301:\n        /* \"#utility.yul\":1263:1266   */\n      dup3\n        /* \"#utility.yul\":1256:1290   */\n      mstore\n        /* \"#utility.yul\":1187:1296   */\n      pop\n      pop\n      jump\t// out\n        /* \"#utility.yul\":1302:1512   */\n    tag_26:\n        /* \"#utility.yul\":1389:1393   */\n      0x00\n        /* \"#utility.yul\":1427:1429   */\n      0x20\n        /* \"#utility.yul\":1416:1425   */\n      dup3\n        /* \"#utility.yul\":1412:1430   */\n      add\n        /* \"#utility.yul\":1404:1430   */\n      swap1\n      pop\n        /* \"#utility.yul\":1440:1505   */\n      tag_303\n        /* \"#utility.yul\":1502:1503   */\n      0x00\n        /* \"#utility.yul\":1491:1500   */\n      dup4\n        /* \"#utility.yul\":1487:1504   */\n      add\n        /* \"#utility.yul\":1478:1484   */\n      dup5\n        /* \"#utility.yul\":1440:1505   */\n      tag_229\n      jump\t// in\n    tag_303:\n        /* \"#utility.yul\":1302:1512   */\n      swap3\n      swap2\n      pop\n      pop\n      jump\t// out\n        /* \"#utility.yul\":1518:1617   */\n    tag_230:\n        /* \"#utility.yul\":1570:1576   */\n      0x00\n        /* \"#utility.yul\":1604:1609   */\n      dup2\n        /* \"#utility.yul\":1598:1610   */\n      mload\n        /* \"#utility.yul\":1588:1610   */\n      swap1\n      pop\n        /* \"#utility.yul\":1518:1617   */\n      swap2\n      swap1\n      pop\n      jump\t// out\n        /* \"#utility.yul\":1623:1792   */\n    tag_231:\n        /* \"#utility.yul\":1707:1718   */\n      0x00\n        /* \"#utility.yul\":1741:1747   */\n      dup3\n        /* \"#utility.yul\":1736:1739   */\n      dup3\n        /* \"#utility.yul\":1729:1748   */\n      mstore\n        /* \"#utility.yul\":1781:1785   */\n      0x20\n        /* \"#utility.yul\":1776:1779   */\n      dup3\n        /* \"#utility.yul\":1772:1786   */\n      add\n        /* \"#utility.yul\":1757:1786   */\n      swap1\n      pop\n        /* \"#utility.yul\":1623:1792   */\n      swap3\n      swap2\n      pop\n      pop\n      jump\t// out\n        /* \"#utility.yul\":1798:2044   */\n    tag_232:\n        /* \"#utility.yul\":1879:1880   */\n      0x00\n        /* \"#utility.yul\":1889:2002   */\n    tag_307:\n        /* \"#utility.yul\":1903:1909   */\n      dup4\n        /* \"#utility.yul\":1900:1901   */\n      dup2\n        /* \"#utility.yul\":1897:1910   */\n      lt\n        /* \"#utility.yul\":1889:2002   */\n      iszero\n      tag_309\n      jumpi\n        /* \"#utility.yul\":1988:1989   */\n      dup1\n        /* \"#utility.yul\":1983:1986   */\n      dup3\n        /* \"#utility.yul\":1979:1990   */\n      add\n        /* \"#utility.yul\":1973:1991   */\n      mload\n        /* \"#utility.yul\":1969:1970   */\n      dup2\n        /* \"#utility.yul\":1964:1967   */\n      dup5\n        /* \"#utility.yul\":1960:1971   */\n      add\n        /* \"#utility.yul\":1953:1992   */\n      mstore\n        /* \"#utility.yul\":1925:1927   */\n      0x20\n        /* \"#utility.yul\":1922:1923   */\n      dup2\n        /* \"#utility.yul\":1918:1928   */\n      add\n        /* \"#utility.yul\":1913:1928   */\n      swap1\n      pop\n        /* \"#utility.yul\":1889:2002   */\n      jump(tag_307)\n    tag_309:\n        /* \"#utility.yul\":2036:2037   */\n      0x00\n        /* \"#utility.yul\":2027:2033   */\n      dup5\n        /* \"#utility.yul\":2022:2025   */\n      dup5\n        /* \"#utility.yul\":2018:2034   */\n      add\n        /* \"#utility.yul\":2011:2038   */\n      mstore\n        /* \"#utility.yul\":1860:2044   */\n      pop\n        /* \"#utility.yul\":1798:2044   */\n      pop\n      pop\n      pop\n      jump\t// out\n        /* \"#utility.yul\":2050:2152   */\n    tag_233:\n        /* \"#utility.yul\":2091:2097   */\n      0x00\n        /* \"#utility.yul\":2142:2144   */\n      0x1f\n        /* \"#utility.yul\":2138:2145   */\n      not\n        /* \"#utility.yul\":2133:2135   */\n      0x1f\n        /* \"#utility.yul\":2126:2131   */\n      dup4\n        /* \"#utility.yul\":2122:2136   */\n      add\n        /* \"#utility.yul\":2118:2146   */\n      and\n        /* \"#utility.yul\":2108:2146   */\n      swap1\n      pop\n        /* \"#utility.yul\":2050:2152   */\n      swap2\n      swap1\n      pop\n      jump\t// out\n        /* \"#utility.yul\":2158:2535   */\n    tag_234:\n        /* \"#utility.yul\":2246:2249   */\n      0x00\n        /* \"#utility.yul\":2274:2313   */\n      tag_312\n        /* \"#utility.yul\":2307:2312   */\n      dup3\n        /* \"#utility.yul\":2274:2313   */\n      tag_230\n      jump\t// in\n    tag_312:\n        /* \"#utility.yul\":2329:2400   */\n      tag_313\n        /* \"#utility.yul\":2393:2399   */\n      dup2\n        /* \"#utility.yul\":2388:2391   */\n      dup6\n        /* \"#utility.yul\":2329:2400   */\n      tag_231\n      jump\t// in\n    tag_313:\n        /* \"#utility.yul\":2322:2400   */\n      swap4\n      pop\n        /* \"#utility.yul\":2409:2474   */\n      tag_314\n        /* \"#utility.yul\":2467:2473   */\n      dup2\n        /* \"#utility.yul\":2462:2465   */\n      dup6\n        /* \"#utility.yul\":2455:2459   */\n      0x20\n        /* \"#utility.yul\":2448:2453   */\n      dup7\n        /* \"#utility.yul\":2444:2460   */\n      add\n        /* \"#utility.yul\":2409:2474   */\n      tag_232\n      jump\t// in\n    tag_314:\n        /* \"#utility.yul\":2499:2528   */\n      tag_315\n        /* \"#utility.yul\":2521:2527   */\n      dup2\n        /* \"#utility.yul\":2499:2528   */\n      tag_233\n      jump\t// in\n    tag_315:\n        /* \"#utility.yul\":2494:2497   */\n      dup5\n        /* \"#utility.yul\":2490:2529   */\n      add\n        /* \"#utility.yul\":2483:2529   */\n      swap2\n      pop\n        /* \"#utility.yul\":2250:2535   */\n      pop\n        /* \"#utility.yul\":2158:2535   */\n      swap3\n      swap2\n      pop\n      pop\n      jump\t// out\n        /* \"#utility.yul\":2541:2854   */\n    tag_30:\n        /* \"#utility.yul\":2654:2658   */\n      0x00\n        /* \"#utility.yul\":2692:2694   */\n      0x20\n        /* \"#utility.yul\":2681:2690   */\n      dup3\n        /* \"#utility.yul\":2677:2695   */\n      add\n        /* \"#utility.yul\":2669:2695   */\n      swap1\n      pop\n        /* \"#utility.yul\":2741:2750   */\n      dup2\n        /* \"#utility.yul\":2735:2739   */\n      dup2\n        /* \"#utility.yul\":2731:2751   */\n      sub\n        /* \"#utility.yul\":2727:2728   */\n      0x00\n        /* \"#utility.yul\":2716:2725   */\n      dup4\n        /* \"#utility.yul\":2712:2729   */\n      add\n        /* \"#utility.yul\":2705:2752   */\n      mstore\n        /* \"#utility.yul\":2769:2847   */\n      tag_317\n        /* \"#utility.yul\":2842:2846   */\n      dup2\n        /* \"#utility.yul\":2833:2839   */\n      dup5\n        /* \"#utility.yul\":2769:2847   */\n      tag_234\n      jump\t// in\n    tag_317:\n        /* \"#utility.yul\":2761:2847   */\n      swap1\n      pop\n        /* \"#utility.yul\":2541:2854   */\n      swap3\n      swap2\n      pop\n      pop\n      jump\t// out\n        /* \"#utility.yul\":2860:2937   */\n    tag_235:\n        /* \"#utility.yul\":2897:2904   */\n      0x00\n        /* \"#utility.yul\":2926:2931   */\n      dup2\n        /* \"#utility.yul\":2915:2931   */\n      swap1\n      pop\n        /* \"#utility.yul\":2860:2937   */\n      swap2\n      swap1\n      pop\n      jump\t// out\n        /* \"#utility.yul\":2943:3065   */\n    tag_236:\n        /* \"#utility.yul\":3016:3040   */\n      tag_320\n        /* \"#utility.yul\":3034:3039   */\n      dup2\n        /* \"#utility.yul\":3016:3040   */\n      tag_235\n      jump\t// in\n    tag_320:\n        /* \"#utility.yul\":3009:3014   */\n      dup2\n        /* \"#utility.yul\":3006:3041   */\n      eq\n        /* \"#utility.yul\":2996:3059   */\n      tag_321\n      jumpi\n        /* \"#utility.yul\":3055:3056   */\n      0x00\n        /* \"#utility.yul\":3052:3053   */\n      dup1\n        /* \"#utility.yul\":3045:3057   */\n      revert\n        /* \"#utility.yul\":2996:3059   */\n    tag_321:\n        /* \"#utility.yul\":2943:3065   */\n      pop\n      jump\t// out\n        /* \"#utility.yul\":3071:3210   */\n    tag_237:\n        /* \"#utility.yul\":3117:3122   */\n      0x00\n        /* \"#utility.yul\":3155:3161   */\n      dup2\n        /* \"#utility.yul\":3142:3162   */\n      calldataload\n        /* \"#utility.yul\":3133:3162   */\n      swap1\n      pop\n        /* \"#utility.yul\":3171:3204   */\n      tag_323\n        /* \"#utility.yul\":3198:3203   */\n      dup2\n        /* \"#utility.yul\":3171:3204   */\n      tag_236\n      jump\t// in\n    tag_323:\n        /* \"#utility.yul\":3071:3210   */\n      swap3\n      swap2\n      pop\n      pop\n      jump\t// out\n        /* \"#utility.yul\":3216:3545   */\n    tag_33:\n        /* \"#utility.yul\":3275:3281   */\n      0x00\n        /* \"#utility.yul\":3324:3326   */\n      0x20\n        /* \"#utility.yul\":3312:3321   */\n      dup3\n        /* \"#utility.yul\":3303:3310   */\n      dup5\n        /* \"#utility.yul\":3299:3322   */\n      sub\n        /* \"#utility.yul\":3295:3327   */\n      slt\n        /* \"#utility.yul\":3292:3411   */\n      iszero\n      tag_325\n      jumpi\n        /* \"#utility.yul\":3330:3409   */\n      tag_326\n      tag_223\n      jump\t// in\n    tag_326:\n        /* \"#utility.yul\":3292:3411   */\n    tag_325:\n        /* \"#utility.yul\":3450:3451   */\n      0x00\n        /* \"#utility.yul\":3475:3528   */\n      tag_327\n        /* \"#utility.yul\":3520:3527   */\n      dup5\n        /* \"#utility.yul\":3511:3517   */\n      dup3\n        /* \"#utility.yul\":3500:3509   */\n      dup6\n        /* \"#utility.yul\":3496:3518   */\n      add\n        /* \"#utility.yul\":3475:3528   */\n      tag_237\n      jump\t// in\n    tag_327:\n        /* \"#utility.yul\":3465:3528   */\n      swap2\n      pop\n        /* \"#utility.yul\":3421:3538   */\n      pop\n        /* \"#utility.yul\":3216:3545   */\n      swap3\n      swap2\n      pop\n      pop\n      jump\t// out\n        /* \"#utility.yul\":3551:3677   */\n    tag_238:\n        /* \"#utility.yul\":3588:3595   */\n      0x00\n        /* \"#utility.yul\":3628:3670   */\n      0xffffffffffffffffffffffffffffffffffffffff\n        /* \"#utility.yul\":3621:3626   */\n      dup3\n        /* \"#utility.yul\":3617:3671   */\n      and\n        /* \"#utility.yul\":3606:3671   */\n      swap1\n      pop\n        /* \"#utility.yul\":3551:3677   */\n      swap2\n      swap1\n      pop\n      jump\t// out\n        /* \"#utility.yul\":3683:3779   */\n    tag_239:\n        /* \"#utility.yul\":3720:3727   */\n      0x00\n        /* \"#utility.yul\":3749:3773   */\n      tag_330\n        /* \"#utility.yul\":3767:3772   */\n      dup3\n        /* \"#utility.yul\":3749:3773   */\n      tag_238\n      jump\t// in\n    tag_330:\n        /* \"#utility.yul\":3738:3773   */\n      swap1\n      pop\n        /* \"#utility.yul\":3683:3779   */\n      swap2\n      swap1\n      pop\n      jump\t// out\n        /* \"#utility.yul\":3785:3903   */\n    tag_240:\n        /* \"#utility.yul\":3872:3896   */\n      tag_332\n        /* \"#utility.yul\":3890:3895   */\n      dup2\n        /* \"#utility.yul\":3872:3896   */\n      tag_239\n      jump\t// in\n    tag_332:\n        /* \"#utility.yul\":3867:3870   */\n      dup3\n        /* \"#utility.yul\":3860:3897   */\n      mstore\n        /* \"#utility.yul\":3785:3903   */\n      pop\n      pop\n      jump\t// out\n        /* \"#utility.yul\":3909:4131   */\n    tag_36:\n        /* \"#utility.yul\":4002:4006   */\n      0x00\n        /* \"#utility.yul\":4040:4042   */\n      0x20\n        /* \"#utility.yul\":4029:4038   */\n      dup3\n        /* \"#utility.yul\":4025:4043   */\n      add\n        /* \"#utility.yul\":4017:4043   */\n      swap1\n      pop\n        /* \"#utility.yul\":4053:4124   */\n      tag_334\n        /* \"#utility.yul\":4121:4122   */\n      0x00\n        /* \"#utility.yul\":4110:4119   */\n      dup4\n        /* \"#utility.yul\":4106:4123   */\n      add\n        /* \"#utility.yul\":4097:4103   */\n      dup5\n        /* \"#utility.yul\":4053:4124   */\n      tag_240\n      jump\t// in\n    tag_334:\n        /* \"#utility.yul\":3909:4131   */\n      swap3\n      swap2\n      pop\n      pop\n      jump\t// out\n        /* \"#utility.yul\":4137:4259   */\n    tag_241:\n        /* \"#utility.yul\":4210:4234   */\n      tag_336\n        /* \"#utility.yul\":4228:4233   */\n      dup2\n        /* \"#utility.yul\":4210:4234   */\n      tag_239\n      jump\t// in\n    tag_336:\n        /* \"#utility.yul\":4203:4208   */\n      dup2\n        /* \"#utility.yul\":4200:4235   */\n      eq\n        /* \"#utility.yul\":4190:4253   */\n      tag_337\n      jumpi\n        /* \"#utility.yul\":4249:4250   */\n      0x00\n        /* \"#utility.yul\":4246:4247   */\n      dup1\n        /* \"#utility.yul\":4239:4251   */\n      revert\n        /* \"#utility.yul\":4190:4253   */\n    tag_337:\n        /* \"#utility.yul\":4137:4259   */\n      pop\n      jump\t// out\n        /* \"#utility.yul\":4265:4404   */\n    tag_242:\n        /* \"#utility.yul\":4311:4316   */\n      0x00\n        /* \"#utility.yul\":4349:4355   */\n      dup2\n        /* \"#utility.yul\":4336:4356   */\n      calldataload\n        /* \"#utility.yul\":4327:4356   */\n      swap1\n      pop\n        /* \"#utility.yul\":4365:4398   */\n      tag_339\n        /* \"#utility.yul\":4392:4397   */\n      dup2\n        /* \"#utility.yul\":4365:4398   */\n      tag_241\n      jump\t// in\n    tag_339:\n        /* \"#utility.yul\":4265:4404   */\n      swap3\n      swap2\n      pop\n      pop\n      jump\t// out\n        /* \"#utility.yul\":4410:4884   */\n    tag_39:\n        /* \"#utility.yul\":4478:4484   */\n      0x00\n        /* \"#utility.yul\":4486:4492   */\n      dup1\n        /* \"#utility.yul\":4535:4537   */\n      0x40\n        /* \"#utility.yul\":4523:4532   */\n      dup4\n        /* \"#utility.yul\":4514:4521   */\n      dup6\n        /* \"#utility.yul\":4510:4533   */\n      sub\n        /* \"#utility.yul\":4506:4538   */\n      slt\n        /* \"#utility.yul\":4503:4622   */\n      iszero\n      tag_341\n      jumpi\n        /* \"#utility.yul\":4541:4620   */\n      tag_342\n      tag_223\n      jump\t// in\n    tag_342:\n        /* \"#utility.yul\":4503:4622   */\n    tag_341:\n        /* \"#utility.yul\":4661:4662   */\n      0x00\n        /* \"#utility.yul\":4686:4739   */\n      tag_343\n        /* \"#utility.yul\":4731:4738   */\n      dup6\n        /* \"#utility.yul\":4722:4728   */\n      dup3\n        /* \"#utility.yul\":4711:4720   */\n      dup7\n        /* \"#utility.yul\":4707:4729   */\n      add\n        /* \"#utility.yul\":4686:4739   */\n      tag_242\n      jump\t// in\n    tag_343:\n        /* \"#utility.yul\":4676:4739   */\n      swap3\n      pop\n        /* \"#utility.yul\":4632:4749   */\n      pop\n        /* \"#utility.yul\":4788:4790   */\n      0x20\n        /* \"#utility.yul\":4814:4867   */\n      tag_344\n        /* \"#utility.yul\":4859:4866   */\n      dup6\n        /* \"#utility.yul\":4850:4856   */\n      dup3\n        /* \"#utility.yul\":4839:4848   */\n      dup7\n        /* \"#utility.yul\":4835:4857   */\n      add\n        /* \"#utility.yul\":4814:4867   */\n      tag_237\n      jump\t// in\n    tag_344:\n        /* \"#utility.yul\":4804:4867   */\n      swap2\n      pop\n        /* \"#utility.yul\":4759:4877   */\n      pop\n        /* \"#utility.yul\":4410:4884   */\n      swap3\n      pop\n      swap3\n      swap1\n      pop\n      jump\t// out\n        /* \"#utility.yul\":4890:5509   */\n    tag_43:\n        /* \"#utility.yul\":4967:4973   */\n      0x00\n        /* \"#utility.yul\":4975:4981   */\n      dup1\n        /* \"#utility.yul\":4983:4989   */\n      0x00\n        /* \"#utility.yul\":5032:5034   */\n      0x60\n        /* \"#utility.yul\":5020:5029   */\n      dup5\n        /* \"#utility.yul\":5011:5018   */\n      dup7\n        /* \"#utility.yul\":5007:5030   */\n      sub\n        /* \"#utility.yul\":5003:5035   */\n      slt\n        /* \"#utility.yul\":5000:5119   */\n      iszero\n      tag_346\n      jumpi\n        /* \"#utility.yul\":5038:5117   */\n      tag_347\n      tag_223\n      jump\t// in\n    tag_347:\n        /* \"#utility.yul\":5000:5119   */\n    tag_346:\n        /* \"#utility.yul\":5158:5159   */\n      0x00\n        /* \"#utility.yul\":5183:5236   */\n      tag_348\n        /* \"#utility.yul\":5228:5235   */\n      dup7\n        /* \"#utility.yul\":5219:5225   */\n      dup3\n        /* \"#utility.yul\":5208:5217   */\n      dup8\n        /* \"#utility.yul\":5204:5226   */\n      add\n        /* \"#utility.yul\":5183:5236   */\n      tag_242\n      jump\t// in\n    tag_348:\n        /* \"#utility.yul\":5173:5236   */\n      swap4\n      pop\n        /* \"#utility.yul\":5129:5246   */\n      pop\n        /* \"#utility.yul\":5285:5287   */\n      0x20\n        /* \"#utility.yul\":5311:5364   */\n      tag_349\n        /* \"#utility.yul\":5356:5363   */\n      dup7\n        /* \"#utility.yul\":5347:5353   */\n      dup3\n        /* \"#utility.yul\":5336:5345   */\n      dup8\n        /* \"#utility.yul\":5332:5354   */\n      add\n        /* \"#utility.yul\":5311:5364   */\n      tag_242\n      jump\t// in\n    tag_349:\n        /* \"#utility.yul\":5301:5364   */\n      swap3\n      pop\n        /* \"#utility.yul\":5256:5374   */\n      pop\n        /* \"#utility.yul\":5413:5415   */\n      0x40\n        /* \"#utility.yul\":5439:5492   */\n      tag_350\n        /* \"#utility.yul\":5484:5491   */\n      dup7\n        /* \"#utility.yul\":5475:5481   */\n      dup3\n        /* \"#utility.yul\":5464:5473   */\n      dup8\n        /* \"#utility.yul\":5460:5482   */\n      add\n        /* \"#utility.yul\":5439:5492   */\n      tag_237\n      jump\t// in\n    tag_350:\n        /* \"#utility.yul\":5429:5492   */\n      swap2\n      pop\n        /* \"#utility.yul\":5384:5502   */\n      pop\n        /* \"#utility.yul\":4890:5509   */\n      swap3\n      pop\n      swap3\n      pop\n      swap3\n      jump\t// out\n        /* \"#utility.yul\":5515:5844   */\n    tag_57:\n        /* \"#utility.yul\":5574:5580   */\n      0x00\n        /* \"#utility.yul\":5623:5625   */\n      0x20\n        /* \"#utility.yul\":5611:5620   */\n      dup3\n        /* \"#utility.yul\":5602:5609   */\n      dup5\n        /* \"#utility.yul\":5598:5621   */\n      sub\n        /* \"#utility.yul\":5594:5626   */\n      slt\n        /* \"#utility.yul\":5591:5710   */\n      iszero\n      tag_352\n      jumpi\n        /* \"#utility.yul\":5629:5708   */\n      tag_353\n      tag_223\n      jump\t// in\n    tag_353:\n        /* \"#utility.yul\":5591:5710   */\n    tag_352:\n        /* \"#utility.yul\":5749:5750   */\n      0x00\n        /* \"#utility.yul\":5774:5827   */\n      tag_354\n        /* \"#utility.yul\":5819:5826   */\n      dup5\n        /* \"#utility.yul\":5810:5816   */\n      dup3\n        /* \"#utility.yul\":5799:5808   */\n      dup6\n        /* \"#utility.yul\":5795:5817   */\n      add\n        /* \"#utility.yul\":5774:5827   */\n      tag_242\n      jump\t// in\n    tag_354:\n        /* \"#utility.yul\":5764:5827   */\n      swap2\n      pop\n        /* \"#utility.yul\":5720:5837   */\n      pop\n        /* \"#utility.yul\":5515:5844   */\n      swap3\n      swap2\n      pop\n      pop\n      jump\t// out\n        /* \"#utility.yul\":5850:5968   */\n    tag_243:\n        /* \"#utility.yul\":5937:5961   */\n      tag_356\n        /* \"#utility.yul\":5955:5960   */\n      dup2\n        /* \"#utility.yul\":5937:5961   */\n      tag_235\n      jump\t// in\n    tag_356:\n        /* \"#utility.yul\":5932:5935   */\n      dup3\n        /* \"#utility.yul\":5925:5962   */\n      mstore\n        /* \"#utility.yul\":5850:5968   */\n      pop\n      pop\n      jump\t// out\n        /* \"#utility.yul\":5974:6196   */\n    tag_60:\n        /* \"#utility.yul\":6067:6071   */\n      0x00\n        /* \"#utility.yul\":6105:6107   */\n      0x20\n        /* \"#utility.yul\":6094:6103   */\n      dup3\n        /* \"#utility.yul\":6090:6108   */\n      add\n        /* \"#utility.yul\":6082:6108   */\n      swap1\n      pop\n        /* \"#utility.yul\":6118:6189   */\n      tag_358\n        /* \"#utility.yul\":6186:6187   */\n      0x00\n        /* \"#utility.yul\":6175:6184   */\n      dup4\n        /* \"#utility.yul\":6171:6188   */\n      add\n        /* \"#utility.yul\":6162:6168   */\n      dup5\n        /* \"#utility.yul\":6118:6189   */\n      tag_243\n      jump\t// in\n    tag_358:\n        /* \"#utility.yul\":5974:6196   */\n      swap3\n      swap2\n      pop\n      pop\n      jump\t// out\n        /* \"#utility.yul\":6202:6318   */\n    tag_244:\n        /* \"#utility.yul\":6272:6293   */\n      tag_360\n        /* \"#utility.yul\":6287:6292   */\n      dup2\n        /* \"#utility.yul\":6272:6293   */\n      tag_228\n      jump\t// in\n    tag_360:\n        /* \"#utility.yul\":6265:6270   */\n      dup2\n        /* \"#utility.yul\":6262:6294   */\n      eq\n        /* \"#utility.yul\":6252:6312   */\n      tag_361\n      jumpi\n        /* \"#utility.yul\":6308:6309   */\n      0x00\n        /* \"#utility.yul\":6305:6306   */\n      dup1\n        /* \"#utility.yul\":6298:6310   */\n      revert\n        /* \"#utility.yul\":6252:6312   */\n    tag_361:\n        /* \"#utility.yul\":6202:6318   */\n      pop\n      jump\t// out\n        /* \"#utility.yul\":6324:6457   */\n    tag_245:\n        /* \"#utility.yul\":6367:6372   */\n      0x00\n        /* \"#utility.yul\":6405:6411   */\n      dup2\n        /* \"#utility.yul\":6392:6412   */\n      calldataload\n        /* \"#utility.yul\":6383:6412   */\n      swap1\n      pop\n        /* \"#utility.yul\":6421:6451   */\n      tag_363\n        /* \"#utility.yul\":6445:6450   */\n      dup2\n        /* \"#utility.yul\":6421:6451   */\n      tag_244\n      jump\t// in\n    tag_363:\n        /* \"#utility.yul\":6324:6457   */\n      swap3\n      swap2\n      pop\n      pop\n      jump\t// out\n        /* \"#utility.yul\":6463:6931   */\n    tag_66:\n        /* \"#utility.yul\":6528:6534   */\n      0x00\n        /* \"#utility.yul\":6536:6542   */\n      dup1\n        /* \"#utility.yul\":6585:6587   */\n      0x40\n        /* \"#utility.yul\":6573:6582   */\n      dup4\n        /* \"#utility.yul\":6564:6571   */\n      dup6\n        /* \"#utility.yul\":6560:6583   */\n      sub\n        /* \"#utility.yul\":6556:6588   */\n      slt\n        /* \"#utility.yul\":6553:6672   */\n      iszero\n      tag_365\n      jumpi\n        /* \"#utility.yul\":6591:6670   */\n      tag_366\n      tag_223\n      jump\t// in\n    tag_366:\n        /* \"#utility.yul\":6553:6672   */\n    tag_365:\n        /* \"#utility.yul\":6711:6712   */\n      0x00\n        /* \"#utility.yul\":6736:6789   */\n      tag_367\n        /* \"#utility.yul\":6781:6788   */\n      dup6\n        /* \"#utility.yul\":6772:6778   */\n      dup3\n        /* \"#utility.yul\":6761:6770   */\n      dup7\n        /* \"#utility.yul\":6757:6779   */\n      add\n        /* \"#utility.yul\":6736:6789   */\n      tag_242\n      jump\t// in\n    tag_367:\n        /* \"#utility.yul\":6726:6789   */\n      swap3\n      pop\n        /* \"#utility.yul\":6682:6799   */\n      pop\n        /* \"#utility.yul\":6838:6840   */\n      0x20\n        /* \"#utility.yul\":6864:6914   */\n      tag_368\n        /* \"#utility.yul\":6906:6913   */\n      dup6\n        /* \"#utility.yul\":6897:6903   */\n      dup3\n        /* \"#utility.yul\":6886:6895   */\n      dup7\n        /* \"#utility.yul\":6882:6904   */\n      add\n        /* \"#utility.yul\":6864:6914   */\n      tag_245\n      jump\t// in\n    tag_368:\n        /* \"#utility.yul\":6854:6914   */\n      swap2\n      pop\n        /* \"#utility.yul\":6809:6924   */\n      pop\n        /* \"#utility.yul\":6463:6931   */\n      swap3\n      pop\n      swap3\n      swap1\n      pop\n      jump\t// out\n        /* \"#utility.yul\":6937:7054   */\n    tag_246:\n        /* \"#utility.yul\":7046:7047   */\n      0x00\n        /* \"#utility.yul\":7043:7044   */\n      dup1\n        /* \"#utility.yul\":7036:7048   */\n      revert\n        /* \"#utility.yul\":7060:7177   */\n    tag_247:\n        /* \"#utility.yul\":7169:7170   */\n      0x00\n        /* \"#utility.yul\":7166:7167   */\n      dup1\n        /* \"#utility.yul\":7159:7171   */\n      revert\n        /* \"#utility.yul\":7183:7363   */\n    tag_198:\n        /* \"#utility.yul\":7231:7308   */\n      0x4e487b7100000000000000000000000000000000000000000000000000000000\n        /* \"#utility.yul\":7228:7229   */\n      0x00\n        /* \"#utility.yul\":7221:7309   */\n      mstore\n        /* \"#utility.yul\":7328:7332   */\n      0x41\n        /* \"#utility.yul\":7325:7326   */\n      0x04\n        /* \"#utility.yul\":7318:7333   */\n      mstore\n        /* \"#utility.yul\":7352:7356   */\n      0x24\n        /* \"#utility.yul\":7349:7350   */\n      0x00\n        /* \"#utility.yul\":7342:7357   */\n      revert\n        /* \"#utility.yul\":7369:7650   */\n    tag_248:\n        /* \"#utility.yul\":7452:7479   */\n      tag_373\n        /* \"#utility.yul\":7474:7478   */\n      dup3\n        /* \"#utility.yul\":7452:7479   */\n      tag_233\n      jump\t// in\n    tag_373:\n        /* \"#utility.yul\":7444:7450   */\n      dup2\n        /* \"#utility.yul\":7440:7480   */\n      add\n        /* \"#utility.yul\":7582:7588   */\n      dup2\n        /* \"#utility.yul\":7570:7580   */\n      dup2\n        /* \"#utility.yul\":7567:7589   */\n      lt\n        /* \"#utility.yul\":7546:7564   */\n      0xffffffffffffffff\n        /* \"#utility.yul\":7534:7544   */\n      dup3\n        /* \"#utility.yul\":7531:7565   */\n      gt\n        /* \"#utility.yul\":7528:7590   */\n      or\n        /* \"#utility.yul\":7525:7613   */\n      iszero\n      tag_374\n      jumpi\n        /* \"#utility.yul\":7593:7611   */\n      tag_375\n      tag_198\n      jump\t// in\n    tag_375:\n        /* \"#utility.yul\":7525:7613   */\n    tag_374:\n        /* \"#utility.yul\":7633:7643   */\n      dup1\n        /* \"#utility.yul\":7629:7631   */\n      0x40\n        /* \"#utility.yul\":7622:7644   */\n      mstore\n        /* \"#utility.yul\":7412:7650   */\n      pop\n        /* \"#utility.yul\":7369:7650   */\n      pop\n      pop\n      jump\t// out\n        /* \"#utility.yul\":7656:7785   */\n    tag_249:\n        /* \"#utility.yul\":7690:7696   */\n      0x00\n        /* \"#utility.yul\":7717:7737   */\n      tag_377\n      tag_222\n      jump\t// in\n    tag_377:\n        /* \"#utility.yul\":7707:7737   */\n      swap1\n      pop\n        /* \"#utility.yul\":7746:7779   */\n      tag_378\n        /* \"#utility.yul\":7774:7778   */\n      dup3\n        /* \"#utility.yul\":7766:7772   */\n      dup3\n        /* \"#utility.yul\":7746:7779   */\n      tag_248\n      jump\t// in\n    tag_378:\n        /* \"#utility.yul\":7656:7785   */\n      swap2\n      swap1\n      pop\n      jump\t// out\n        /* \"#utility.yul\":7791:8098   */\n    tag_250:\n        /* \"#utility.yul\":7852:7856   */\n      0x00\n        /* \"#utility.yul\":7942:7960   */\n      0xffffffffffffffff\n        /* \"#utility.yul\":7934:7940   */\n      dup3\n        /* \"#utility.yul\":7931:7961   */\n      gt\n        /* \"#utility.yul\":7928:7984   */\n      iszero\n      tag_380\n      jumpi\n        /* \"#utility.yul\":7964:7982   */\n      tag_381\n      tag_198\n      jump\t// in\n    tag_381:\n        /* \"#utility.yul\":7928:7984   */\n    tag_380:\n        /* \"#utility.yul\":8002:8031   */\n      tag_382\n        /* \"#utility.yul\":8024:8030   */\n      dup3\n        /* \"#utility.yul\":8002:8031   */\n      tag_233\n      jump\t// in\n    tag_382:\n        /* \"#utility.yul\":7994:8031   */\n      swap1\n      pop\n        /* \"#utility.yul\":8086:8090   */\n      0x20\n        /* \"#utility.yul\":8080:8084   */\n      dup2\n        /* \"#utility.yul\":8076:8091   */\n      add\n        /* \"#utility.yul\":8068:8091   */\n      swap1\n      pop\n        /* \"#utility.yul\":7791:8098   */\n      swap2\n      swap1\n      pop\n      jump\t// out\n        /* \"#utility.yul\":8104:8250   */\n    tag_251:\n        /* \"#utility.yul\":8201:8207   */\n      dup3\n        /* \"#utility.yul\":8196:8199   */\n      dup2\n        /* \"#utility.yul\":8191:8194   */\n      dup4\n        /* \"#utility.yul\":8178:8208   */\n      calldatacopy\n        /* \"#utility.yul\":8242:8243   */\n      0x00\n        /* \"#utility.yul\":8233:8239   */\n      dup4\n        /* \"#utility.yul\":8228:8231   */\n      dup4\n        /* \"#utility.yul\":8224:8240   */\n      add\n        /* \"#utility.yul\":8217:8244   */\n      mstore\n        /* \"#utility.yul\":8104:8250   */\n      pop\n      pop\n      pop\n      jump\t// out\n        /* \"#utility.yul\":8256:8679   */\n    tag_252:\n        /* \"#utility.yul\":8333:8338   */\n      0x00\n        /* \"#utility.yul\":8358:8423   */\n      tag_385\n        /* \"#utility.yul\":8374:8422   */\n      tag_386\n        /* \"#utility.yul\":8415:8421   */\n      dup5\n        /* \"#utility.yul\":8374:8422   */\n      tag_250\n      jump\t// in\n    tag_386:\n        /* \"#utility.yul\":8358:8423   */\n      tag_249\n      jump\t// in\n    tag_385:\n        /* \"#utility.yul\":8349:8423   */\n      swap1\n      pop\n        /* \"#utility.yul\":8446:8452   */\n      dup3\n        /* \"#utility.yul\":8439:8444   */\n      dup2\n        /* \"#utility.yul\":8432:8453   */\n      mstore\n        /* \"#utility.yul\":8484:8488   */\n      0x20\n        /* \"#utility.yul\":8477:8482   */\n      dup2\n        /* \"#utility.yul\":8473:8489   */\n      add\n        /* \"#utility.yul\":8522:8525   */\n      dup5\n        /* \"#utility.yul\":8513:8519   */\n      dup5\n        /* \"#utility.yul\":8508:8511   */\n      dup5\n        /* \"#utility.yul\":8504:8520   */\n      add\n        /* \"#utility.yul\":8501:8526   */\n      gt\n        /* \"#utility.yul\":8498:8610   */\n      iszero\n      tag_387\n      jumpi\n        /* \"#utility.yul\":8529:8608   */\n      tag_388\n      tag_247\n      jump\t// in\n    tag_388:\n        /* \"#utility.yul\":8498:8610   */\n    tag_387:\n        /* \"#utility.yul\":8619:8673   */\n      tag_389\n        /* \"#utility.yul\":8666:8672   */\n      dup5\n        /* \"#utility.yul\":8661:8664   */\n      dup3\n        /* \"#utility.yul\":8656:8659   */\n      dup6\n        /* \"#utility.yul\":8619:8673   */\n      tag_251\n      jump\t// in\n    tag_389:\n        /* \"#utility.yul\":8339:8679   */\n      pop\n        /* \"#utility.yul\":8256:8679   */\n      swap4\n      swap3\n      pop\n      pop\n      pop\n      jump\t// out\n        /* \"#utility.yul\":8698:9036   */\n    tag_253:\n        /* \"#utility.yul\":8753:8758   */\n      0x00\n        /* \"#utility.yul\":8802:8805   */\n      dup3\n        /* \"#utility.yul\":8795:8799   */\n      0x1f\n        /* \"#utility.yul\":8787:8793   */\n      dup4\n        /* \"#utility.yul\":8783:8800   */\n      add\n        /* \"#utility.yul\":8779:8806   */\n      slt\n        /* \"#utility.yul\":8769:8891   */\n      tag_391\n      jumpi\n        /* \"#utility.yul\":8810:8889   */\n      tag_392\n      tag_246\n      jump\t// in\n    tag_392:\n        /* \"#utility.yul\":8769:8891   */\n    tag_391:\n        /* \"#utility.yul\":8927:8933   */\n      dup2\n        /* \"#utility.yul\":8914:8934   */\n      calldataload\n        /* \"#utility.yul\":8952:9030   */\n      tag_393\n        /* \"#utility.yul\":9026:9029   */\n      dup5\n        /* \"#utility.yul\":9018:9024   */\n      dup3\n        /* \"#utility.yul\":9011:9015   */\n      0x20\n        /* \"#utility.yul\":9003:9009   */\n      dup7\n        /* \"#utility.yul\":8999:9016   */\n      add\n        /* \"#utility.yul\":8952:9030   */\n      tag_252\n      jump\t// in\n    tag_393:\n        /* \"#utility.yul\":8943:9030   */\n      swap2\n      pop\n        /* \"#utility.yul\":8759:9036   */\n      pop\n        /* \"#utility.yul\":8698:9036   */\n      swap3\n      swap2\n      pop\n      pop\n      jump\t// out\n        /* \"#utility.yul\":9042:9985   */\n    tag_70:\n        /* \"#utility.yul\":9137:9143   */\n      0x00\n        /* \"#utility.yul\":9145:9151   */\n      dup1\n        /* \"#utility.yul\":9153:9159   */\n      0x00\n        /* \"#utility.yul\":9161:9167   */\n      dup1\n        /* \"#utility.yul\":9210:9213   */\n      0x80\n        /* \"#utility.yul\":9198:9207   */\n      dup6\n        /* \"#utility.yul\":9189:9196   */\n      dup8\n        /* \"#utility.yul\":9185:9208   */\n      sub\n        /* \"#utility.yul\":9181:9214   */\n      slt\n        /* \"#utility.yul\":9178:9298   */\n      iszero\n      tag_395\n      jumpi\n        /* \"#utility.yul\":9217:9296   */\n      tag_396\n      tag_223\n      jump\t// in\n    tag_396:\n        /* \"#utility.yul\":9178:9298   */\n    tag_395:\n        /* \"#utility.yul\":9337:9338   */\n      0x00\n        /* \"#utility.yul\":9362:9415   */\n      tag_397\n        /* \"#utility.yul\":9407:9414   */\n      dup8\n        /* \"#utility.yul\":9398:9404   */\n      dup3\n        /* \"#utility.yul\":9387:9396   */\n      dup9\n        /* \"#utility.yul\":9383:9405   */\n      add\n        /* \"#utility.yul\":9362:9415   */\n      tag_242\n      jump\t// in\n    tag_397:\n        /* \"#utility.yul\":9352:9415   */\n      swap5\n      pop\n        /* \"#utility.yul\":9308:9425   */\n      pop\n        /* \"#utility.yul\":9464:9466   */\n      0x20\n        /* \"#utility.yul\":9490:9543   */\n      tag_398\n        /* \"#utility.yul\":9535:9542   */\n      dup8\n        /* \"#utility.yul\":9526:9532   */\n      dup3\n        /* \"#utility.yul\":9515:9524   */\n      dup9\n        /* \"#utility.yul\":9511:9533   */\n      add\n        /* \"#utility.yul\":9490:9543   */\n      tag_242\n      jump\t// in\n    tag_398:\n        /* \"#utility.yul\":9480:9543   */\n      swap4\n      pop\n        /* \"#utility.yul\":9435:9553   */\n      pop\n        /* \"#utility.yul\":9592:9594   */\n      0x40\n        /* \"#utility.yul\":9618:9671   */\n      tag_399\n        /* \"#utility.yul\":9663:9670   */\n      dup8\n        /* \"#utility.yul\":9654:9660   */\n      dup3\n        /* \"#utility.yul\":9643:9652   */\n      dup9\n        /* \"#utility.yul\":9639:9661   */\n      add\n        /* \"#utility.yul\":9618:9671   */\n      tag_237\n      jump\t// in\n    tag_399:\n        /* \"#utility.yul\":9608:9671   */\n      swap3\n      pop\n        /* \"#utility.yul\":9563:9681   */\n      pop\n        /* \"#utility.yul\":9748:9750   */\n      0x60\n        /* \"#utility.yul\":9737:9746   */\n      dup6\n        /* \"#utility.yul\":9733:9751   */\n      add\n        /* \"#utility.yul\":9720:9752   */\n      calldataload\n        /* \"#utility.yul\":9779:9797   */\n      0xffffffffffffffff\n        /* \"#utility.yul\":9771:9777   */\n      dup2\n        /* \"#utility.yul\":9768:9798   */\n      gt\n        /* \"#utility.yul\":9765:9882   */\n      iszero\n      tag_400\n      jumpi\n        /* \"#utility.yul\":9801:9880   */\n      tag_401\n      tag_224\n      jump\t// in\n    tag_401:\n        /* \"#utility.yul\":9765:9882   */\n    tag_400:\n        /* \"#utility.yul\":9906:9968   */\n      tag_402\n        /* \"#utility.yul\":9960:9967   */\n      dup8\n        /* \"#utility.yul\":9951:9957   */\n      dup3\n        /* \"#utility.yul\":9940:9949   */\n      dup9\n        /* \"#utility.yul\":9936:9958   */\n      add\n        /* \"#utility.yul\":9906:9968   */\n      tag_253\n      jump\t// in\n    tag_402:\n        /* \"#utility.yul\":9896:9968   */\n      swap2\n      pop\n        /* \"#utility.yul\":9691:9978   */\n      pop\n        /* \"#utility.yul\":9042:9985   */\n      swap3\n      swap6\n      swap2\n      swap5\n      pop\n      swap3\n      pop\n      jump\t// out\n        /* \"#utility.yul\":9991:10465   */\n    tag_81:\n        /* \"#utility.yul\":10059:10065   */\n      0x00\n        /* \"#utility.yul\":10067:10073   */\n      dup1\n        /* \"#utility.yul\":10116:10118   */\n      0x40\n        /* \"#utility.yul\":10104:10113   */\n      dup4\n        /* \"#utility.yul\":10095:10102   */\n      dup6\n        /* \"#utility.yul\":10091:10114   */\n      sub\n        /* \"#utility.yul\":10087:10119   */\n      slt\n        /* \"#utility.yul\":10084:10203   */\n      iszero\n      tag_404\n      jumpi\n        /* \"#utility.yul\":10122:10201   */\n      tag_405\n      tag_223\n      jump\t// in\n    tag_405:\n        /* \"#utility.yul\":10084:10203   */\n    tag_404:\n        /* \"#utility.yul\":10242:10243   */\n      0x00\n        /* \"#utility.yul\":10267:10320   */\n      tag_406\n        /* \"#utility.yul\":10312:10319   */\n      dup6\n        /* \"#utility.yul\":10303:10309   */\n      dup3\n        /* \"#utility.yul\":10292:10301   */\n      dup7\n        /* \"#utility.yul\":10288:10310   */\n      add\n        /* \"#utility.yul\":10267:10320   */\n      tag_242\n      jump\t// in\n    tag_406:\n        /* \"#utility.yul\":10257:10320   */\n      swap3\n      pop\n        /* \"#utility.yul\":10213:10330   */\n      pop\n        /* \"#utility.yul\":10369:10371   */\n      0x20\n        /* \"#utility.yul\":10395:10448   */\n      tag_407\n        /* \"#utility.yul\":10440:10447   */\n      dup6\n        /* \"#utility.yul\":10431:10437   */\n      dup3\n        /* \"#utility.yul\":10420:10429   */\n      dup7\n        /* \"#utility.yul\":10416:10438   */\n      add\n        /* \"#utility.yul\":10395:10448   */\n      tag_242\n      jump\t// in\n    tag_407:\n        /* \"#utility.yul\":10385:10448   */\n      swap2\n      pop\n        /* \"#utility.yul\":10340:10458   */\n      pop\n        /* \"#utility.yul\":9991:10465   */\n      swap3\n      pop\n      swap3\n      swap1\n      pop\n      jump\t// out\n        /* \"#utility.yul\":10471:10651   */\n    tag_254:\n        /* \"#utility.yul\":10519:10596   */\n      0x4e487b7100000000000000000000000000000000000000000000000000000000\n        /* \"#utility.yul\":10516:10517   */\n      0x00\n        /* \"#utility.yul\":10509:10597   */\n      mstore\n        /* \"#utility.yul\":10616:10620   */\n      0x22\n        /* \"#utility.yul\":10613:10614   */\n      0x04\n        /* \"#utility.yul\":10606:10621   */\n      mstore\n        /* \"#utility.yul\":10640:10644   */\n      0x24\n        /* \"#utility.yul\":10637:10638   */\n      0x00\n        /* \"#utility.yul\":10630:10645   */\n      revert\n        /* \"#utility.yul\":10657:10977   */\n    tag_88:\n        /* \"#utility.yul\":10701:10707   */\n      0x00\n        /* \"#utility.yul\":10738:10739   */\n      0x02\n        /* \"#utility.yul\":10732:10736   */\n      dup3\n        /* \"#utility.yul\":10728:10740   */\n      div\n        /* \"#utility.yul\":10718:10740   */\n      swap1\n      pop\n        /* \"#utility.yul\":10785:10786   */\n      0x01\n        /* \"#utility.yul\":10779:10783   */\n      dup3\n        /* \"#utility.yul\":10775:10787   */\n      and\n        /* \"#utility.yul\":10806:10824   */\n      dup1\n        /* \"#utility.yul\":10796:10877   */\n      tag_410\n      jumpi\n        /* \"#utility.yul\":10862:10866   */\n      0x7f\n        /* \"#utility.yul\":10854:10860   */\n      dup3\n        /* \"#utility.yul\":10850:10867   */\n      and\n        /* \"#utility.yul\":10840:10867   */\n      swap2\n      pop\n        /* \"#utility.yul\":10796:10877   */\n    tag_410:\n        /* \"#utility.yul\":10924:10926   */\n      0x20\n        /* \"#utility.yul\":10916:10922   */\n      dup3\n        /* \"#utility.yul\":10913:10927   */\n      lt\n        /* \"#utility.yul\":10893:10911   */\n      dup2\n        /* \"#utility.yul\":10890:10928   */\n      sub\n        /* \"#utility.yul\":10887:10971   */\n      tag_411\n      jumpi\n        /* \"#utility.yul\":10943:10961   */\n      tag_412\n      tag_254\n      jump\t// in\n    tag_412:\n        /* \"#utility.yul\":10887:10971   */\n    tag_411:\n        /* \"#utility.yul\":10708:10977   */\n      pop\n        /* \"#utility.yul\":10657:10977   */\n      swap2\n      swap1\n      pop\n      jump\t// out\n        /* \"#utility.yul\":10983:11152   */\n    tag_255:\n        /* \"#utility.yul\":11123:11144   */\n      0x746f6b656e20646f65736e277420657869737400000000000000000000000000\n        /* \"#utility.yul\":11119:11120   */\n      0x00\n        /* \"#utility.yul\":11111:11117   */\n      dup3\n        /* \"#utility.yul\":11107:11121   */\n      add\n        /* \"#utility.yul\":11100:11145   */\n      mstore\n        /* \"#utility.yul\":10983:11152   */\n      pop\n      jump\t// out\n        /* \"#utility.yul\":11158:11524   */\n    tag_256:\n        /* \"#utility.yul\":11300:11303   */\n      0x00\n        /* \"#utility.yul\":11321:11388   */\n      tag_415\n        /* \"#utility.yul\":11385:11387   */\n      0x13\n        /* \"#utility.yul\":11380:11383   */\n      dup4\n        /* \"#utility.yul\":11321:11388   */\n      tag_231\n      jump\t// in\n    tag_415:\n        /* \"#utility.yul\":11314:11388   */\n      swap2\n      pop\n        /* \"#utility.yul\":11397:11490   */\n      tag_416\n        /* \"#utility.yul\":11486:11489   */\n      dup3\n        /* \"#utility.yul\":11397:11490   */\n      tag_255\n      jump\t// in\n    tag_416:\n        /* \"#utility.yul\":11515:11517   */\n      0x20\n        /* \"#utility.yul\":11510:11513   */\n      dup3\n        /* \"#utility.yul\":11506:11518   */\n      add\n        /* \"#utility.yul\":11499:11518   */\n      swap1\n      pop\n        /* \"#utility.yul\":11158:11524   */\n      swap2\n      swap1\n      pop\n      jump\t// out\n        /* \"#utility.yul\":11530:11949   */\n    tag_96:\n        /* \"#utility.yul\":11696:11700   */\n      0x00\n        /* \"#utility.yul\":11734:11736   */\n      0x20\n        /* \"#utility.yul\":11723:11732   */\n      dup3\n        /* \"#utility.yul\":11719:11737   */\n      add\n        /* \"#utility.yul\":11711:11737   */\n      swap1\n      pop\n        /* \"#utility.yul\":11783:11792   */\n      dup2\n        /* \"#utility.yul\":11777:11781   */\n      dup2\n        /* \"#utility.yul\":11773:11793   */\n      sub\n        /* \"#utility.yul\":11769:11770   */\n      0x00\n        /* \"#utility.yul\":11758:11767   */\n      dup4\n        /* \"#utility.yul\":11754:11771   */\n      add\n        /* \"#utility.yul\":11747:11794   */\n      mstore\n        /* \"#utility.yul\":11811:11942   */\n      tag_418\n        /* \"#utility.yul\":11937:11941   */\n      dup2\n        /* \"#utility.yul\":11811:11942   */\n      tag_256\n      jump\t// in\n    tag_418:\n        /* \"#utility.yul\":11803:11942   */\n      swap1\n      pop\n        /* \"#utility.yul\":11530:11949   */\n      swap2\n      swap1\n      pop\n      jump\t// out\n        /* \"#utility.yul\":11955:12135   */\n    tag_257:\n        /* \"#utility.yul\":12095:12127   */\n      0x6e6f74206f776e6572206e6f7220617070726f76656420666f7220616c6c0000\n        /* \"#utility.yul\":12091:12092   */\n      0x00\n        /* \"#utility.yul\":12083:12089   */\n      dup3\n        /* \"#utility.yul\":12079:12093   */\n      add\n        /* \"#utility.yul\":12072:12128   */\n      mstore\n        /* \"#utility.yul\":11955:12135   */\n      pop\n      jump\t// out\n        /* \"#utility.yul\":12141:12507   */\n    tag_258:\n        /* \"#utility.yul\":12283:12286   */\n      0x00\n        /* \"#utility.yul\":12304:12371   */\n      tag_421\n        /* \"#utility.yul\":12368:12370   */\n      0x1e\n        /* \"#utility.yul\":12363:12366   */\n      dup4\n        /* \"#utility.yul\":12304:12371   */\n      tag_231\n      jump\t// in\n    tag_421:\n        /* \"#utility.yul\":12297:12371   */\n      swap2\n      pop\n        /* \"#utility.yul\":12380:12473   */\n      tag_422\n        /* \"#utility.yul\":12469:12472   */\n      dup3\n        /* \"#utility.yul\":12380:12473   */\n      tag_257\n      jump\t// in\n    tag_422:\n        /* \"#utility.yul\":12498:12500   */\n      0x20\n        /* \"#utility.yul\":12493:12496   */\n      dup3\n        /* \"#utility.yul\":12489:12501   */\n      add\n        /* \"#utility.yul\":12482:12501   */\n      swap1\n      pop\n        /* \"#utility.yul\":12141:12507   */\n      swap2\n      swap1\n      pop\n      jump\t// out\n        /* \"#utility.yul\":12513:12932   */\n    tag_101:\n        /* \"#utility.yul\":12679:12683   */\n      0x00\n        /* \"#utility.yul\":12717:12719   */\n      0x20\n        /* \"#utility.yul\":12706:12715   */\n      dup3\n        /* \"#utility.yul\":12702:12720   */\n      add\n        /* \"#utility.yul\":12694:12720   */\n      swap1\n      pop\n        /* \"#utility.yul\":12766:12775   */\n      dup2\n        /* \"#utility.yul\":12760:12764   */\n      dup2\n        /* \"#utility.yul\":12756:12776   */\n      sub\n        /* \"#utility.yul\":12752:12753   */\n      0x00\n        /* \"#utility.yul\":12741:12750   */\n      dup4\n        /* \"#utility.yul\":12737:12754   */\n      add\n        /* \"#utility.yul\":12730:12777   */\n      mstore\n        /* \"#utility.yul\":12794:12925   */\n      tag_424\n        /* \"#utility.yul\":12920:12924   */\n      dup2\n        /* \"#utility.yul\":12794:12925   */\n      tag_258\n      jump\t// in\n    tag_424:\n        /* \"#utility.yul\":12786:12925   */\n      swap1\n      pop\n        /* \"#utility.yul\":12513:12932   */\n      swap2\n      swap1\n      pop\n      jump\t// out\n        /* \"#utility.yul\":12938:13110   */\n    tag_259:\n        /* \"#utility.yul\":13078:13102   */\n      0x6e6f74206f776e6572206e6f7220617070726f76656400000000000000000000\n        /* \"#utility.yul\":13074:13075   */\n      0x00\n        /* \"#utility.yul\":13066:13072   */\n      dup3\n        /* \"#utility.yul\":13062:13076   */\n      add\n        /* \"#utility.yul\":13055:13103   */\n      mstore\n        /* \"#utility.yul\":12938:13110   */\n      pop\n      jump\t// out\n        /* \"#utility.yul\":13116:13482   */\n    tag_260:\n        /* \"#utility.yul\":13258:13261   */\n      0x00\n        /* \"#utility.yul\":13279:13346   */\n      tag_427\n        /* \"#utility.yul\":13343:13345   */\n      0x16\n        /* \"#utility.yul\":13338:13341   */\n      dup4\n        /* \"#utility.yul\":13279:13346   */\n      tag_231\n      jump\t// in\n    tag_427:\n        /* \"#utility.yul\":13272:13346   */\n      swap2\n      pop\n        /* \"#utility.yul\":13355:13448   */\n      tag_428\n        /* \"#utility.yul\":13444:13447   */\n      dup3\n        /* \"#utility.yul\":13355:13448   */\n      tag_259\n      jump\t// in\n    tag_428:\n        /* \"#utility.yul\":13473:13475   */\n      0x20\n        /* \"#utility.yul\":13468:13471   */\n      dup3\n        /* \"#utility.yul\":13464:13476   */\n      add\n        /* \"#utility.yul\":13457:13476   */\n      swap1\n      pop\n        /* \"#utility.yul\":13116:13482   */\n      swap2\n      swap1\n      pop\n      jump\t// out\n        /* \"#utility.yul\":13488:13907   */\n    tag_110:\n        /* \"#utility.yul\":13654:13658   */\n      0x00\n        /* \"#utility.yul\":13692:13694   */\n      0x20\n        /* \"#utility.yul\":13681:13690   */\n      dup3\n        /* \"#utility.yul\":13677:13695   */\n      add\n        /* \"#utility.yul\":13669:13695   */\n      swap1\n      pop\n        /* \"#utility.yul\":13741:13750   */\n      dup2\n        /* \"#utility.yul\":13735:13739   */\n      dup2\n        /* \"#utility.yul\":13731:13751   */\n      sub\n        /* \"#utility.yul\":13727:13728   */\n      0x00\n        /* \"#utility.yul\":13716:13725   */\n      dup4\n        /* \"#utility.yul\":13712:13729   */\n      add\n        /* \"#utility.yul\":13705:13752   */\n      mstore\n        /* \"#utility.yul\":13769:13900   */\n      tag_430\n        /* \"#utility.yul\":13895:13899   */\n      dup2\n        /* \"#utility.yul\":13769:13900   */\n      tag_260\n      jump\t// in\n    tag_430:\n        /* \"#utility.yul\":13761:13900   */\n      swap1\n      pop\n        /* \"#utility.yul\":13488:13907   */\n      swap2\n      swap1\n      pop\n      jump\t// out\n        /* \"#utility.yul\":13913:14083   */\n    tag_261:\n        /* \"#utility.yul\":14053:14075   */\n      0x746f6b656e4964206f7574206f662072616e6765000000000000000000000000\n        /* \"#utility.yul\":14049:14050   */\n      0x00\n        /* \"#utility.yul\":14041:14047   */\n      dup3\n        /* \"#utility.yul\":14037:14051   */\n      add\n        /* \"#utility.yul\":14030:14076   */\n      mstore\n        /* \"#utility.yul\":13913:14083   */\n      pop\n      jump\t// out\n        /* \"#utility.yul\":14089:14455   */\n    tag_262:\n        /* \"#utility.yul\":14231:14234   */\n      0x00\n        /* \"#utility.yul\":14252:14319   */\n      tag_433\n        /* \"#utility.yul\":14316:14318   */\n      0x14\n        /* \"#utility.yul\":14311:14314   */\n      dup4\n        /* \"#utility.yul\":14252:14319   */\n      tag_231\n      jump\t// in\n    tag_433:\n        /* \"#utility.yul\":14245:14319   */\n      swap2\n      pop\n        /* \"#utility.yul\":14328:14421   */\n      tag_434\n        /* \"#utility.yul\":14417:14420   */\n      dup3\n        /* \"#utility.yul\":14328:14421   */\n      tag_261\n      jump\t// in\n    tag_434:\n        /* \"#utility.yul\":14446:14448   */\n      0x20\n        /* \"#utility.yul\":14441:14444   */\n      dup3\n        /* \"#utility.yul\":14437:14449   */\n      add\n        /* \"#utility.yul\":14430:14449   */\n      swap1\n      pop\n        /* \"#utility.yul\":14089:14455   */\n      swap2\n      swap1\n      pop\n      jump\t// out\n        /* \"#utility.yul\":14461:14880   */\n    tag_117:\n        /* \"#utility.yul\":14627:14631   */\n      0x00\n        /* \"#utility.yul\":14665:14667   */\n      0x20\n        /* \"#utility.yul\":14654:14663   */\n      dup3\n        /* \"#utility.yul\":14650:14668   */\n      add\n        /* \"#utility.yul\":14642:14668   */\n      swap1\n      pop\n        /* \"#utility.yul\":14714:14723   */\n      dup2\n        /* \"#utility.yul\":14708:14712   */\n      dup2\n        /* \"#utility.yul\":14704:14724   */\n      sub\n        /* \"#utility.yul\":14700:14701   */\n      0x00\n        /* \"#utility.yul\":14689:14698   */\n      dup4\n        /* \"#utility.yul\":14685:14702   */\n      add\n        /* \"#utility.yul\":14678:14725   */\n      mstore\n        /* \"#utility.yul\":14742:14873   */\n      tag_436\n        /* \"#utility.yul\":14868:14872   */\n      dup2\n        /* \"#utility.yul\":14742:14873   */\n      tag_262\n      jump\t// in\n    tag_436:\n        /* \"#utility.yul\":14734:14873   */\n      swap1\n      pop\n        /* \"#utility.yul\":14461:14880   */\n      swap2\n      swap1\n      pop\n      jump\t// out\n        /* \"#utility.yul\":14886:15056   */\n    tag_263:\n        /* \"#utility.yul\":15026:15048   */\n      0x6f776e6572203d207a65726f2061646472657373000000000000000000000000\n        /* \"#utility.yul\":15022:15023   */\n      0x00\n        /* \"#utility.yul\":15014:15020   */\n      dup3\n        /* \"#utility.yul\":15010:15024   */\n      add\n        /* \"#utility.yul\":15003:15049   */\n      mstore\n        /* \"#utility.yul\":14886:15056   */\n      pop\n      jump\t// out\n        /* \"#utility.yul\":15062:15428   */\n    tag_264:\n        /* \"#utility.yul\":15204:15207   */\n      0x00\n        /* \"#utility.yul\":15225:15292   */\n      tag_439\n        /* \"#utility.yul\":15289:15291   */\n      0x14\n        /* \"#utility.yul\":15284:15287   */\n      dup4\n        /* \"#utility.yul\":15225:15292   */\n      tag_231\n      jump\t// in\n    tag_439:\n        /* \"#utility.yul\":15218:15292   */\n      swap2\n      pop\n        /* \"#utility.yul\":15301:15394   */\n      tag_440\n        /* \"#utility.yul\":15390:15393   */\n      dup3\n        /* \"#utility.yul\":15301:15394   */\n      tag_263\n      jump\t// in\n    tag_440:\n        /* \"#utility.yul\":15419:15421   */\n      0x20\n        /* \"#utility.yul\":15414:15417   */\n      dup3\n        /* \"#utility.yul\":15410:15422   */\n      add\n        /* \"#utility.yul\":15403:15422   */\n      swap1\n      pop\n        /* \"#utility.yul\":15062:15428   */\n      swap2\n      swap1\n      pop\n      jump\t// out\n        /* \"#utility.yul\":15434:15853   */\n    tag_128:\n        /* \"#utility.yul\":15600:15604   */\n      0x00\n        /* \"#utility.yul\":15638:15640   */\n      0x20\n        /* \"#utility.yul\":15627:15636   */\n      dup3\n        /* \"#utility.yul\":15623:15641   */\n      add\n        /* \"#utility.yul\":15615:15641   */\n      swap1\n      pop\n        /* \"#utility.yul\":15687:15696   */\n      dup2\n        /* \"#utility.yul\":15681:15685   */\n      dup2\n        /* \"#utility.yul\":15677:15697   */\n      sub\n        /* \"#utility.yul\":15673:15674   */\n      0x00\n        /* \"#utility.yul\":15662:15671   */\n      dup4\n        /* \"#utility.yul\":15658:15675   */\n      add\n        /* \"#utility.yul\":15651:15698   */\n      mstore\n        /* \"#utility.yul\":15715:15846   */\n      tag_442\n        /* \"#utility.yul\":15841:15845   */\n      dup2\n        /* \"#utility.yul\":15715:15846   */\n      tag_264\n      jump\t// in\n    tag_442:\n        /* \"#utility.yul\":15707:15846   */\n      swap1\n      pop\n        /* \"#utility.yul\":15434:15853   */\n      swap2\n      swap1\n      pop\n      jump\t// out\n        /* \"#utility.yul\":15859:16024   */\n    tag_265:\n        /* \"#utility.yul\":15999:16016   */\n      0x546f6b656e204e6f742045786973740000000000000000000000000000000000\n        /* \"#utility.yul\":15995:15996   */\n      0x00\n        /* \"#utility.yul\":15987:15993   */\n      dup3\n        /* \"#utility.yul\":15983:15997   */\n      add\n        /* \"#utility.yul\":15976:16017   */\n      mstore\n        /* \"#utility.yul\":15859:16024   */\n      pop\n      jump\t// out\n        /* \"#utility.yul\":16030:16396   */\n    tag_266:\n        /* \"#utility.yul\":16172:16175   */\n      0x00\n        /* \"#utility.yul\":16193:16260   */\n      tag_445\n        /* \"#utility.yul\":16257:16259   */\n      0x0f\n        /* \"#utility.yul\":16252:16255   */\n      dup4\n        /* \"#utility.yul\":16193:16260   */\n      tag_231\n      jump\t// in\n    tag_445:\n        /* \"#utility.yul\":16186:16260   */\n      swap2\n      pop\n        /* \"#utility.yul\":16269:16362   */\n      tag_446\n        /* \"#utility.yul\":16358:16361   */\n      dup3\n        /* \"#utility.yul\":16269:16362   */\n      tag_265\n      jump\t// in\n    tag_446:\n        /* \"#utility.yul\":16387:16389   */\n      0x20\n        /* \"#utility.yul\":16382:16385   */\n      dup3\n        /* \"#utility.yul\":16378:16390   */\n      add\n        /* \"#utility.yul\":16371:16390   */\n      swap1\n      pop\n        /* \"#utility.yul\":16030:16396   */\n      swap2\n      swap1\n      pop\n      jump\t// out\n        /* \"#utility.yul\":16402:16821   */\n    tag_146:\n        /* \"#utility.yul\":16568:16572   */\n      0x00\n        /* \"#utility.yul\":16606:16608   */\n      0x20\n        /* \"#utility.yul\":16595:16604   */\n      dup3\n        /* \"#utility.yul\":16591:16609   */\n      add\n        /* \"#utility.yul\":16583:16609   */\n      swap1\n      pop\n        /* \"#utility.yul\":16655:16664   */\n      dup2\n        /* \"#utility.yul\":16649:16653   */\n      dup2\n        /* \"#utility.yul\":16645:16665   */\n      sub\n        /* \"#utility.yul\":16641:16642   */\n      0x00\n        /* \"#utility.yul\":16630:16639   */\n      dup4\n        /* \"#utility.yul\":16626:16643   */\n      add\n        /* \"#utility.yul\":16619:16666   */\n      mstore\n        /* \"#utility.yul\":16683:16814   */\n      tag_448\n        /* \"#utility.yul\":16809:16813   */\n      dup2\n        /* \"#utility.yul\":16683:16814   */\n      tag_266\n      jump\t// in\n    tag_448:\n        /* \"#utility.yul\":16675:16814   */\n      swap1\n      pop\n        /* \"#utility.yul\":16402:16821   */\n      swap2\n      swap1\n      pop\n      jump\t// out\n        /* \"#utility.yul\":16827:16975   */\n    tag_267:\n        /* \"#utility.yul\":16929:16940   */\n      0x00\n        /* \"#utility.yul\":16966:16969   */\n      dup2\n        /* \"#utility.yul\":16951:16969   */\n      swap1\n      pop\n        /* \"#utility.yul\":16827:16975   */\n      swap3\n      swap2\n      pop\n      pop\n      jump\t// out\n        /* \"#utility.yul\":16981:17371   */\n    tag_268:\n        /* \"#utility.yul\":17087:17090   */\n      0x00\n        /* \"#utility.yul\":17115:17154   */\n      tag_451\n        /* \"#utility.yul\":17148:17153   */\n      dup3\n        /* \"#utility.yul\":17115:17154   */\n      tag_230\n      jump\t// in\n    tag_451:\n        /* \"#utility.yul\":17170:17259   */\n      tag_452\n        /* \"#utility.yul\":17252:17258   */\n      dup2\n        /* \"#utility.yul\":17247:17250   */\n      dup6\n        /* \"#utility.yul\":17170:17259   */\n      tag_267\n      jump\t// in\n    tag_452:\n        /* \"#utility.yul\":17163:17259   */\n      swap4\n      pop\n        /* \"#utility.yul\":17268:17333   */\n      tag_453\n        /* \"#utility.yul\":17326:17332   */\n      dup2\n        /* \"#utility.yul\":17321:17324   */\n      dup6\n        /* \"#utility.yul\":17314:17318   */\n      0x20\n        /* \"#utility.yul\":17307:17312   */\n      dup7\n        /* \"#utility.yul\":17303:17319   */\n      add\n        /* \"#utility.yul\":17268:17333   */\n      tag_232\n      jump\t// in\n    tag_453:\n        /* \"#utility.yul\":17358:17364   */\n      dup1\n        /* \"#utility.yul\":17353:17356   */\n      dup5\n        /* \"#utility.yul\":17349:17365   */\n      add\n        /* \"#utility.yul\":17342:17365   */\n      swap2\n      pop\n        /* \"#utility.yul\":17091:17371   */\n      pop\n        /* \"#utility.yul\":16981:17371   */\n      swap3\n      swap2\n      pop\n      pop\n      jump\t// out\n        /* \"#utility.yul\":17377:17812   */\n    tag_154:\n        /* \"#utility.yul\":17557:17560   */\n      0x00\n        /* \"#utility.yul\":17579:17674   */\n      tag_455\n        /* \"#utility.yul\":17670:17673   */\n      dup3\n        /* \"#utility.yul\":17661:17667   */\n      dup6\n        /* \"#utility.yul\":17579:17674   */\n      tag_268\n      jump\t// in\n    tag_455:\n        /* \"#utility.yul\":17572:17674   */\n      swap2\n      pop\n        /* \"#utility.yul\":17691:17786   */\n      tag_456\n        /* \"#utility.yul\":17782:17785   */\n      dup3\n        /* \"#utility.yul\":17773:17779   */\n      dup5\n        /* \"#utility.yul\":17691:17786   */\n      tag_268\n      jump\t// in\n    tag_456:\n        /* \"#utility.yul\":17684:17786   */\n      swap2\n      pop\n        /* \"#utility.yul\":17803:17806   */\n      dup2\n        /* \"#utility.yul\":17796:17806   */\n      swap1\n      pop\n        /* \"#utility.yul\":17377:17812   */\n      swap4\n      swap3\n      pop\n      pop\n      pop\n      jump\t// out\n        /* \"#utility.yul\":17818:17977   */\n    tag_269:\n        /* \"#utility.yul\":17958:17969   */\n      0x6e6f74206f776e65720000000000000000000000000000000000000000000000\n        /* \"#utility.yul\":17954:17955   */\n      0x00\n        /* \"#utility.yul\":17946:17952   */\n      dup3\n        /* \"#utility.yul\":17942:17956   */\n      add\n        /* \"#utility.yul\":17935:17970   */\n      mstore\n        /* \"#utility.yul\":17818:17977   */\n      pop\n      jump\t// out\n        /* \"#utility.yul\":17983:18348   */\n    tag_270:\n        /* \"#utility.yul\":18125:18128   */\n      0x00\n        /* \"#utility.yul\":18146:18212   */\n      tag_459\n        /* \"#utility.yul\":18210:18211   */\n      0x09\n        /* \"#utility.yul\":18205:18208   */\n      dup4\n        /* \"#utility.yul\":18146:18212   */\n      tag_231\n      jump\t// in\n    tag_459:\n        /* \"#utility.yul\":18139:18212   */\n      swap2\n      pop\n        /* \"#utility.yul\":18221:18314   */\n      tag_460\n        /* \"#utility.yul\":18310:18313   */\n      dup3\n        /* \"#utility.yul\":18221:18314   */\n      tag_269\n      jump\t// in\n    tag_460:\n        /* \"#utility.yul\":18339:18341   */\n      0x20\n        /* \"#utility.yul\":18334:18337   */\n      dup3\n        /* \"#utility.yul\":18330:18342   */\n      add\n        /* \"#utility.yul\":18323:18342   */\n      swap1\n      pop\n        /* \"#utility.yul\":17983:18348   */\n      swap2\n      swap1\n      pop\n      jump\t// out\n        /* \"#utility.yul\":18354:18773   */\n    tag_163:\n        /* \"#utility.yul\":18520:18524   */\n      0x00\n        /* \"#utility.yul\":18558:18560   */\n      0x20\n        /* \"#utility.yul\":18547:18556   */\n      dup3\n        /* \"#utility.yul\":18543:18561   */\n      add\n        /* \"#utility.yul\":18535:18561   */\n      swap1\n      pop\n        /* \"#utility.yul\":18607:18616   */\n      dup2\n        /* \"#utility.yul\":18601:18605   */\n      dup2\n        /* \"#utility.yul\":18597:18617   */\n      sub\n        /* \"#utility.yul\":18593:18594   */\n      0x00\n        /* \"#utility.yul\":18582:18591   */\n      dup4\n        /* \"#utility.yul\":18578:18595   */\n      add\n        /* \"#utility.yul\":18571:18618   */\n      mstore\n        /* \"#utility.yul\":18635:18766   */\n      tag_462\n        /* \"#utility.yul\":18761:18765   */\n      dup2\n        /* \"#utility.yul\":18635:18766   */\n      tag_270\n      jump\t// in\n    tag_462:\n        /* \"#utility.yul\":18627:18766   */\n      swap1\n      pop\n        /* \"#utility.yul\":18354:18773   */\n      swap2\n      swap1\n      pop\n      jump\t// out\n        /* \"#utility.yul\":18779:18957   */\n    tag_271:\n        /* \"#utility.yul\":18919:18949   */\n      0x7472616e7366657220746f20746865207a65726f206164647265737300000000\n        /* \"#utility.yul\":18915:18916   */\n      0x00\n        /* \"#utility.yul\":18907:18913   */\n      dup3\n        /* \"#utility.yul\":18903:18917   */\n      add\n        /* \"#utility.yul\":18896:18950   */\n      mstore\n        /* \"#utility.yul\":18779:18957   */\n      pop\n      jump\t// out\n        /* \"#utility.yul\":18963:19329   */\n    tag_272:\n        /* \"#utility.yul\":19105:19108   */\n      0x00\n        /* \"#utility.yul\":19126:19193   */\n      tag_465\n        /* \"#utility.yul\":19190:19192   */\n      0x1c\n        /* \"#utility.yul\":19185:19188   */\n      dup4\n        /* \"#utility.yul\":19126:19193   */\n      tag_231\n      jump\t// in\n    tag_465:\n        /* \"#utility.yul\":19119:19193   */\n      swap2\n      pop\n        /* \"#utility.yul\":19202:19295   */\n      tag_466\n        /* \"#utility.yul\":19291:19294   */\n      dup3\n        /* \"#utility.yul\":19202:19295   */\n      tag_271\n      jump\t// in\n    tag_466:\n        /* \"#utility.yul\":19320:19322   */\n      0x20\n        /* \"#utility.yul\":19315:19318   */\n      dup3\n        /* \"#utility.yul\":19311:19323   */\n      add\n        /* \"#utility.yul\":19304:19323   */\n      swap1\n      pop\n        /* \"#utility.yul\":18963:19329   */\n      swap2\n      swap1\n      pop\n      jump\t// out\n        /* \"#utility.yul\":19335:19754   */\n    tag_166:\n        /* \"#utility.yul\":19501:19505   */\n      0x00\n        /* \"#utility.yul\":19539:19541   */\n      0x20\n        /* \"#utility.yul\":19528:19537   */\n      dup3\n        /* \"#utility.yul\":19524:19542   */\n      add\n        /* \"#utility.yul\":19516:19542   */\n      swap1\n      pop\n        /* \"#utility.yul\":19588:19597   */\n      dup2\n        /* \"#utility.yul\":19582:19586   */\n      dup2\n        /* \"#utility.yul\":19578:19598   */\n      sub\n        /* \"#utility.yul\":19574:19575   */\n      0x00\n        /* \"#utility.yul\":19563:19572   */\n      dup4\n        /* \"#utility.yul\":19559:19576   */\n      add\n        /* \"#utility.yul\":19552:19599   */\n      mstore\n        /* \"#utility.yul\":19616:19747   */\n      tag_468\n        /* \"#utility.yul\":19742:19746   */\n      dup2\n        /* \"#utility.yul\":19616:19747   */\n      tag_272\n      jump\t// in\n    tag_468:\n        /* \"#utility.yul\":19608:19747   */\n      swap1\n      pop\n        /* \"#utility.yul\":19335:19754   */\n      swap2\n      swap1\n      pop\n      jump\t// out\n        /* \"#utility.yul\":19760:19940   */\n    tag_273:\n        /* \"#utility.yul\":19808:19885   */\n      0x4e487b7100000000000000000000000000000000000000000000000000000000\n        /* \"#utility.yul\":19805:19806   */\n      0x00\n        /* \"#utility.yul\":19798:19886   */\n      mstore\n        /* \"#utility.yul\":19905:19909   */\n      0x11\n        /* \"#utility.yul\":19902:19903   */\n      0x04\n        /* \"#utility.yul\":19895:19910   */\n      mstore\n        /* \"#utility.yul\":19929:19933   */\n      0x24\n        /* \"#utility.yul\":19926:19927   */\n      0x00\n        /* \"#utility.yul\":19919:19934   */\n      revert\n        /* \"#utility.yul\":19946:20140   */\n    tag_169:\n        /* \"#utility.yul\":19986:19990   */\n      0x00\n        /* \"#utility.yul\":20006:20026   */\n      tag_471\n        /* \"#utility.yul\":20024:20025   */\n      dup3\n        /* \"#utility.yul\":20006:20026   */\n      tag_235\n      jump\t// in\n    tag_471:\n        /* \"#utility.yul\":20001:20026   */\n      swap2\n      pop\n        /* \"#utility.yul\":20040:20060   */\n      tag_472\n        /* \"#utility.yul\":20058:20059   */\n      dup4\n        /* \"#utility.yul\":20040:20060   */\n      tag_235\n      jump\t// in\n    tag_472:\n        /* \"#utility.yul\":20035:20060   */\n      swap3\n      pop\n        /* \"#utility.yul\":20084:20085   */\n      dup3\n        /* \"#utility.yul\":20081:20082   */\n      dup3\n        /* \"#utility.yul\":20077:20086   */\n      sub\n        /* \"#utility.yul\":20069:20086   */\n      swap1\n      pop\n        /* \"#utility.yul\":20108:20109   */\n      dup2\n        /* \"#utility.yul\":20102:20106   */\n      dup2\n        /* \"#utility.yul\":20099:20110   */\n      gt\n        /* \"#utility.yul\":20096:20133   */\n      iszero\n      tag_473\n      jumpi\n        /* \"#utility.yul\":20113:20131   */\n      tag_474\n      tag_273\n      jump\t// in\n    tag_474:\n        /* \"#utility.yul\":20096:20133   */\n    tag_473:\n        /* \"#utility.yul\":19946:20140   */\n      swap3\n      swap2\n      pop\n      pop\n      jump\t// out\n        /* \"#utility.yul\":20146:20337   */\n    tag_171:\n        /* \"#utility.yul\":20186:20189   */\n      0x00\n        /* \"#utility.yul\":20205:20225   */\n      tag_476\n        /* \"#utility.yul\":20223:20224   */\n      dup3\n        /* \"#utility.yul\":20205:20225   */\n      tag_235\n      jump\t// in\n    tag_476:\n        /* \"#utility.yul\":20200:20225   */\n      swap2\n      pop\n        /* \"#utility.yul\":20239:20259   */\n      tag_477\n        /* \"#utility.yul\":20257:20258   */\n      dup4\n        /* \"#utility.yul\":20239:20259   */\n      tag_235\n      jump\t// in\n    tag_477:\n        /* \"#utility.yul\":20234:20259   */\n      swap3\n      pop\n        /* \"#utility.yul\":20282:20283   */\n      dup3\n        /* \"#utility.yul\":20279:20280   */\n      dup3\n        /* \"#utility.yul\":20275:20284   */\n      add\n        /* \"#utility.yul\":20268:20284   */\n      swap1\n      pop\n        /* \"#utility.yul\":20303:20306   */\n      dup1\n        /* \"#utility.yul\":20300:20301   */\n      dup3\n        /* \"#utility.yul\":20297:20307   */\n      gt\n        /* \"#utility.yul\":20294:20330   */\n      iszero\n      tag_478\n      jumpi\n        /* \"#utility.yul\":20310:20328   */\n      tag_479\n      tag_273\n      jump\t// in\n    tag_479:\n        /* \"#utility.yul\":20294:20330   */\n    tag_478:\n        /* \"#utility.yul\":20146:20337   */\n      swap3\n      swap2\n      pop\n      pop\n      jump\t// out\n        /* \"#utility.yul\":20343:20513   */\n    tag_274:\n        /* \"#utility.yul\":20483:20505   */\n      0x6d696e7420746f207a65726f2061646472657373000000000000000000000000\n        /* \"#utility.yul\":20479:20480   */\n      0x00\n        /* \"#utility.yul\":20471:20477   */\n      dup3\n        /* \"#utility.yul\":20467:20481   */\n      add\n        /* \"#utility.yul\":20460:20506   */\n      mstore\n        /* \"#utility.yul\":20343:20513   */\n      pop\n      jump\t// out\n        /* \"#utility.yul\":20519:20885   */\n    tag_275:\n        /* \"#utility.yul\":20661:20664   */\n      0x00\n        /* \"#utility.yul\":20682:20749   */\n      tag_482\n        /* \"#utility.yul\":20746:20748   */\n      0x14\n        /* \"#utility.yul\":20741:20744   */\n      dup4\n        /* \"#utility.yul\":20682:20749   */\n      tag_231\n      jump\t// in\n    tag_482:\n        /* \"#utility.yul\":20675:20749   */\n      swap2\n      pop\n        /* \"#utility.yul\":20758:20851   */\n      tag_483\n        /* \"#utility.yul\":20847:20850   */\n      dup3\n        /* \"#utility.yul\":20758:20851   */\n      tag_274\n      jump\t// in\n    tag_483:\n        /* \"#utility.yul\":20876:20878   */\n      0x20\n        /* \"#utility.yul\":20871:20874   */\n      dup3\n        /* \"#utility.yul\":20867:20879   */\n      add\n        /* \"#utility.yul\":20860:20879   */\n      swap1\n      pop\n        /* \"#utility.yul\":20519:20885   */\n      swap2\n      swap1\n      pop\n      jump\t// out\n        /* \"#utility.yul\":20891:21310   */\n    tag_175:\n        /* \"#utility.yul\":21057:21061   */\n      0x00\n        /* \"#utility.yul\":21095:21097   */\n      0x20\n        /* \"#utility.yul\":21084:21093   */\n      dup3\n        /* \"#utility.yul\":21080:21098   */\n      add\n        /* \"#utility.yul\":21072:21098   */\n      swap1\n      pop\n        /* \"#utility.yul\":21144:21153   */\n      dup2\n        /* \"#utility.yul\":21138:21142   */\n      dup2\n        /* \"#utility.yul\":21134:21154   */\n      sub\n        /* \"#utility.yul\":21130:21131   */\n      0x00\n        /* \"#utility.yul\":21119:21128   */\n      dup4\n        /* \"#utility.yul\":21115:21132   */\n      add\n        /* \"#utility.yul\":21108:21155   */\n      mstore\n        /* \"#utility.yul\":21172:21303   */\n      tag_485\n        /* \"#utility.yul\":21298:21302   */\n      dup2\n        /* \"#utility.yul\":21172:21303   */\n      tag_275\n      jump\t// in\n    tag_485:\n        /* \"#utility.yul\":21164:21303   */\n      swap1\n      pop\n        /* \"#utility.yul\":20891:21310   */\n      swap2\n      swap1\n      pop\n      jump\t// out\n        /* \"#utility.yul\":21316:21486   */\n    tag_276:\n        /* \"#utility.yul\":21456:21478   */\n      0x746f6b656e20616c7265616479206d696e746564000000000000000000000000\n        /* \"#utility.yul\":21452:21453   */\n      0x00\n        /* \"#utility.yul\":21444:21450   */\n      dup3\n        /* \"#utility.yul\":21440:21454   */\n      add\n        /* \"#utility.yul\":21433:21479   */\n      mstore\n        /* \"#utility.yul\":21316:21486   */\n      pop\n      jump\t// out\n        /* \"#utility.yul\":21492:21858   */\n    tag_277:\n        /* \"#utility.yul\":21634:21637   */\n      0x00\n        /* \"#utility.yul\":21655:21722   */\n      tag_488\n        /* \"#utility.yul\":21719:21721   */\n      0x14\n        /* \"#utility.yul\":21714:21717   */\n      dup4\n        /* \"#utility.yul\":21655:21722   */\n      tag_231\n      jump\t// in\n    tag_488:\n        /* \"#utility.yul\":21648:21722   */\n      swap2\n      pop\n        /* \"#utility.yul\":21731:21824   */\n      tag_489\n        /* \"#utility.yul\":21820:21823   */\n      dup3\n        /* \"#utility.yul\":21731:21824   */\n      tag_276\n      jump\t// in\n    tag_489:\n        /* \"#utility.yul\":21849:21851   */\n      0x20\n        /* \"#utility.yul\":21844:21847   */\n      dup3\n        /* \"#utility.yul\":21840:21852   */\n      add\n        /* \"#utility.yul\":21833:21852   */\n      swap1\n      pop\n        /* \"#utility.yul\":21492:21858   */\n      swap2\n      swap1\n      pop\n      jump\t// out\n        /* \"#utility.yul\":21864:22283   */\n    tag_178:\n        /* \"#utility.yul\":22030:22034   */\n      0x00\n        /* \"#utility.yul\":22068:22070   */\n      0x20\n        /* \"#utility.yul\":22057:22066   */\n      dup3\n        /* \"#utility.yul\":22053:22071   */\n      add\n        /* \"#utility.yul\":22045:22071   */\n      swap1\n      pop\n        /* \"#utility.yul\":22117:22126   */\n      dup2\n        /* \"#utility.yul\":22111:22115   */\n      dup2\n        /* \"#utility.yul\":22107:22127   */\n      sub\n        /* \"#utility.yul\":22103:22104   */\n      0x00\n        /* \"#utility.yul\":22092:22101   */\n      dup4\n        /* \"#utility.yul\":22088:22105   */\n      add\n        /* \"#utility.yul\":22081:22128   */\n      mstore\n        /* \"#utility.yul\":22145:22276   */\n      tag_491\n        /* \"#utility.yul\":22271:22275   */\n      dup2\n        /* \"#utility.yul\":22145:22276   */\n      tag_277\n      jump\t// in\n    tag_491:\n        /* \"#utility.yul\":22137:22276   */\n      swap1\n      pop\n        /* \"#utility.yul\":21864:22283   */\n      swap2\n      swap1\n      pop\n      jump\t// out\n        /* \"#utility.yul\":22289:22457   */\n    tag_278:\n        /* \"#utility.yul\":22429:22449   */\n      0x6e6f742045524337323152656365697665720000000000000000000000000000\n        /* \"#utility.yul\":22425:22426   */\n      0x00\n        /* \"#utility.yul\":22417:22423   */\n      dup3\n        /* \"#utility.yul\":22413:22427   */\n      add\n        /* \"#utility.yul\":22406:22450   */\n      mstore\n        /* \"#utility.yul\":22289:22457   */\n      pop\n      jump\t// out\n        /* \"#utility.yul\":22463:22829   */\n    tag_279:\n        /* \"#utility.yul\":22605:22608   */\n      0x00\n        /* \"#utility.yul\":22626:22693   */\n      tag_494\n        /* \"#utility.yul\":22690:22692   */\n      0x12\n        /* \"#utility.yul\":22685:22688   */\n      dup4\n        /* \"#utility.yul\":22626:22693   */\n      tag_231\n      jump\t// in\n    tag_494:\n        /* \"#utility.yul\":22619:22693   */\n      swap2\n      pop\n        /* \"#utility.yul\":22702:22795   */\n      tag_495\n        /* \"#utility.yul\":22791:22794   */\n      dup3\n        /* \"#utility.yul\":22702:22795   */\n      tag_278\n      jump\t// in\n    tag_495:\n        /* \"#utility.yul\":22820:22822   */\n      0x20\n        /* \"#utility.yul\":22815:22818   */\n      dup3\n        /* \"#utility.yul\":22811:22823   */\n      add\n        /* \"#utility.yul\":22804:22823   */\n      swap1\n      pop\n        /* \"#utility.yul\":22463:22829   */\n      swap2\n      swap1\n      pop\n      jump\t// out\n        /* \"#utility.yul\":22835:23254   */\n    tag_186:\n        /* \"#utility.yul\":23001:23005   */\n      0x00\n        /* \"#utility.yul\":23039:23041   */\n      0x20\n        /* \"#utility.yul\":23028:23037   */\n      dup3\n        /* \"#utility.yul\":23024:23042   */\n      add\n        /* \"#utility.yul\":23016:23042   */\n      swap1\n      pop\n        /* \"#utility.yul\":23088:23097   */\n      dup2\n        /* \"#utility.yul\":23082:23086   */\n      dup2\n        /* \"#utility.yul\":23078:23098   */\n      sub\n        /* \"#utility.yul\":23074:23075   */\n      0x00\n        /* \"#utility.yul\":23063:23072   */\n      dup4\n        /* \"#utility.yul\":23059:23076   */\n      add\n        /* \"#utility.yul\":23052:23099   */\n      mstore\n        /* \"#utility.yul\":23116:23247   */\n      tag_497\n        /* \"#utility.yul\":23242:23246   */\n      dup2\n        /* \"#utility.yul\":23116:23247   */\n      tag_279\n      jump\t// in\n    tag_497:\n        /* \"#utility.yul\":23108:23247   */\n      swap1\n      pop\n        /* \"#utility.yul\":22835:23254   */\n      swap2\n      swap1\n      pop\n      jump\t// out\n        /* \"#utility.yul\":23260:23493   */\n    tag_193:\n        /* \"#utility.yul\":23299:23302   */\n      0x00\n        /* \"#utility.yul\":23322:23346   */\n      tag_499\n        /* \"#utility.yul\":23340:23345   */\n      dup3\n        /* \"#utility.yul\":23322:23346   */\n      tag_235\n      jump\t// in\n    tag_499:\n        /* \"#utility.yul\":23313:23346   */\n      swap2\n      pop\n        /* \"#utility.yul\":23368:23434   */\n      0xffffffffffffffffffffffffffffffffffffffffffffffffffffffffffffffff\n        /* \"#utility.yul\":23361:23366   */\n      dup3\n        /* \"#utility.yul\":23358:23435   */\n      sub\n        /* \"#utility.yul\":23355:23458   */\n      tag_500\n      jumpi\n        /* \"#utility.yul\":23438:23456   */\n      tag_501\n      tag_273\n      jump\t// in\n    tag_501:\n        /* \"#utility.yul\":23355:23458   */\n    tag_500:\n        /* \"#utility.yul\":23485:23486   */\n      0x01\n        /* \"#utility.yul\":23478:23483   */\n      dup3\n        /* \"#utility.yul\":23474:23487   */\n      add\n        /* \"#utility.yul\":23467:23487   */\n      swap1\n      pop\n        /* \"#utility.yul\":23260:23493   */\n      swap2\n      swap1\n      pop\n      jump\t// out\n        /* \"#utility.yul\":23499:23679   */\n    tag_280:\n        /* \"#utility.yul\":23547:23624   */\n      0x4e487b7100000000000000000000000000000000000000000000000000000000\n        /* \"#utility.yul\":23544:23545   */\n      0x00\n        /* \"#utility.yul\":23537:23625   */\n      mstore\n        /* \"#utility.yul\":23644:23648   */\n      0x12\n        /* \"#utility.yul\":23641:23642   */\n      0x04\n        /* \"#utility.yul\":23634:23649   */\n      mstore\n        /* \"#utility.yul\":23668:23672   */\n      0x24\n        /* \"#utility.yul\":23665:23666   */\n      0x00\n        /* \"#utility.yul\":23658:23673   */\n      revert\n        /* \"#utility.yul\":23685:23870   */\n    tag_195:\n        /* \"#utility.yul\":23725:23726   */\n      0x00\n        /* \"#utility.yul\":23742:23762   */\n      tag_504\n        /* \"#utility.yul\":23760:23761   */\n      dup3\n        /* \"#utility.yul\":23742:23762   */\n      tag_235\n      jump\t// in\n    tag_504:\n        /* \"#utility.yul\":23737:23762   */\n      swap2\n      pop\n        /* \"#utility.yul\":23776:23796   */\n      tag_505\n        /* \"#utility.yul\":23794:23795   */\n      dup4\n        /* \"#utility.yul\":23776:23796   */\n      tag_235\n      jump\t// in\n    tag_505:\n        /* \"#utility.yul\":23771:23796   */\n      swap3\n      pop\n        /* \"#utility.yul\":23815:23816   */\n      dup3\n        /* \"#utility.yul\":23805:23840   */\n      tag_506\n      jumpi\n        /* \"#utility.yul\":23820:23838   */\n      tag_507\n      tag_280\n      jump\t// in\n    tag_507:\n        /* \"#utility.yul\":23805:23840   */\n    tag_506:\n        /* \"#utility.yul\":23862:23863   */\n      dup3\n        /* \"#utility.yul\":23859:23860   */\n      dup3\n        /* \"#utility.yul\":23855:23864   */\n      div\n        /* \"#utility.yul\":23850:23864   */\n      swap1\n      pop\n        /* \"#utility.yul\":23685:23870   */\n      swap3\n      swap2\n      pop\n      pop\n      jump\t// out\n        /* \"#utility.yul\":23876:24052   */\n    tag_204:\n        /* \"#utility.yul\":23908:23909   */\n      0x00\n        /* \"#utility.yul\":23925:23945   */\n      tag_509\n        /* \"#utility.yul\":23943:23944   */\n      dup3\n        /* \"#utility.yul\":23925:23945   */\n      tag_235\n      jump\t// in\n    tag_509:\n        /* \"#utility.yul\":23920:23945   */\n      swap2\n      pop\n        /* \"#utility.yul\":23959:23979   */\n      tag_510\n        /* \"#utility.yul\":23977:23978   */\n      dup4\n        /* \"#utility.yul\":23959:23979   */\n      tag_235\n      jump\t// in\n    tag_510:\n        /* \"#utility.yul\":23954:23979   */\n      swap3\n      pop\n        /* \"#utility.yul\":23998:23999   */\n      dup3\n        /* \"#utility.yul\":23988:24023   */\n      tag_511\n      jumpi\n        /* \"#utility.yul\":24003:24021   */\n      tag_512\n      tag_280\n      jump\t// in\n    tag_512:\n        /* \"#utility.yul\":23988:24023   */\n    tag_511:\n        /* \"#utility.yul\":24044:24045   */\n      dup3\n        /* \"#utility.yul\":24041:24042   */\n      dup3\n        /* \"#utility.yul\":24037:24046   */\n      mod\n        /* \"#utility.yul\":24032:24046   */\n      swap1\n      pop\n        /* \"#utility.yul\":23876:24052   */\n      swap3\n      swap2\n      pop\n      pop\n      jump\t// out\n        /* \"#utility.yul\":24058:24238   */\n    tag_208:\n        /* \"#utility.yul\":24106:24183   */\n      0x4e487b7100000000000000000000000000000000000000000000000000000000\n        /* \"#utility.yul\":24103:24104   */\n      0x00\n        /* \"#utility.yul\":24096:24184   */\n      mstore\n        /* \"#utility.yul\":24203:24207   */\n      0x32\n        /* \"#utility.yul\":24200:24201   */\n      0x04\n        /* \"#utility.yul\":24193:24208   */\n      mstore\n        /* \"#utility.yul\":24227:24231   */\n      0x24\n        /* \"#utility.yul\":24224:24225   */\n      0x00\n        /* \"#utility.yul\":24217:24232   */\n      revert\n        /* \"#utility.yul\":24244:24342   */\n    tag_281:\n        /* \"#utility.yul\":24295:24301   */\n      0x00\n        /* \"#utility.yul\":24329:24334   */\n      dup2\n        /* \"#utility.yul\":24323:24335   */\n      mload\n        /* \"#utility.yul\":24313:24335   */\n      swap1\n      pop\n        /* \"#utility.yul\":24244:24342   */\n      swap2\n      swap1\n      pop\n      jump\t// out\n        /* \"#utility.yul\":24348:24516   */\n    tag_282:\n        /* \"#utility.yul\":24431:24442   */\n      0x00\n        /* \"#utility.yul\":24465:24471   */\n      dup3\n        /* \"#utility.yul\":24460:24463   */\n      dup3\n        /* \"#utility.yul\":24453:24472   */\n      mstore\n        /* \"#utility.yul\":24505:24509   */\n      0x20\n        /* \"#utility.yul\":24500:24503   */\n      dup3\n        /* \"#utility.yul\":24496:24510   */\n      add\n        /* \"#utility.yul\":24481:24510   */\n      swap1\n      pop\n        /* \"#utility.yul\":24348:24516   */\n      swap3\n      swap2\n      pop\n      pop\n      jump\t// out\n        /* \"#utility.yul\":24522:24895   */\n    tag_283:\n        /* \"#utility.yul\":24608:24611   */\n      0x00\n        /* \"#utility.yul\":24636:24674   */\n      tag_517\n        /* \"#utility.yul\":24668:24673   */\n      dup3\n        /* \"#utility.yul\":24636:24674   */\n      tag_281\n      jump\t// in\n    tag_517:\n        /* \"#utility.yul\":24690:24760   */\n      tag_518\n        /* \"#utility.yul\":24753:24759   */\n      dup2\n        /* \"#utility.yul\":24748:24751   */\n      dup6\n        /* \"#utility.yul\":24690:24760   */\n      tag_282\n      jump\t// in\n    tag_518:\n        /* \"#utility.yul\":24683:24760   */\n      swap4\n      pop\n        /* \"#utility.yul\":24769:24834   */\n      tag_519\n        /* \"#utility.yul\":24827:24833   */\n      dup2\n        /* \"#utility.yul\":24822:24825   */\n      dup6\n        /* \"#utility.yul\":24815:24819   */\n      0x20\n        /* \"#utility.yul\":24808:24813   */\n      dup7\n        /* \"#utility.yul\":24804:24820   */\n      add\n        /* \"#utility.yul\":24769:24834   */\n      tag_232\n      jump\t// in\n    tag_519:\n        /* \"#utility.yul\":24859:24888   */\n      tag_520\n        /* \"#utility.yul\":24881:24887   */\n      dup2\n        /* \"#utility.yul\":24859:24888   */\n      tag_233\n      jump\t// in\n    tag_520:\n        /* \"#utility.yul\":24854:24857   */\n      dup5\n        /* \"#utility.yul\":24850:24889   */\n      add\n        /* \"#utility.yul\":24843:24889   */\n      swap2\n      pop\n        /* \"#utility.yul\":24612:24895   */\n      pop\n        /* \"#utility.yul\":24522:24895   */\n      swap3\n      swap2\n      pop\n      pop\n      jump\t// out\n        /* \"#utility.yul\":24901:25541   */\n    tag_215:\n        /* \"#utility.yul\":25096:25100   */\n      0x00\n        /* \"#utility.yul\":25134:25137   */\n      0x80\n        /* \"#utility.yul\":25123:25132   */\n      dup3\n        /* \"#utility.yul\":25119:25138   */\n      add\n        /* \"#utility.yul\":25111:25138   */\n      swap1\n      pop\n        /* \"#utility.yul\":25148:25219   */\n      tag_522\n        /* \"#utility.yul\":25216:25217   */\n      0x00\n        /* \"#utility.yul\":25205:25214   */\n      dup4\n        /* \"#utility.yul\":25201:25218   */\n      add\n        /* \"#utility.yul\":25192:25198   */\n      dup8\n        /* \"#utility.yul\":25148:25219   */\n      tag_240\n      jump\t// in\n    tag_522:\n        /* \"#utility.yul\":25229:25301   */\n      tag_523\n        /* \"#utility.yul\":25297:25299   */\n      0x20\n        /* \"#utility.yul\":25286:25295   */\n      dup4\n        /* \"#utility.yul\":25282:25300   */\n      add\n        /* \"#utility.yul\":25273:25279   */\n      dup7\n        /* \"#utility.yul\":25229:25301   */\n      tag_240\n      jump\t// in\n    tag_523:\n        /* \"#utility.yul\":25311:25383   */\n      tag_524\n        /* \"#utility.yul\":25379:25381   */\n      0x40\n        /* \"#utility.yul\":25368:25377   */\n      dup4\n        /* \"#utility.yul\":25364:25382   */\n      add\n        /* \"#utility.yul\":25355:25361   */\n      dup6\n        /* \"#utility.yul\":25311:25383   */\n      tag_243\n      jump\t// in\n    tag_524:\n        /* \"#utility.yul\":25430:25439   */\n      dup2\n        /* \"#utility.yul\":25424:25428   */\n      dup2\n        /* \"#utility.yul\":25420:25440   */\n      sub\n        /* \"#utility.yul\":25415:25417   */\n      0x60\n        /* \"#utility.yul\":25404:25413   */\n      dup4\n        /* \"#utility.yul\":25400:25418   */\n      add\n        /* \"#utility.yul\":25393:25441   */\n      mstore\n        /* \"#utility.yul\":25458:25534   */\n      tag_525\n        /* \"#utility.yul\":25529:25533   */\n      dup2\n        /* \"#utility.yul\":25520:25526   */\n      dup5\n        /* \"#utility.yul\":25458:25534   */\n      tag_283\n      jump\t// in\n    tag_525:\n        /* \"#utility.yul\":25450:25534   */\n      swap1\n      pop\n        /* \"#utility.yul\":24901:25541   */\n      swap6\n      swap5\n      pop\n      pop\n      pop\n      pop\n      pop\n      jump\t// out\n        /* \"#utility.yul\":25547:25688   */\n    tag_284:\n        /* \"#utility.yul\":25603:25608   */\n      0x00\n        /* \"#utility.yul\":25634:25640   */\n      dup2\n        /* \"#utility.yul\":25628:25641   */\n      mload\n        /* \"#utility.yul\":25619:25641   */\n      swap1\n      pop\n        /* \"#utility.yul\":25650:25682   */\n      tag_527\n        /* \"#utility.yul\":25676:25681   */\n      dup2\n        /* \"#utility.yul\":25650:25682   */\n      tag_226\n      jump\t// in\n    tag_527:\n        /* \"#utility.yul\":25547:25688   */\n      swap3\n      swap2\n      pop\n      pop\n      jump\t// out\n        /* \"#utility.yul\":25694:26043   */\n    tag_219:\n        /* \"#utility.yul\":25763:25769   */\n      0x00\n        /* \"#utility.yul\":25812:25814   */\n      0x20\n        /* \"#utility.yul\":25800:25809   */\n      dup3\n        /* \"#utility.yul\":25791:25798   */\n      dup5\n        /* \"#utility.yul\":25787:25810   */\n      sub\n        /* \"#utility.yul\":25783:25815   */\n      slt\n        /* \"#utility.yul\":25780:25899   */\n      iszero\n      tag_529\n      jumpi\n        /* \"#utility.yul\":25818:25897   */\n      tag_530\n      tag_223\n      jump\t// in\n    tag_530:\n        /* \"#utility.yul\":25780:25899   */\n    tag_529:\n        /* \"#utility.yul\":25938:25939   */\n      0x00\n        /* \"#utility.yul\":25963:26026   */\n      tag_531\n        /* \"#utility.yul\":26018:26025   */\n      dup5\n        /* \"#utility.yul\":26009:26015   */\n      dup3\n        /* \"#utility.yul\":25998:26007   */\n      dup6\n        /* \"#utility.yul\":25994:26016   */\n      add\n        /* \"#utility.yul\":25963:26026   */\n      tag_284\n      jump\t// in\n    tag_531:\n        /* \"#utility.yul\":25953:26026   */\n      swap2\n      pop\n        /* \"#utility.yul\":25909:26036   */\n      pop\n        /* \"#utility.yul\":25694:26043   */\n      swap3\n      swap2\n      pop\n      pop\n      jump\t// out\n    stop\n    data_8382b382247cd07401a2ef2f394137c3f3b0972798bae0a9c78b0c261acbb56b 697066733a2f2f516d65536a53696e4870506e6d586d73704d6a776958794e367a533445397a63636172694752336a7863615774712f\n\n    auxdata: 0xa26469706673582212204656e1c57244570cb89d02ea514b959289c4e28ebd9a53a90411bd71e29430a664736f6c63430008150033\n}\n",
				"bytecode": {
					"linkReferences": {},
					"object": "608060405261271060065534801562000016575f80fd5b50604051620028e6380380620028e683398181016040528101906200003c9190620001f0565b8181815f90816200004e9190620004aa565b508060019081620000609190620004aa565b50505050506200058e565b5f604051905090565b5f80fd5b5f80fd5b5f80fd5b5f80fd5b5f601f19601f8301169050919050565b7f4e487b71000000000000000000000000000000000000000000000000000000005f52604160045260245ffd5b620000cc8262000084565b810181811067ffffffffffffffff82111715620000ee57620000ed62000094565b5b80604052505050565b5f620001026200006b565b9050620001108282620000c1565b919050565b5f67ffffffffffffffff82111562000132576200013162000094565b5b6200013d8262000084565b9050602081019050919050565b5f5b83811015620001695780820151818401526020810190506200014c565b5f8484015250505050565b5f6200018a620001848462000115565b620000f7565b905082815260208101848484011115620001a957620001a862000080565b5b620001b68482856200014a565b509392505050565b5f82601f830112620001d557620001d46200007c565b5b8151620001e784826020860162000174565b91505092915050565b5f806040838503121562000209576200020862000074565b5b5f83015167ffffffffffffffff81111562000229576200022862000078565b5b6200023785828601620001be565b925050602083015167ffffffffffffffff8111156200025b576200025a62000078565b5b6200026985828601620001be565b9150509250929050565b5f81519050919050565b7f4e487b71000000000000000000000000000000000000000000000000000000005f52602260045260245ffd5b5f6002820490506001821680620002c257607f821691505b602082108103620002d857620002d76200027d565b5b50919050565b5f819050815f5260205f209050919050565b5f6020601f8301049050919050565b5f82821b905092915050565b5f600883026200033c7fffffffffffffffffffffffffffffffffffffffffffffffffffffffffffffffff82620002ff565b620003488683620002ff565b95508019841693508086168417925050509392505050565b5f819050919050565b5f819050919050565b5f620003926200038c620003868462000360565b62000369565b62000360565b9050919050565b5f819050919050565b620003ad8362000372565b620003c5620003bc8262000399565b8484546200030b565b825550505050565b5f90565b620003db620003cd565b620003e8818484620003a2565b505050565b5b818110156200040f57620004035f82620003d1565b600181019050620003ee565b5050565b601f8211156200045e576200042881620002de565b6200043384620002f0565b8101602085101562000443578190505b6200045b6200045285620002f0565b830182620003ed565b50505b505050565b5f82821c905092915050565b5f620004805f198460080262000463565b1980831691505092915050565b5f6200049a83836200046f565b9150826002028217905092915050565b620004b58262000273565b67ffffffffffffffff811115620004d157620004d062000094565b5b620004dd8254620002aa565b620004ea82828562000413565b5f60209050601f83116001811462000520575f84156200050b578287015190505b6200051785826200048d565b86555062000586565b601f1984166200053086620002de565b5f5b82811015620005595784890151825560018201915060208501945060208101905062000532565b8683101562000579578489015162000575601f8916826200046f565b8355505b6001600288020188555050505b505050505050565b61234a806200059c5f395ff3fe608060405234801561000f575f80fd5b50600436106100f3575f3560e01c80636352211e11610095578063b88d4fde11610064578063b88d4fde1461027f578063bb8a16bd1461029b578063c87b56dd146102b9578063e985e9c5146102e9576100f3565b80636352211e146101e557806370a082311461021557806395d89b4114610245578063a22cb46514610263576100f3565b8063095ea7b3116100d1578063095ea7b31461017557806323b872dd1461019157806340c10f19146101ad57806342842e0e146101c9576100f3565b806301ffc9a7146100f757806306fdde0314610127578063081812fc14610145575b5f80fd5b610111600480360381019061010c9190611622565b610319565b60405161011e9190611667565b60405180910390f35b61012f610452565b60405161013c919061170a565b60405180910390f35b61015f600480360381019061015a919061175d565b6104dd565b60405161016c91906117c7565b60405180910390f35b61018f600480360381019061018a919061180a565b6105b4565b005b6101ab60048036038101906101a69190611848565b6106f2565b005b6101c760048036038101906101c2919061180a565b61075a565b005b6101e360048036038101906101de9190611848565b6107b8565b005b6101ff60048036038101906101fa919061175d565b6107d7565b60405161020c91906117c7565b60405180910390f35b61022f600480360381019061022a9190611898565b61087e565b60405161023c91906118d2565b60405180910390f35b61024d610932565b60405161025a919061170a565b60405180910390f35b61027d60048036038101906102789190611915565b6109be565b005b61029960048036038101906102949190611a7f565b610ab6565b005b6102a3610b20565b6040516102b091906118d2565b60405180910390f35b6102d360048036038101906102ce919061175d565b610b26565b6040516102e0919061170a565b60405180910390f35b61030360048036038101906102fe9190611aff565b610c20565b6040516103109190611667565b60405180910390f35b5f7f80ac58cd000000000000000000000000000000000000000000000000000000007bffffffffffffffffffffffffffffffffffffffffffffffffffffffff1916827bffffffffffffffffffffffffffffffffffffffffffffffffffffffff191614806103e357507f01ffc9a7000000000000000000000000000000000000000000000000000000007bffffffffffffffffffffffffffffffffffffffffffffffffffffffff1916827bffffffffffffffffffffffffffffffffffffffffffffffffffffffff1916145b8061044b57507f5b5e139f000000000000000000000000000000000000000000000000000000007bffffffffffffffffffffffffffffffffffffffffffffffffffffffff1916827bffffffffffffffffffffffffffffffffffffffffffffffffffffffff1916145b9050919050565b5f805461045e90611b6a565b80601f016020809104026020016040519081016040528092919081815260200182805461048a90611b6a565b80156104d55780601f106104ac576101008083540402835291602001916104d5565b820191905f5260205f20905b8154815290600101906020018083116104b857829003601f168201915b505050505081565b5f8073ffffffffffffffffffffffffffffffffffffffff1660025f8481526020019081526020015f205f9054906101000a900473ffffffffffffffffffffffffffffffffffffffff1673ffffffffffffffffffffffffffffffffffffffff160361057c576040517f08c379a000000000000000000000000000000000000000000000000000000000815260040161057390611be4565b60405180910390fd5b60045f8381526020019081526020015f205f9054906101000a900473ffffffffffffffffffffffffffffffffffffffff169050919050565b5f60025f8381526020019081526020015f205f9054906101000a900473ffffffffffffffffffffffffffffffffffffffff1690508073ffffffffffffffffffffffffffffffffffffffff163373ffffffffffffffffffffffffffffffffffffffff1614806106a3575060055f8273ffffffffffffffffffffffffffffffffffffffff1673ffffffffffffffffffffffffffffffffffffffff1681526020019081526020015f205f3373ffffffffffffffffffffffffffffffffffffffff1673ffffffffffffffffffffffffffffffffffffffff1681526020019081526020015f205f9054906101000a900460ff165b6106e2576040517f08c379a00000000000000000000000000000000000000000000000000000000081526004016106d990611c4c565b60405180910390fd5b6106ed818484610cae565b505050565b5f6106fc826107d7565b9050610709813384610d5d565b610748576040517f08c379a000000000000000000000000000000000000000000000000000000000815260040161073f90611cb4565b60405180910390fd5b61075481858585610e88565b50505050565b5f811015801561076b575060065481105b6107aa576040517f08c379a00000000000000000000000000000000000000000000000000000000081526004016107a190611d1c565b60405180910390fd5b6107b482826110c7565b5050565b6107d283838360405180602001604052805f815250610ab6565b505050565b5f60025f8381526020019081526020015f205f9054906101000a900473ffffffffffffffffffffffffffffffffffffffff1690505f73ffffffffffffffffffffffffffffffffffffffff168173ffffffffffffffffffffffffffffffffffffffff1603610879576040517f08c379a000000000000000000000000000000000000000000000000000000000815260040161087090611be4565b60405180910390fd5b919050565b5f8073ffffffffffffffffffffffffffffffffffffffff168273ffffffffffffffffffffffffffffffffffffffff16036108ed576040517f08c379a00000000000000000000000000000000000000000000000000000000081526004016108e490611d84565b60405180910390fd5b60035f8373ffffffffffffffffffffffffffffffffffffffff1673ffffffffffffffffffffffffffffffffffffffff1681526020019081526020015f20549050919050565b6001805461093f90611b6a565b80601f016020809104026020016040519081016040528092919081815260200182805461096b90611b6a565b80156109b65780601f1061098d576101008083540402835291602001916109b6565b820191905f5260205f20905b81548152906001019060200180831161099957829003601f168201915b505050505081565b8060055f3373ffffffffffffffffffffffffffffffffffffffff1673ffffffffffffffffffffffffffffffffffffffff1681526020019081526020015f205f8473ffffffffffffffffffffffffffffffffffffffff1673ffffffffffffffffffffffffffffffffffffffff1681526020019081526020015f205f6101000a81548160ff0219169083151502179055508173ffffffffffffffffffffffffffffffffffffffff163373ffffffffffffffffffffffffffffffffffffffff167f17307eab39ab6107e8899845ad3d59bd9653f200f220920489ca2b5937696c3183604051610aaa9190611667565b60405180910390a35050565b5f610ac0836107d7565b9050610acd813385610d5d565b610b0c576040517f08c379a0000000000000000000000000000000000000000000000000000000008152600401610b0390611cb4565b60405180910390fd5b610b1981868686866112d5565b5050505050565b60065481565b60605f73ffffffffffffffffffffffffffffffffffffffff1660025f8481526020019081526020015f205f9054906101000a900473ffffffffffffffffffffffffffffffffffffffff1673ffffffffffffffffffffffffffffffffffffffff1603610bc6576040517f08c379a0000000000000000000000000000000000000000000000000000000008152600401610bbd90611dec565b60405180910390fd5b5f610bcf611333565b90505f815111610bed5760405180602001604052805f815250610c18565b80610bf784611353565b604051602001610c08929190611e44565b6040516020818303038152906040525b915050919050565b5f60055f8473ffffffffffffffffffffffffffffffffffffffff1673ffffffffffffffffffffffffffffffffffffffff1681526020019081526020015f205f8373ffffffffffffffffffffffffffffffffffffffff1673ffffffffffffffffffffffffffffffffffffffff1681526020019081526020015f205f9054906101000a900460ff16905092915050565b8160045f8381526020019081526020015f205f6101000a81548173ffffffffffffffffffffffffffffffffffffffff021916908373ffffffffffffffffffffffffffffffffffffffff160217905550808273ffffffffffffffffffffffffffffffffffffffff168473ffffffffffffffffffffffffffffffffffffffff167f8c5be1e5ebec7d5bd14f71427d1e84f3dd0314c0f7b2291e5b200ac8c7c3b92560405160405180910390a4505050565b5f8373ffffffffffffffffffffffffffffffffffffffff168373ffffffffffffffffffffffffffffffffffffffff161480610df357508273ffffffffffffffffffffffffffffffffffffffff1660045f8481526020019081526020015f205f9054906101000a900473ffffffffffffffffffffffffffffffffffffffff1673ffffffffffffffffffffffffffffffffffffffff16145b80610e7f575060055f8573ffffffffffffffffffffffffffffffffffffffff1673ffffffffffffffffffffffffffffffffffffffff1681526020019081526020015f205f8473ffffffffffffffffffffffffffffffffffffffff1673ffffffffffffffffffffffffffffffffffffffff1681526020019081526020015f205f9054906101000a900460ff165b90509392505050565b8373ffffffffffffffffffffffffffffffffffffffff168373ffffffffffffffffffffffffffffffffffffffff1614610ef6576040517f08c379a0000000000000000000000000000000000000000000000000000000008152600401610eed90611eb1565b60405180910390fd5b5f73ffffffffffffffffffffffffffffffffffffffff168273ffffffffffffffffffffffffffffffffffffffff1603610f64576040517f08c379a0000000000000000000000000000000000000000000000000000000008152600401610f5b90611f19565b60405180910390fd5b610f6f845f83610cae565b600160035f8573ffffffffffffffffffffffffffffffffffffffff1673ffffffffffffffffffffffffffffffffffffffff1681526020019081526020015f205f828254610fbc9190611f64565b92505081905550600160035f8473ffffffffffffffffffffffffffffffffffffffff1673ffffffffffffffffffffffffffffffffffffffff1681526020019081526020015f205f8282546110109190611f97565b925050819055508160025f8381526020019081526020015f205f6101000a81548173ffffffffffffffffffffffffffffffffffffffff021916908373ffffffffffffffffffffffffffffffffffffffff160217905550808273ffffffffffffffffffffffffffffffffffffffff168473ffffffffffffffffffffffffffffffffffffffff167fddf252ad1be2c89b69c2b068fc378daa952ba7f163c4a11628f55a4df523b3ef60405160405180910390a450505050565b5f73ffffffffffffffffffffffffffffffffffffffff168273ffffffffffffffffffffffffffffffffffffffff1603611135576040517f08c379a000000000000000000000000000000000000000000000000000000000815260040161112c90612014565b60405180910390fd5b5f73ffffffffffffffffffffffffffffffffffffffff1660025f8381526020019081526020015f205f9054906101000a900473ffffffffffffffffffffffffffffffffffffffff1673ffffffffffffffffffffffffffffffffffffffff16146111d3576040517f08c379a00000000000000000000000000000000000000000000000000000000081526004016111ca9061207c565b60405180910390fd5b600160035f8473ffffffffffffffffffffffffffffffffffffffff1673ffffffffffffffffffffffffffffffffffffffff1681526020019081526020015f205f8282546112209190611f97565b925050819055508160025f8381526020019081526020015f205f6101000a81548173ffffffffffffffffffffffffffffffffffffffff021916908373ffffffffffffffffffffffffffffffffffffffff160217905550808273ffffffffffffffffffffffffffffffffffffffff165f73ffffffffffffffffffffffffffffffffffffffff167fddf252ad1be2c89b69c2b068fc378daa952ba7f163c4a11628f55a4df523b3ef60405160405180910390a45050565b6112e185858585610e88565b6112ed848484846114ac565b61132c576040517f08c379a0000000000000000000000000000000000000000000000000000000008152600401611323906120e4565b60405180910390fd5b5050505050565b60606040518060600160405280603681526020016122df60369139905090565b60605f8203611399576040518060400160405280600181526020017f300000000000000000000000000000000000000000000000000000000000000081525090506114a7565b5f8290505f5b5f82146113c85780806113b190612102565b915050600a826113c19190612176565b915061139f565b5f8167ffffffffffffffff8111156113e3576113e261195b565b5b6040519080825280601f01601f1916602001820160405280156114155781602001600182028036833780820191505090505b5090505b5f85146114a05760018261142d9190611f64565b9150600a8561143c91906121a6565b60306114489190611f97565b60f81b81838151811061145e5761145d6121d6565b5b60200101907effffffffffffffffffffffffffffffffffffffffffffffffffffffffffffff191690815f1a905350600a856114999190612176565b9450611419565b8093505050505b919050565b5f6114cc8473ffffffffffffffffffffffffffffffffffffffff166115ab565b1561159e5763150b7a0260e01b7bffffffffffffffffffffffffffffffffffffffffffffffffffffffff19168473ffffffffffffffffffffffffffffffffffffffff1663150b7a02338887876040518563ffffffff1660e01b81526004016115379493929190612255565b6020604051808303815f875af1158015611553573d5f803e3d5ffd5b505050506040513d601f19601f8201168201806040525081019061157791906122b3565b7bffffffffffffffffffffffffffffffffffffffffffffffffffffffff19161490506115a3565b600190505b949350505050565b5f80823b90505f8111915050919050565b5f604051905090565b5f80fd5b5f80fd5b5f7fffffffff0000000000000000000000000000000000000000000000000000000082169050919050565b611601816115cd565b811461160b575f80fd5b50565b5f8135905061161c816115f8565b92915050565b5f60208284031215611637576116366115c5565b5b5f6116448482850161160e565b91505092915050565b5f8115159050919050565b6116618161164d565b82525050565b5f60208201905061167a5f830184611658565b92915050565b5f81519050919050565b5f82825260208201905092915050565b5f5b838110156116b757808201518184015260208101905061169c565b5f8484015250505050565b5f601f19601f8301169050919050565b5f6116dc82611680565b6116e6818561168a565b93506116f681856020860161169a565b6116ff816116c2565b840191505092915050565b5f6020820190508181035f83015261172281846116d2565b905092915050565b5f819050919050565b61173c8161172a565b8114611746575f80fd5b50565b5f8135905061175781611733565b92915050565b5f60208284031215611772576117716115c5565b5b5f61177f84828501611749565b91505092915050565b5f73ffffffffffffffffffffffffffffffffffffffff82169050919050565b5f6117b182611788565b9050919050565b6117c1816117a7565b82525050565b5f6020820190506117da5f8301846117b8565b92915050565b6117e9816117a7565b81146117f3575f80fd5b50565b5f81359050611804816117e0565b92915050565b5f80604083850312156118205761181f6115c5565b5b5f61182d858286016117f6565b925050602061183e85828601611749565b9150509250929050565b5f805f6060848603121561185f5761185e6115c5565b5b5f61186c868287016117f6565b935050602061187d868287016117f6565b925050604061188e86828701611749565b9150509250925092565b5f602082840312156118ad576118ac6115c5565b5b5f6118ba848285016117f6565b91505092915050565b6118cc8161172a565b82525050565b5f6020820190506118e55f8301846118c3565b92915050565b6118f48161164d565b81146118fe575f80fd5b50565b5f8135905061190f816118eb565b92915050565b5f806040838503121561192b5761192a6115c5565b5b5f611938858286016117f6565b925050602061194985828601611901565b9150509250929050565b5f80fd5b5f80fd5b7f4e487b71000000000000000000000000000000000000000000000000000000005f52604160045260245ffd5b611991826116c2565b810181811067ffffffffffffffff821117156119b0576119af61195b565b5b80604052505050565b5f6119c26115bc565b90506119ce8282611988565b919050565b5f67ffffffffffffffff8211156119ed576119ec61195b565b5b6119f6826116c2565b9050602081019050919050565b828183375f83830152505050565b5f611a23611a1e846119d3565b6119b9565b905082815260208101848484011115611a3f57611a3e611957565b5b611a4a848285611a03565b509392505050565b5f82601f830112611a6657611a65611953565b5b8135611a76848260208601611a11565b91505092915050565b5f805f8060808587031215611a9757611a966115c5565b5b5f611aa4878288016117f6565b9450506020611ab5878288016117f6565b9350506040611ac687828801611749565b925050606085013567ffffffffffffffff811115611ae757611ae66115c9565b5b611af387828801611a52565b91505092959194509250565b5f8060408385031215611b1557611b146115c5565b5b5f611b22858286016117f6565b9250506020611b33858286016117f6565b9150509250929050565b7f4e487b71000000000000000000000000000000000000000000000000000000005f52602260045260245ffd5b5f6002820490506001821680611b8157607f821691505b602082108103611b9457611b93611b3d565b5b50919050565b7f746f6b656e20646f65736e2774206578697374000000000000000000000000005f82015250565b5f611bce60138361168a565b9150611bd982611b9a565b602082019050919050565b5f6020820190508181035f830152611bfb81611bc2565b9050919050565b7f6e6f74206f776e6572206e6f7220617070726f76656420666f7220616c6c00005f82015250565b5f611c36601e8361168a565b9150611c4182611c02565b602082019050919050565b5f6020820190508181035f830152611c6381611c2a565b9050919050565b7f6e6f74206f776e6572206e6f7220617070726f766564000000000000000000005f82015250565b5f611c9e60168361168a565b9150611ca982611c6a565b602082019050919050565b5f6020820190508181035f830152611ccb81611c92565b9050919050565b7f746f6b656e4964206f7574206f662072616e67650000000000000000000000005f82015250565b5f611d0660148361168a565b9150611d1182611cd2565b602082019050919050565b5f6020820190508181035f830152611d3381611cfa565b9050919050565b7f6f776e6572203d207a65726f20616464726573730000000000000000000000005f82015250565b5f611d6e60148361168a565b9150611d7982611d3a565b602082019050919050565b5f6020820190508181035f830152611d9b81611d62565b9050919050565b7f546f6b656e204e6f7420457869737400000000000000000000000000000000005f82015250565b5f611dd6600f8361168a565b9150611de182611da2565b602082019050919050565b5f6020820190508181035f830152611e0381611dca565b9050919050565b5f81905092915050565b5f611e1e82611680565b611e288185611e0a565b9350611e3881856020860161169a565b80840191505092915050565b5f611e4f8285611e14565b9150611e5b8284611e14565b91508190509392505050565b7f6e6f74206f776e657200000000000000000000000000000000000000000000005f82015250565b5f611e9b60098361168a565b9150611ea682611e67565b602082019050919050565b5f6020820190508181035f830152611ec881611e8f565b9050919050565b7f7472616e7366657220746f20746865207a65726f2061646472657373000000005f82015250565b5f611f03601c8361168a565b9150611f0e82611ecf565b602082019050919050565b5f6020820190508181035f830152611f3081611ef7565b9050919050565b7f4e487b71000000000000000000000000000000000000000000000000000000005f52601160045260245ffd5b5f611f6e8261172a565b9150611f798361172a565b9250828203905081811115611f9157611f90611f37565b5b92915050565b5f611fa18261172a565b9150611fac8361172a565b9250828201905080821115611fc457611fc3611f37565b5b92915050565b7f6d696e7420746f207a65726f20616464726573730000000000000000000000005f82015250565b5f611ffe60148361168a565b915061200982611fca565b602082019050919050565b5f6020820190508181035f83015261202b81611ff2565b9050919050565b7f746f6b656e20616c7265616479206d696e7465640000000000000000000000005f82015250565b5f61206660148361168a565b915061207182612032565b602082019050919050565b5f6020820190508181035f8301526120938161205a565b9050919050565b7f6e6f7420455243373231526563656976657200000000000000000000000000005f82015250565b5f6120ce60128361168a565b91506120d98261209a565b602082019050919050565b5f6020820190508181035f8301526120fb816120c2565b9050919050565b5f61210c8261172a565b91507fffffffffffffffffffffffffffffffffffffffffffffffffffffffffffffffff820361213e5761213d611f37565b5b600182019050919050565b7f4e487b71000000000000000000000000000000000000000000000000000000005f52601260045260245ffd5b5f6121808261172a565b915061218b8361172a565b92508261219b5761219a612149565b5b828204905092915050565b5f6121b08261172a565b91506121bb8361172a565b9250826121cb576121ca612149565b5b828206905092915050565b7f4e487b71000000000000000000000000000000000000000000000000000000005f52603260045260245ffd5b5f81519050919050565b5f82825260208201905092915050565b5f61222782612203565b612231818561220d565b935061224181856020860161169a565b61224a816116c2565b840191505092915050565b5f6080820190506122685f8301876117b8565b61227560208301866117b8565b61228260408301856118c3565b8181036060830152612294818461221d565b905095945050505050565b5f815190506122ad816115f8565b92915050565b5f602082840312156122c8576122c76115c5565b5b5f6122d58482850161229f565b9150509291505056fe697066733a2f2f516d65536a53696e4870506e6d586d73704d6a776958794e367a533445397a63636172694752336a7863615774712fa26469706673582212204656e1c57244570cb89d02ea514b959289c4e28ebd9a53a90411bd71e29430a664736f6c63430008150033",
					"opcodes": "PUSH1 0x80 PUSH1 0x40 MSTORE PUSH2 0x2710 PUSH1 0x6 SSTORE CALLVALUE DUP1 ISZERO PUSH3 0x16 JUMPI PUSH0 DUP1 REVERT JUMPDEST POP PUSH1 0x40 MLOAD PUSH3 0x28E6 CODESIZE SUB DUP1 PUSH3 0x28E6 DUP4 CODECOPY DUP2 DUP2 ADD PUSH1 0x40 MSTORE DUP2 ADD SWAP1 PUSH3 0x3C SWAP2 SWAP1 PUSH3 0x1F0 JUMP JUMPDEST DUP2 DUP2 DUP2 PUSH0 SWAP1 DUP2 PUSH3 0x4E SWAP2 SWAP1 PUSH3 0x4AA JUMP JUMPDEST POP DUP1 PUSH1 0x1 SWAP1 DUP2 PUSH3 0x60 SWAP2 SWAP1 PUSH3 0x4AA JUMP JUMPDEST POP POP POP POP POP PUSH3 0x58E JUMP JUMPDEST PUSH0 PUSH1 0x40 MLOAD SWAP1 POP SWAP1 JUMP JUMPDEST PUSH0 DUP1 REVERT JUMPDEST PUSH0 DUP1 REVERT JUMPDEST PUSH0 DUP1 REVERT JUMPDEST PUSH0 DUP1 REVERT JUMPDEST PUSH0 PUSH1 0x1F NOT PUSH1 0x1F DUP4 ADD AND SWAP1 POP SWAP2 SWAP1 POP JUMP JUMPDEST PUSH32 0x4E487B7100000000000000000000000000000000000000000000000000000000 PUSH0 MSTORE PUSH1 0x41 PUSH1 0x4 MSTORE PUSH1 0x24 PUSH0 REVERT JUMPDEST PUSH3 0xCC DUP3 PUSH3 0x84 JUMP JUMPDEST DUP2 ADD DUP2 DUP2 LT PUSH8 0xFFFFFFFFFFFFFFFF DUP3 GT OR ISZERO PUSH3 0xEE JUMPI PUSH3 0xED PUSH3 0x94 JUMP JUMPDEST JUMPDEST DUP1 PUSH1 0x40 MSTORE POP POP POP JUMP JUMPDEST PUSH0 PUSH3 0x102 PUSH3 0x6B JUMP JUMPDEST SWAP1 POP PUSH3 0x110 DUP3 DUP3 PUSH3 0xC1 JUMP JUMPDEST SWAP2 SWAP1 POP JUMP JUMPDEST PUSH0 PUSH8 0xFFFFFFFFFFFFFFFF DUP3 GT ISZERO PUSH3 0x132 JUMPI PUSH3 0x131 PUSH3 0x94 JUMP JUMPDEST JUMPDEST PUSH3 0x13D DUP3 PUSH3 0x84 JUMP JUMPDEST SWAP1 POP PUSH1 0x20 DUP2 ADD SWAP1 POP SWAP2 SWAP1 POP JUMP JUMPDEST PUSH0 JUMPDEST DUP4 DUP2 LT ISZERO PUSH3 0x169 JUMPI DUP1 DUP3 ADD MLOAD DUP2 DUP5 ADD MSTORE PUSH1 0x20 DUP2 ADD SWAP1 POP PUSH3 0x14C JUMP JUMPDEST PUSH0 DUP5 DUP5 ADD MSTORE POP POP POP POP JUMP JUMPDEST PUSH0 PUSH3 0x18A PUSH3 0x184 DUP5 PUSH3 0x115 JUMP JUMPDEST PUSH3 0xF7 JUMP JUMPDEST SWAP1 POP DUP3 DUP2 MSTORE PUSH1 0x20 DUP2 ADD DUP5 DUP5 DUP5 ADD GT ISZERO PUSH3 0x1A9 JUMPI PUSH3 0x1A8 PUSH3 0x80 JUMP JUMPDEST JUMPDEST PUSH3 0x1B6 DUP5 DUP3 DUP6 PUSH3 0x14A JUMP JUMPDEST POP SWAP4 SWAP3 POP POP POP JUMP JUMPDEST PUSH0 DUP3 PUSH1 0x1F DUP4 ADD SLT PUSH3 0x1D5 JUMPI PUSH3 0x1D4 PUSH3 0x7C JUMP JUMPDEST JUMPDEST DUP2 MLOAD PUSH3 0x1E7 DUP5 DUP3 PUSH1 0x20 DUP7 ADD PUSH3 0x174 JUMP JUMPDEST SWAP2 POP POP SWAP3 SWAP2 POP POP JUMP JUMPDEST PUSH0 DUP1 PUSH1 0x40 DUP4 DUP6 SUB SLT ISZERO PUSH3 0x209 JUMPI PUSH3 0x208 PUSH3 0x74 JUMP JUMPDEST JUMPDEST PUSH0 DUP4 ADD MLOAD PUSH8 0xFFFFFFFFFFFFFFFF DUP2 GT ISZERO PUSH3 0x229 JUMPI PUSH3 0x228 PUSH3 0x78 JUMP JUMPDEST JUMPDEST PUSH3 0x237 DUP6 DUP3 DUP7 ADD PUSH3 0x1BE JUMP JUMPDEST SWAP3 POP POP PUSH1 0x20 DUP4 ADD MLOAD PUSH8 0xFFFFFFFFFFFFFFFF DUP2 GT ISZERO PUSH3 0x25B JUMPI PUSH3 0x25A PUSH3 0x78 JUMP JUMPDEST JUMPDEST PUSH3 0x269 DUP6 DUP3 DUP7 ADD PUSH3 0x1BE JUMP JUMPDEST SWAP2 POP POP SWAP3 POP SWAP3 SWAP1 POP JUMP JUMPDEST PUSH0 DUP2 MLOAD SWAP1 POP SWAP2 SWAP1 POP JUMP JUMPDEST PUSH32 0x4E487B7100000000000000000000000000000000000000000000000000000000 PUSH0 MSTORE PUSH1 0x22 PUSH1 0x4 MSTORE PUSH1 0x24 PUSH0 REVERT JUMPDEST PUSH0 PUSH1 0x2 DUP3 DIV SWAP1 POP PUSH1 0x1 DUP3 AND DUP1 PUSH3 0x2C2 JUMPI PUSH1 0x7F DUP3 AND SWAP2 POP JUMPDEST PUSH1 0x20 DUP3 LT DUP2 SUB PUSH3 0x2D8 JUMPI PUSH3 0x2D7 PUSH3 0x27D JUMP JUMPDEST JUMPDEST POP SWAP2 SWAP1 POP JUMP JUMPDEST PUSH0 DUP2 SWAP1 POP DUP2 PUSH0 MSTORE PUSH1 0x20 PUSH0 KECCAK256 SWAP1 POP SWAP2 SWAP1 POP JUMP JUMPDEST PUSH0 PUSH1 0x20 PUSH1 0x1F DUP4 ADD DIV SWAP1 POP SWAP2 SWAP1 POP JUMP JUMPDEST PUSH0 DUP3 DUP3 SHL SWAP1 POP SWAP3 SWAP2 POP POP JUMP JUMPDEST PUSH0 PUSH1 0x8 DUP4 MUL PUSH3 0x33C PUSH32 0xFFFFFFFFFFFFFFFFFFFFFFFFFFFFFFFFFFFFFFFFFFFFFFFFFFFFFFFFFFFFFFFF DUP3 PUSH3 0x2FF JUMP JUMPDEST PUSH3 0x348 DUP7 DUP4 PUSH3 0x2FF JUMP JUMPDEST SWAP6 POP DUP1 NOT DUP5 AND SWAP4 POP DUP1 DUP7 AND DUP5 OR SWAP3 POP POP POP SWAP4 SWAP3 POP POP POP JUMP JUMPDEST PUSH0 DUP2 SWAP1 POP SWAP2 SWAP1 POP JUMP JUMPDEST PUSH0 DUP2 SWAP1 POP SWAP2 SWAP1 POP JUMP JUMPDEST PUSH0 PUSH3 0x392 PUSH3 0x38C PUSH3 0x386 DUP5 PUSH3 0x360 JUMP JUMPDEST PUSH3 0x369 JUMP JUMPDEST PUSH3 0x360 JUMP JUMPDEST SWAP1 POP SWAP2 SWAP1 POP JUMP JUMPDEST PUSH0 DUP2 SWAP1 POP SWAP2 SWAP1 POP JUMP JUMPDEST PUSH3 0x3AD DUP4 PUSH3 0x372 JUMP JUMPDEST PUSH3 0x3C5 PUSH3 0x3BC DUP3 PUSH3 0x399 JUMP JUMPDEST DUP5 DUP5 SLOAD PUSH3 0x30B JUMP JUMPDEST DUP3 SSTORE POP POP POP POP JUMP JUMPDEST PUSH0 SWAP1 JUMP JUMPDEST PUSH3 0x3DB PUSH3 0x3CD JUMP JUMPDEST PUSH3 0x3E8 DUP2 DUP5 DUP5 PUSH3 0x3A2 JUMP JUMPDEST POP POP POP JUMP JUMPDEST JUMPDEST DUP2 DUP2 LT ISZERO PUSH3 0x40F JUMPI PUSH3 0x403 PUSH0 DUP3 PUSH3 0x3D1 JUMP JUMPDEST PUSH1 0x1 DUP2 ADD SWAP1 POP PUSH3 0x3EE JUMP JUMPDEST POP POP JUMP JUMPDEST PUSH1 0x1F DUP3 GT ISZERO PUSH3 0x45E JUMPI PUSH3 0x428 DUP2 PUSH3 0x2DE JUMP JUMPDEST PUSH3 0x433 DUP5 PUSH3 0x2F0 JUMP JUMPDEST DUP2 ADD PUSH1 0x20 DUP6 LT ISZERO PUSH3 0x443 JUMPI DUP2 SWAP1 POP JUMPDEST PUSH3 0x45B PUSH3 0x452 DUP6 PUSH3 0x2F0 JUMP JUMPDEST DUP4 ADD DUP3 PUSH3 0x3ED JUMP JUMPDEST POP POP JUMPDEST POP POP POP JUMP JUMPDEST PUSH0 DUP3 DUP3 SHR SWAP1 POP SWAP3 SWAP2 POP POP JUMP JUMPDEST PUSH0 PUSH3 0x480 PUSH0 NOT DUP5 PUSH1 0x8 MUL PUSH3 0x463 JUMP JUMPDEST NOT DUP1 DUP4 AND SWAP2 POP POP SWAP3 SWAP2 POP POP JUMP JUMPDEST PUSH0 PUSH3 0x49A DUP4 DUP4 PUSH3 0x46F JUMP JUMPDEST SWAP2 POP DUP3 PUSH1 0x2 MUL DUP3 OR SWAP1 POP SWAP3 SWAP2 POP POP JUMP JUMPDEST PUSH3 0x4B5 DUP3 PUSH3 0x273 JUMP JUMPDEST PUSH8 0xFFFFFFFFFFFFFFFF DUP2 GT ISZERO PUSH3 0x4D1 JUMPI PUSH3 0x4D0 PUSH3 0x94 JUMP JUMPDEST JUMPDEST PUSH3 0x4DD DUP3 SLOAD PUSH3 0x2AA JUMP JUMPDEST PUSH3 0x4EA DUP3 DUP3 DUP6 PUSH3 0x413 JUMP JUMPDEST PUSH0 PUSH1 0x20 SWAP1 POP PUSH1 0x1F DUP4 GT PUSH1 0x1 DUP2 EQ PUSH3 0x520 JUMPI PUSH0 DUP5 ISZERO PUSH3 0x50B JUMPI DUP3 DUP8 ADD MLOAD SWAP1 POP JUMPDEST PUSH3 0x517 DUP6 DUP3 PUSH3 0x48D JUMP JUMPDEST DUP7 SSTORE POP PUSH3 0x586 JUMP JUMPDEST PUSH1 0x1F NOT DUP5 AND PUSH3 0x530 DUP7 PUSH3 0x2DE JUMP JUMPDEST PUSH0 JUMPDEST DUP3 DUP2 LT ISZERO PUSH3 0x559 JUMPI DUP5 DUP10 ADD MLOAD DUP3 SSTORE PUSH1 0x1 DUP3 ADD SWAP2 POP PUSH1 0x20 DUP6 ADD SWAP5 POP PUSH1 0x20 DUP2 ADD SWAP1 POP PUSH3 0x532 JUMP JUMPDEST DUP7 DUP4 LT ISZERO PUSH3 0x579 JUMPI DUP5 DUP10 ADD MLOAD PUSH3 0x575 PUSH1 0x1F DUP10 AND DUP3 PUSH3 0x46F JUMP JUMPDEST DUP4 SSTORE POP JUMPDEST PUSH1 0x1 PUSH1 0x2 DUP9 MUL ADD DUP9 SSTORE POP POP POP JUMPDEST POP POP POP POP POP POP JUMP JUMPDEST PUSH2 0x234A DUP1 PUSH3 0x59C PUSH0 CODECOPY PUSH0 RETURN INVALID PUSH1 0x80 PUSH1 0x40 MSTORE CALLVALUE DUP1 ISZERO PUSH2 0xF JUMPI PUSH0 DUP1 REVERT JUMPDEST POP PUSH1 0x4 CALLDATASIZE LT PUSH2 0xF3 JUMPI PUSH0 CALLDATALOAD PUSH1 0xE0 SHR DUP1 PUSH4 0x6352211E GT PUSH2 0x95 JUMPI DUP1 PUSH4 0xB88D4FDE GT PUSH2 0x64 JUMPI DUP1 PUSH4 0xB88D4FDE EQ PUSH2 0x27F JUMPI DUP1 PUSH4 0xBB8A16BD EQ PUSH2 0x29B JUMPI DUP1 PUSH4 0xC87B56DD EQ PUSH2 0x2B9 JUMPI DUP1 PUSH4 0xE985E9C5 EQ PUSH2 0x2E9 JUMPI PUSH2 0xF3 JUMP JUMPDEST DUP1 PUSH4 0x6352211E EQ PUSH2 0x1E5 JUMPI DUP1 PUSH4 0x70A08231 EQ PUSH2 0x215 JUMPI DUP1 PUSH4 0x95D89B41 EQ PUSH2 0x245 JUMPI DUP1 PUSH4 0xA22CB465 EQ PUSH2 0x263 JUMPI PUSH2 0xF3 JUMP JUMPDEST DUP1 PUSH4 0x95EA7B3 GT PUSH2 0xD1 JUMPI DUP1 PUSH4 0x95EA7B3 EQ PUSH2 0x175 JUMPI DUP1 PUSH4 0x23B872DD EQ PUSH2 0x191 JUMPI DUP1 PUSH4 0x40C10F19 EQ PUSH2 0x1AD JUMPI DUP1 PUSH4 0x42842E0E EQ PUSH2 0x1C9 JUMPI PUSH2 0xF3 JUMP JUMPDEST DUP1 PUSH4 0x1FFC9A7 EQ PUSH2 0xF7 JUMPI DUP1 PUSH4 0x6FDDE03 EQ PUSH2 0x127 JUMPI DUP1 PUSH4 0x81812FC EQ PUSH2 0x145 JUMPI JUMPDEST PUSH0 DUP1 REVERT JUMPDEST PUSH2 0x111 PUSH1 0x4 DUP1 CALLDATASIZE SUB DUP2 ADD SWAP1 PUSH2 0x10C SWAP2 SWAP1 PUSH2 0x1622 JUMP JUMPDEST PUSH2 0x319 JUMP JUMPDEST PUSH1 0x40 MLOAD PUSH2 0x11E SWAP2 SWAP1 PUSH2 0x1667 JUMP JUMPDEST PUSH1 0x40 MLOAD DUP1 SWAP2 SUB SWAP1 RETURN JUMPDEST PUSH2 0x12F PUSH2 0x452 JUMP JUMPDEST PUSH1 0x40 MLOAD PUSH2 0x13C SWAP2 SWAP1 PUSH2 0x170A JUMP JUMPDEST PUSH1 0x40 MLOAD DUP1 SWAP2 SUB SWAP1 RETURN JUMPDEST PUSH2 0x15F PUSH1 0x4 DUP1 CALLDATASIZE SUB DUP2 ADD SWAP1 PUSH2 0x15A SWAP2 SWAP1 PUSH2 0x175D JUMP JUMPDEST PUSH2 0x4DD JUMP JUMPDEST PUSH1 0x40 MLOAD PUSH2 0x16C SWAP2 SWAP1 PUSH2 0x17C7 JUMP JUMPDEST PUSH1 0x40 MLOAD DUP1 SWAP2 SUB SWAP1 RETURN JUMPDEST PUSH2 0x18F PUSH1 0x4 DUP1 CALLDATASIZE SUB DUP2 ADD SWAP1 PUSH2 0x18A SWAP2 SWAP1 PUSH2 0x180A JUMP JUMPDEST PUSH2 0x5B4 JUMP JUMPDEST STOP JUMPDEST PUSH2 0x1AB PUSH1 0x4 DUP1 CALLDATASIZE SUB DUP2 ADD SWAP1 PUSH2 0x1A6 SWAP2 SWAP1 PUSH2 0x1848 JUMP JUMPDEST PUSH2 0x6F2 JUMP JUMPDEST STOP JUMPDEST PUSH2 0x1C7 PUSH1 0x4 DUP1 CALLDATASIZE SUB DUP2 ADD SWAP1 PUSH2 0x1C2 SWAP2 SWAP1 PUSH2 0x180A JUMP JUMPDEST PUSH2 0x75A JUMP JUMPDEST STOP JUMPDEST PUSH2 0x1E3 PUSH1 0x4 DUP1 CALLDATASIZE SUB DUP2 ADD SWAP1 PUSH2 0x1DE SWAP2 SWAP1 PUSH2 0x1848 JUMP JUMPDEST PUSH2 0x7B8 JUMP JUMPDEST STOP JUMPDEST PUSH2 0x1FF PUSH1 0x4 DUP1 CALLDATASIZE SUB DUP2 ADD SWAP1 PUSH2 0x1FA SWAP2 SWAP1 PUSH2 0x175D JUMP JUMPDEST PUSH2 0x7D7 JUMP JUMPDEST PUSH1 0x40 MLOAD PUSH2 0x20C SWAP2 SWAP1 PUSH2 0x17C7 JUMP JUMPDEST PUSH1 0x40 MLOAD DUP1 SWAP2 SUB SWAP1 RETURN JUMPDEST PUSH2 0x22F PUSH1 0x4 DUP1 CALLDATASIZE SUB DUP2 ADD SWAP1 PUSH2 0x22A SWAP2 SWAP1 PUSH2 0x1898 JUMP JUMPDEST PUSH2 0x87E JUMP JUMPDEST PUSH1 0x40 MLOAD PUSH2 0x23C SWAP2 SWAP1 PUSH2 0x18D2 JUMP JUMPDEST PUSH1 0x40 MLOAD DUP1 SWAP2 SUB SWAP1 RETURN JUMPDEST PUSH2 0x24D PUSH2 0x932 JUMP JUMPDEST PUSH1 0x40 MLOAD PUSH2 0x25A SWAP2 SWAP1 PUSH2 0x170A JUMP JUMPDEST PUSH1 0x40 MLOAD DUP1 SWAP2 SUB SWAP1 RETURN JUMPDEST PUSH2 0x27D PUSH1 0x4 DUP1 CALLDATASIZE SUB DUP2 ADD SWAP1 PUSH2 0x278 SWAP2 SWAP1 PUSH2 0x1915 JUMP JUMPDEST PUSH2 0x9BE JUMP JUMPDEST STOP JUMPDEST PUSH2 0x299 PUSH1 0x4 DUP1 CALLDATASIZE SUB DUP2 ADD SWAP1 PUSH2 0x294 SWAP2 SWAP1 PUSH2 0x1A7F JUMP JUMPDEST PUSH2 0xAB6 JUMP JUMPDEST STOP JUMPDEST PUSH2 0x2A3 PUSH2 0xB20 JUMP JUMPDEST PUSH1 0x40 MLOAD PUSH2 0x2B0 SWAP2 SWAP1 PUSH2 0x18D2 JUMP JUMPDEST PUSH1 0x40 MLOAD DUP1 SWAP2 SUB SWAP1 RETURN JUMPDEST PUSH2 0x2D3 PUSH1 0x4 DUP1 CALLDATASIZE SUB DUP2 ADD SWAP1 PUSH2 0x2CE SWAP2 SWAP1 PUSH2 0x175D JUMP JUMPDEST PUSH2 0xB26 JUMP JUMPDEST PUSH1 0x40 MLOAD PUSH2 0x2E0 SWAP2 SWAP1 PUSH2 0x170A JUMP JUMPDEST PUSH1 0x40 MLOAD DUP1 SWAP2 SUB SWAP1 RETURN JUMPDEST PUSH2 0x303 PUSH1 0x4 DUP1 CALLDATASIZE SUB DUP2 ADD SWAP1 PUSH2 0x2FE SWAP2 SWAP1 PUSH2 0x1AFF JUMP JUMPDEST PUSH2 0xC20 JUMP JUMPDEST PUSH1 0x40 MLOAD PUSH2 0x310 SWAP2 SWAP1 PUSH2 0x1667 JUMP JUMPDEST PUSH1 0x40 MLOAD DUP1 SWAP2 SUB SWAP1 RETURN JUMPDEST PUSH0 PUSH32 0x80AC58CD00000000000000000000000000000000000000000000000000000000 PUSH28 0xFFFFFFFFFFFFFFFFFFFFFFFFFFFFFFFFFFFFFFFFFFFFFFFFFFFFFFFF NOT AND DUP3 PUSH28 0xFFFFFFFFFFFFFFFFFFFFFFFFFFFFFFFFFFFFFFFFFFFFFFFFFFFFFFFF NOT AND EQ DUP1 PUSH2 0x3E3 JUMPI POP PUSH32 0x1FFC9A700000000000000000000000000000000000000000000000000000000 PUSH28 0xFFFFFFFFFFFFFFFFFFFFFFFFFFFFFFFFFFFFFFFFFFFFFFFFFFFFFFFF NOT AND DUP3 PUSH28 0xFFFFFFFFFFFFFFFFFFFFFFFFFFFFFFFFFFFFFFFFFFFFFFFFFFFFFFFF NOT AND EQ JUMPDEST DUP1 PUSH2 0x44B JUMPI POP PUSH32 0x5B5E139F00000000000000000000000000000000000000000000000000000000 PUSH28 0xFFFFFFFFFFFFFFFFFFFFFFFFFFFFFFFFFFFFFFFFFFFFFFFFFFFFFFFF NOT AND DUP3 PUSH28 0xFFFFFFFFFFFFFFFFFFFFFFFFFFFFFFFFFFFFFFFFFFFFFFFFFFFFFFFF NOT AND EQ JUMPDEST SWAP1 POP SWAP2 SWAP1 POP JUMP JUMPDEST PUSH0 DUP1 SLOAD PUSH2 0x45E SWAP1 PUSH2 0x1B6A JUMP JUMPDEST DUP1 PUSH1 0x1F ADD PUSH1 0x20 DUP1 SWAP2 DIV MUL PUSH1 0x20 ADD PUSH1 0x40 MLOAD SWAP1 DUP2 ADD PUSH1 0x40 MSTORE DUP1 SWAP3 SWAP2 SWAP1 DUP2 DUP2 MSTORE PUSH1 0x20 ADD DUP3 DUP1 SLOAD PUSH2 0x48A SWAP1 PUSH2 0x1B6A JUMP JUMPDEST DUP1 ISZERO PUSH2 0x4D5 JUMPI DUP1 PUSH1 0x1F LT PUSH2 0x4AC JUMPI PUSH2 0x100 DUP1 DUP4 SLOAD DIV MUL DUP4 MSTORE SWAP2 PUSH1 0x20 ADD SWAP2 PUSH2 0x4D5 JUMP JUMPDEST DUP3 ADD SWAP2 SWAP1 PUSH0 MSTORE PUSH1 0x20 PUSH0 KECCAK256 SWAP1 JUMPDEST DUP2 SLOAD DUP2 MSTORE SWAP1 PUSH1 0x1 ADD SWAP1 PUSH1 0x20 ADD DUP1 DUP4 GT PUSH2 0x4B8 JUMPI DUP3 SWAP1 SUB PUSH1 0x1F AND DUP3 ADD SWAP2 JUMPDEST POP POP POP POP POP DUP2 JUMP JUMPDEST PUSH0 DUP1 PUSH20 0xFFFFFFFFFFFFFFFFFFFFFFFFFFFFFFFFFFFFFFFF AND PUSH1 0x2 PUSH0 DUP5 DUP2 MSTORE PUSH1 0x20 ADD SWAP1 DUP2 MSTORE PUSH1 0x20 ADD PUSH0 KECCAK256 PUSH0 SWAP1 SLOAD SWAP1 PUSH2 0x100 EXP SWAP1 DIV PUSH20 0xFFFFFFFFFFFFFFFFFFFFFFFFFFFFFFFFFFFFFFFF AND PUSH20 0xFFFFFFFFFFFFFFFFFFFFFFFFFFFFFFFFFFFFFFFF AND SUB PUSH2 0x57C JUMPI PUSH1 0x40 MLOAD PUSH32 0x8C379A000000000000000000000000000000000000000000000000000000000 DUP2 MSTORE PUSH1 0x4 ADD PUSH2 0x573 SWAP1 PUSH2 0x1BE4 JUMP JUMPDEST PUSH1 0x40 MLOAD DUP1 SWAP2 SUB SWAP1 REVERT JUMPDEST PUSH1 0x4 PUSH0 DUP4 DUP2 MSTORE PUSH1 0x20 ADD SWAP1 DUP2 MSTORE PUSH1 0x20 ADD PUSH0 KECCAK256 PUSH0 SWAP1 SLOAD SWAP1 PUSH2 0x100 EXP SWAP1 DIV PUSH20 0xFFFFFFFFFFFFFFFFFFFFFFFFFFFFFFFFFFFFFFFF AND SWAP1 POP SWAP2 SWAP1 POP JUMP JUMPDEST PUSH0 PUSH1 0x2 PUSH0 DUP4 DUP2 MSTORE PUSH1 0x20 ADD SWAP1 DUP2 MSTORE PUSH1 0x20 ADD PUSH0 KECCAK256 PUSH0 SWAP1 SLOAD SWAP1 PUSH2 0x100 EXP SWAP1 DIV PUSH20 0xFFFFFFFFFFFFFFFFFFFFFFFFFFFFFFFFFFFFFFFF AND SWAP1 POP DUP1 PUSH20 0xFFFFFFFFFFFFFFFFFFFFFFFFFFFFFFFFFFFFFFFF AND CALLER PUSH20 0xFFFFFFFFFFFFFFFFFFFFFFFFFFFFFFFFFFFFFFFF AND EQ DUP1 PUSH2 0x6A3 JUMPI POP PUSH1 0x5 PUSH0 DUP3 PUSH20 0xFFFFFFFFFFFFFFFFFFFFFFFFFFFFFFFFFFFFFFFF AND PUSH20 0xFFFFFFFFFFFFFFFFFFFFFFFFFFFFFFFFFFFFFFFF AND DUP2 MSTORE PUSH1 0x20 ADD SWAP1 DUP2 MSTORE PUSH1 0x20 ADD PUSH0 KECCAK256 PUSH0 CALLER PUSH20 0xFFFFFFFFFFFFFFFFFFFFFFFFFFFFFFFFFFFFFFFF AND PUSH20 0xFFFFFFFFFFFFFFFFFFFFFFFFFFFFFFFFFFFFFFFF AND DUP2 MSTORE PUSH1 0x20 ADD SWAP1 DUP2 MSTORE PUSH1 0x20 ADD PUSH0 KECCAK256 PUSH0 SWAP1 SLOAD SWAP1 PUSH2 0x100 EXP SWAP1 DIV PUSH1 0xFF AND JUMPDEST PUSH2 0x6E2 JUMPI PUSH1 0x40 MLOAD PUSH32 0x8C379A000000000000000000000000000000000000000000000000000000000 DUP2 MSTORE PUSH1 0x4 ADD PUSH2 0x6D9 SWAP1 PUSH2 0x1C4C JUMP JUMPDEST PUSH1 0x40 MLOAD DUP1 SWAP2 SUB SWAP1 REVERT JUMPDEST PUSH2 0x6ED DUP2 DUP5 DUP5 PUSH2 0xCAE JUMP JUMPDEST POP POP POP JUMP JUMPDEST PUSH0 PUSH2 0x6FC DUP3 PUSH2 0x7D7 JUMP JUMPDEST SWAP1 POP PUSH2 0x709 DUP2 CALLER DUP5 PUSH2 0xD5D JUMP JUMPDEST PUSH2 0x748 JUMPI PUSH1 0x40 MLOAD PUSH32 0x8C379A000000000000000000000000000000000000000000000000000000000 DUP2 MSTORE PUSH1 0x4 ADD PUSH2 0x73F SWAP1 PUSH2 0x1CB4 JUMP JUMPDEST PUSH1 0x40 MLOAD DUP1 SWAP2 SUB SWAP1 REVERT JUMPDEST PUSH2 0x754 DUP2 DUP6 DUP6 DUP6 PUSH2 0xE88 JUMP JUMPDEST POP POP POP POP JUMP JUMPDEST PUSH0 DUP2 LT ISZERO DUP1 ISZERO PUSH2 0x76B JUMPI POP PUSH1 0x6 SLOAD DUP2 LT JUMPDEST PUSH2 0x7AA JUMPI PUSH1 0x40 MLOAD PUSH32 0x8C379A000000000000000000000000000000000000000000000000000000000 DUP2 MSTORE PUSH1 0x4 ADD PUSH2 0x7A1 SWAP1 PUSH2 0x1D1C JUMP JUMPDEST PUSH1 0x40 MLOAD DUP1 SWAP2 SUB SWAP1 REVERT JUMPDEST PUSH2 0x7B4 DUP3 DUP3 PUSH2 0x10C7 JUMP JUMPDEST POP POP JUMP JUMPDEST PUSH2 0x7D2 DUP4 DUP4 DUP4 PUSH1 0x40 MLOAD DUP1 PUSH1 0x20 ADD PUSH1 0x40 MSTORE DUP1 PUSH0 DUP2 MSTORE POP PUSH2 0xAB6 JUMP JUMPDEST POP POP POP JUMP JUMPDEST PUSH0 PUSH1 0x2 PUSH0 DUP4 DUP2 MSTORE PUSH1 0x20 ADD SWAP1 DUP2 MSTORE PUSH1 0x20 ADD PUSH0 KECCAK256 PUSH0 SWAP1 SLOAD SWAP1 PUSH2 0x100 EXP SWAP1 DIV PUSH20 0xFFFFFFFFFFFFFFFFFFFFFFFFFFFFFFFFFFFFFFFF AND SWAP1 POP PUSH0 PUSH20 0xFFFFFFFFFFFFFFFFFFFFFFFFFFFFFFFFFFFFFFFF AND DUP2 PUSH20 0xFFFFFFFFFFFFFFFFFFFFFFFFFFFFFFFFFFFFFFFF AND SUB PUSH2 0x879 JUMPI PUSH1 0x40 MLOAD PUSH32 0x8C379A000000000000000000000000000000000000000000000000000000000 DUP2 MSTORE PUSH1 0x4 ADD PUSH2 0x870 SWAP1 PUSH2 0x1BE4 JUMP JUMPDEST PUSH1 0x40 MLOAD DUP1 SWAP2 SUB SWAP1 REVERT JUMPDEST SWAP2 SWAP1 POP JUMP JUMPDEST PUSH0 DUP1 PUSH20 0xFFFFFFFFFFFFFFFFFFFFFFFFFFFFFFFFFFFFFFFF AND DUP3 PUSH20 0xFFFFFFFFFFFFFFFFFFFFFFFFFFFFFFFFFFFFFFFF AND SUB PUSH2 0x8ED JUMPI PUSH1 0x40 MLOAD PUSH32 0x8C379A000000000000000000000000000000000000000000000000000000000 DUP2 MSTORE PUSH1 0x4 ADD PUSH2 0x8E4 SWAP1 PUSH2 0x1D84 JUMP JUMPDEST PUSH1 0x40 MLOAD DUP1 SWAP2 SUB SWAP1 REVERT JUMPDEST PUSH1 0x3 PUSH0 DUP4 PUSH20 0xFFFFFFFFFFFFFFFFFFFFFFFFFFFFFFFFFFFFFFFF AND PUSH20 0xFFFFFFFFFFFFFFFFFFFFFFFFFFFFFFFFFFFFFFFF AND DUP2 MSTORE PUSH1 0x20 ADD SWAP1 DUP2 MSTORE PUSH1 0x20 ADD PUSH0 KECCAK256 SLOAD SWAP1 POP SWAP2 SWAP1 POP JUMP JUMPDEST PUSH1 0x1 DUP1 SLOAD PUSH2 0x93F SWAP1 PUSH2 0x1B6A JUMP JUMPDEST DUP1 PUSH1 0x1F ADD PUSH1 0x20 DUP1 SWAP2 DIV MUL PUSH1 0x20 ADD PUSH1 0x40 MLOAD SWAP1 DUP2 ADD PUSH1 0x40 MSTORE DUP1 SWAP3 SWAP2 SWAP1 DUP2 DUP2 MSTORE PUSH1 0x20 ADD DUP3 DUP1 SLOAD PUSH2 0x96B SWAP1 PUSH2 0x1B6A JUMP JUMPDEST DUP1 ISZERO PUSH2 0x9B6 JUMPI DUP1 PUSH1 0x1F LT PUSH2 0x98D JUMPI PUSH2 0x100 DUP1 DUP4 SLOAD DIV MUL DUP4 MSTORE SWAP2 PUSH1 0x20 ADD SWAP2 PUSH2 0x9B6 JUMP JUMPDEST DUP3 ADD SWAP2 SWAP1 PUSH0 MSTORE PUSH1 0x20 PUSH0 KECCAK256 SWAP1 JUMPDEST DUP2 SLOAD DUP2 MSTORE SWAP1 PUSH1 0x1 ADD SWAP1 PUSH1 0x20 ADD DUP1 DUP4 GT PUSH2 0x999 JUMPI DUP3 SWAP1 SUB PUSH1 0x1F AND DUP3 ADD SWAP2 JUMPDEST POP POP POP POP POP DUP2 JUMP JUMPDEST DUP1 PUSH1 0x5 PUSH0 CALLER PUSH20 0xFFFFFFFFFFFFFFFFFFFFFFFFFFFFFFFFFFFFFFFF AND PUSH20 0xFFFFFFFFFFFFFFFFFFFFFFFFFFFFFFFFFFFFFFFF AND DUP2 MSTORE PUSH1 0x20 ADD SWAP1 DUP2 MSTORE PUSH1 0x20 ADD PUSH0 KECCAK256 PUSH0 DUP5 PUSH20 0xFFFFFFFFFFFFFFFFFFFFFFFFFFFFFFFFFFFFFFFF AND PUSH20 0xFFFFFFFFFFFFFFFFFFFFFFFFFFFFFFFFFFFFFFFF AND DUP2 MSTORE PUSH1 0x20 ADD SWAP1 DUP2 MSTORE PUSH1 0x20 ADD PUSH0 KECCAK256 PUSH0 PUSH2 0x100 EXP DUP2 SLOAD DUP2 PUSH1 0xFF MUL NOT AND SWAP1 DUP4 ISZERO ISZERO MUL OR SWAP1 SSTORE POP DUP2 PUSH20 0xFFFFFFFFFFFFFFFFFFFFFFFFFFFFFFFFFFFFFFFF AND CALLER PUSH20 0xFFFFFFFFFFFFFFFFFFFFFFFFFFFFFFFFFFFFFFFF AND PUSH32 0x17307EAB39AB6107E8899845AD3D59BD9653F200F220920489CA2B5937696C31 DUP4 PUSH1 0x40 MLOAD PUSH2 0xAAA SWAP2 SWAP1 PUSH2 0x1667 JUMP JUMPDEST PUSH1 0x40 MLOAD DUP1 SWAP2 SUB SWAP1 LOG3 POP POP JUMP JUMPDEST PUSH0 PUSH2 0xAC0 DUP4 PUSH2 0x7D7 JUMP JUMPDEST SWAP1 POP PUSH2 0xACD DUP2 CALLER DUP6 PUSH2 0xD5D JUMP JUMPDEST PUSH2 0xB0C JUMPI PUSH1 0x40 MLOAD PUSH32 0x8C379A000000000000000000000000000000000000000000000000000000000 DUP2 MSTORE PUSH1 0x4 ADD PUSH2 0xB03 SWAP1 PUSH2 0x1CB4 JUMP JUMPDEST PUSH1 0x40 MLOAD DUP1 SWAP2 SUB SWAP1 REVERT JUMPDEST PUSH2 0xB19 DUP2 DUP7 DUP7 DUP7 DUP7 PUSH2 0x12D5 JUMP JUMPDEST POP POP POP POP POP JUMP JUMPDEST PUSH1 0x6 SLOAD DUP2 JUMP JUMPDEST PUSH1 0x60 PUSH0 PUSH20 0xFFFFFFFFFFFFFFFFFFFFFFFFFFFFFFFFFFFFFFFF AND PUSH1 0x2 PUSH0 DUP5 DUP2 MSTORE PUSH1 0x20 ADD SWAP1 DUP2 MSTORE PUSH1 0x20 ADD PUSH0 KECCAK256 PUSH0 SWAP1 SLOAD SWAP1 PUSH2 0x100 EXP SWAP1 DIV PUSH20 0xFFFFFFFFFFFFFFFFFFFFFFFFFFFFFFFFFFFFFFFF AND PUSH20 0xFFFFFFFFFFFFFFFFFFFFFFFFFFFFFFFFFFFFFFFF AND SUB PUSH2 0xBC6 JUMPI PUSH1 0x40 MLOAD PUSH32 0x8C379A000000000000000000000000000000000000000000000000000000000 DUP2 MSTORE PUSH1 0x4 ADD PUSH2 0xBBD SWAP1 PUSH2 0x1DEC JUMP JUMPDEST PUSH1 0x40 MLOAD DUP1 SWAP2 SUB SWAP1 REVERT JUMPDEST PUSH0 PUSH2 0xBCF PUSH2 0x1333 JUMP JUMPDEST SWAP1 POP PUSH0 DUP2 MLOAD GT PUSH2 0xBED JUMPI PUSH1 0x40 MLOAD DUP1 PUSH1 0x20 ADD PUSH1 0x40 MSTORE DUP1 PUSH0 DUP2 MSTORE POP PUSH2 0xC18 JUMP JUMPDEST DUP1 PUSH2 0xBF7 DUP5 PUSH2 0x1353 JUMP JUMPDEST PUSH1 0x40 MLOAD PUSH1 0x20 ADD PUSH2 0xC08 SWAP3 SWAP2 SWAP1 PUSH2 0x1E44 JUMP JUMPDEST PUSH1 0x40 MLOAD PUSH1 0x20 DUP2 DUP4 SUB SUB DUP2 MSTORE SWAP1 PUSH1 0x40 MSTORE JUMPDEST SWAP2 POP POP SWAP2 SWAP1 POP JUMP JUMPDEST PUSH0 PUSH1 0x5 PUSH0 DUP5 PUSH20 0xFFFFFFFFFFFFFFFFFFFFFFFFFFFFFFFFFFFFFFFF AND PUSH20 0xFFFFFFFFFFFFFFFFFFFFFFFFFFFFFFFFFFFFFFFF AND DUP2 MSTORE PUSH1 0x20 ADD SWAP1 DUP2 MSTORE PUSH1 0x20 ADD PUSH0 KECCAK256 PUSH0 DUP4 PUSH20 0xFFFFFFFFFFFFFFFFFFFFFFFFFFFFFFFFFFFFFFFF AND PUSH20 0xFFFFFFFFFFFFFFFFFFFFFFFFFFFFFFFFFFFFFFFF AND DUP2 MSTORE PUSH1 0x20 ADD SWAP1 DUP2 MSTORE PUSH1 0x20 ADD PUSH0 KECCAK256 PUSH0 SWAP1 SLOAD SWAP1 PUSH2 0x100 EXP SWAP1 DIV PUSH1 0xFF AND SWAP1 POP SWAP3 SWAP2 POP POP JUMP JUMPDEST DUP2 PUSH1 0x4 PUSH0 DUP4 DUP2 MSTORE PUSH1 0x20 ADD SWAP1 DUP2 MSTORE PUSH1 0x20 ADD PUSH0 KECCAK256 PUSH0 PUSH2 0x100 EXP DUP2 SLOAD DUP2 PUSH20 0xFFFFFFFFFFFFFFFFFFFFFFFFFFFFFFFFFFFFFFFF MUL NOT AND SWAP1 DUP4 PUSH20 0xFFFFFFFFFFFFFFFFFFFFFFFFFFFFFFFFFFFFFFFF AND MUL OR SWAP1 SSTORE POP DUP1 DUP3 PUSH20 0xFFFFFFFFFFFFFFFFFFFFFFFFFFFFFFFFFFFFFFFF AND DUP5 PUSH20 0xFFFFFFFFFFFFFFFFFFFFFFFFFFFFFFFFFFFFFFFF AND PUSH32 0x8C5BE1E5EBEC7D5BD14F71427D1E84F3DD0314C0F7B2291E5B200AC8C7C3B925 PUSH1 0x40 MLOAD PUSH1 0x40 MLOAD DUP1 SWAP2 SUB SWAP1 LOG4 POP POP POP JUMP JUMPDEST PUSH0 DUP4 PUSH20 0xFFFFFFFFFFFFFFFFFFFFFFFFFFFFFFFFFFFFFFFF AND DUP4 PUSH20 0xFFFFFFFFFFFFFFFFFFFFFFFFFFFFFFFFFFFFFFFF AND EQ DUP1 PUSH2 0xDF3 JUMPI POP DUP3 PUSH20 0xFFFFFFFFFFFFFFFFFFFFFFFFFFFFFFFFFFFFFFFF AND PUSH1 0x4 PUSH0 DUP5 DUP2 MSTORE PUSH1 0x20 ADD SWAP1 DUP2 MSTORE PUSH1 0x20 ADD PUSH0 KECCAK256 PUSH0 SWAP1 SLOAD SWAP1 PUSH2 0x100 EXP SWAP1 DIV PUSH20 0xFFFFFFFFFFFFFFFFFFFFFFFFFFFFFFFFFFFFFFFF AND PUSH20 0xFFFFFFFFFFFFFFFFFFFFFFFFFFFFFFFFFFFFFFFF AND EQ JUMPDEST DUP1 PUSH2 0xE7F JUMPI POP PUSH1 0x5 PUSH0 DUP6 PUSH20 0xFFFFFFFFFFFFFFFFFFFFFFFFFFFFFFFFFFFFFFFF AND PUSH20 0xFFFFFFFFFFFFFFFFFFFFFFFFFFFFFFFFFFFFFFFF AND DUP2 MSTORE PUSH1 0x20 ADD SWAP1 DUP2 MSTORE PUSH1 0x20 ADD PUSH0 KECCAK256 PUSH0 DUP5 PUSH20 0xFFFFFFFFFFFFFFFFFFFFFFFFFFFFFFFFFFFFFFFF AND PUSH20 0xFFFFFFFFFFFFFFFFFFFFFFFFFFFFFFFFFFFFFFFF AND DUP2 MSTORE PUSH1 0x20 ADD SWAP1 DUP2 MSTORE PUSH1 0x20 ADD PUSH0 KECCAK256 PUSH0 SWAP1 SLOAD SWAP1 PUSH2 0x100 EXP SWAP1 DIV PUSH1 0xFF AND JUMPDEST SWAP1 POP SWAP4 SWAP3 POP POP POP JUMP JUMPDEST DUP4 PUSH20 0xFFFFFFFFFFFFFFFFFFFFFFFFFFFFFFFFFFFFFFFF AND DUP4 PUSH20 0xFFFFFFFFFFFFFFFFFFFFFFFFFFFFFFFFFFFFFFFF AND EQ PUSH2 0xEF6 JUMPI PUSH1 0x40 MLOAD PUSH32 0x8C379A000000000000000000000000000000000000000000000000000000000 DUP2 MSTORE PUSH1 0x4 ADD PUSH2 0xEED SWAP1 PUSH2 0x1EB1 JUMP JUMPDEST PUSH1 0x40 MLOAD DUP1 SWAP2 SUB SWAP1 REVERT JUMPDEST PUSH0 PUSH20 0xFFFFFFFFFFFFFFFFFFFFFFFFFFFFFFFFFFFFFFFF AND DUP3 PUSH20 0xFFFFFFFFFFFFFFFFFFFFFFFFFFFFFFFFFFFFFFFF AND SUB PUSH2 0xF64 JUMPI PUSH1 0x40 MLOAD PUSH32 0x8C379A000000000000000000000000000000000000000000000000000000000 DUP2 MSTORE PUSH1 0x4 ADD PUSH2 0xF5B SWAP1 PUSH2 0x1F19 JUMP JUMPDEST PUSH1 0x40 MLOAD DUP1 SWAP2 SUB SWAP1 REVERT JUMPDEST PUSH2 0xF6F DUP5 PUSH0 DUP4 PUSH2 0xCAE JUMP JUMPDEST PUSH1 0x1 PUSH1 0x3 PUSH0 DUP6 PUSH20 0xFFFFFFFFFFFFFFFFFFFFFFFFFFFFFFFFFFFFFFFF AND PUSH20 0xFFFFFFFFFFFFFFFFFFFFFFFFFFFFFFFFFFFFFFFF AND DUP2 MSTORE PUSH1 0x20 ADD SWAP1 DUP2 MSTORE PUSH1 0x20 ADD PUSH0 KECCAK256 PUSH0 DUP3 DUP3 SLOAD PUSH2 0xFBC SWAP2 SWAP1 PUSH2 0x1F64 JUMP JUMPDEST SWAP3 POP POP DUP2 SWAP1 SSTORE POP PUSH1 0x1 PUSH1 0x3 PUSH0 DUP5 PUSH20 0xFFFFFFFFFFFFFFFFFFFFFFFFFFFFFFFFFFFFFFFF AND PUSH20 0xFFFFFFFFFFFFFFFFFFFFFFFFFFFFFFFFFFFFFFFF AND DUP2 MSTORE PUSH1 0x20 ADD SWAP1 DUP2 MSTORE PUSH1 0x20 ADD PUSH0 KECCAK256 PUSH0 DUP3 DUP3 SLOAD PUSH2 0x1010 SWAP2 SWAP1 PUSH2 0x1F97 JUMP JUMPDEST SWAP3 POP POP DUP2 SWAP1 SSTORE POP DUP2 PUSH1 0x2 PUSH0 DUP4 DUP2 MSTORE PUSH1 0x20 ADD SWAP1 DUP2 MSTORE PUSH1 0x20 ADD PUSH0 KECCAK256 PUSH0 PUSH2 0x100 EXP DUP2 SLOAD DUP2 PUSH20 0xFFFFFFFFFFFFFFFFFFFFFFFFFFFFFFFFFFFFFFFF MUL NOT AND SWAP1 DUP4 PUSH20 0xFFFFFFFFFFFFFFFFFFFFFFFFFFFFFFFFFFFFFFFF AND MUL OR SWAP1 SSTORE POP DUP1 DUP3 PUSH20 0xFFFFFFFFFFFFFFFFFFFFFFFFFFFFFFFFFFFFFFFF AND DUP5 PUSH20 0xFFFFFFFFFFFFFFFFFFFFFFFFFFFFFFFFFFFFFFFF AND PUSH32 0xDDF252AD1BE2C89B69C2B068FC378DAA952BA7F163C4A11628F55A4DF523B3EF PUSH1 0x40 MLOAD PUSH1 0x40 MLOAD DUP1 SWAP2 SUB SWAP1 LOG4 POP POP POP POP JUMP JUMPDEST PUSH0 PUSH20 0xFFFFFFFFFFFFFFFFFFFFFFFFFFFFFFFFFFFFFFFF AND DUP3 PUSH20 0xFFFFFFFFFFFFFFFFFFFFFFFFFFFFFFFFFFFFFFFF AND SUB PUSH2 0x1135 JUMPI PUSH1 0x40 MLOAD PUSH32 0x8C379A000000000000000000000000000000000000000000000000000000000 DUP2 MSTORE PUSH1 0x4 ADD PUSH2 0x112C SWAP1 PUSH2 0x2014 JUMP JUMPDEST PUSH1 0x40 MLOAD DUP1 SWAP2 SUB SWAP1 REVERT JUMPDEST PUSH0 PUSH20 0xFFFFFFFFFFFFFFFFFFFFFFFFFFFFFFFFFFFFFFFF AND PUSH1 0x2 PUSH0 DUP4 DUP2 MSTORE PUSH1 0x20 ADD SWAP1 DUP2 MSTORE PUSH1 0x20 ADD PUSH0 KECCAK256 PUSH0 SWAP1 SLOAD SWAP1 PUSH2 0x100 EXP SWAP1 DIV PUSH20 0xFFFFFFFFFFFFFFFFFFFFFFFFFFFFFFFFFFFFFFFF AND PUSH20 0xFFFFFFFFFFFFFFFFFFFFFFFFFFFFFFFFFFFFFFFF AND EQ PUSH2 0x11D3 JUMPI PUSH1 0x40 MLOAD PUSH32 0x8C379A000000000000000000000000000000000000000000000000000000000 DUP2 MSTORE PUSH1 0x4 ADD PUSH2 0x11CA SWAP1 PUSH2 0x207C JUMP JUMPDEST PUSH1 0x40 MLOAD DUP1 SWAP2 SUB SWAP1 REVERT JUMPDEST PUSH1 0x1 PUSH1 0x3 PUSH0 DUP5 PUSH20 0xFFFFFFFFFFFFFFFFFFFFFFFFFFFFFFFFFFFFFFFF AND PUSH20 0xFFFFFFFFFFFFFFFFFFFFFFFFFFFFFFFFFFFFFFFF AND DUP2 MSTORE PUSH1 0x20 ADD SWAP1 DUP2 MSTORE PUSH1 0x20 ADD PUSH0 KECCAK256 PUSH0 DUP3 DUP3 SLOAD PUSH2 0x1220 SWAP2 SWAP1 PUSH2 0x1F97 JUMP JUMPDEST SWAP3 POP POP DUP2 SWAP1 SSTORE POP DUP2 PUSH1 0x2 PUSH0 DUP4 DUP2 MSTORE PUSH1 0x20 ADD SWAP1 DUP2 MSTORE PUSH1 0x20 ADD PUSH0 KECCAK256 PUSH0 PUSH2 0x100 EXP DUP2 SLOAD DUP2 PUSH20 0xFFFFFFFFFFFFFFFFFFFFFFFFFFFFFFFFFFFFFFFF MUL NOT AND SWAP1 DUP4 PUSH20 0xFFFFFFFFFFFFFFFFFFFFFFFFFFFFFFFFFFFFFFFF AND MUL OR SWAP1 SSTORE POP DUP1 DUP3 PUSH20 0xFFFFFFFFFFFFFFFFFFFFFFFFFFFFFFFFFFFFFFFF AND PUSH0 PUSH20 0xFFFFFFFFFFFFFFFFFFFFFFFFFFFFFFFFFFFFFFFF AND PUSH32 0xDDF252AD1BE2C89B69C2B068FC378DAA952BA7F163C4A11628F55A4DF523B3EF PUSH1 0x40 MLOAD PUSH1 0x40 MLOAD DUP1 SWAP2 SUB SWAP1 LOG4 POP POP JUMP JUMPDEST PUSH2 0x12E1 DUP6 DUP6 DUP6 DUP6 PUSH2 0xE88 JUMP JUMPDEST PUSH2 0x12ED DUP5 DUP5 DUP5 DUP5 PUSH2 0x14AC JUMP JUMPDEST PUSH2 0x132C JUMPI PUSH1 0x40 MLOAD PUSH32 0x8C379A000000000000000000000000000000000000000000000000000000000 DUP2 MSTORE PUSH1 0x4 ADD PUSH2 0x1323 SWAP1 PUSH2 0x20E4 JUMP JUMPDEST PUSH1 0x40 MLOAD DUP1 SWAP2 SUB SWAP1 REVERT JUMPDEST POP POP POP POP POP JUMP JUMPDEST PUSH1 0x60 PUSH1 0x40 MLOAD DUP1 PUSH1 0x60 ADD PUSH1 0x40 MSTORE DUP1 PUSH1 0x36 DUP2 MSTORE PUSH1 0x20 ADD PUSH2 0x22DF PUSH1 0x36 SWAP2 CODECOPY SWAP1 POP SWAP1 JUMP JUMPDEST PUSH1 0x60 PUSH0 DUP3 SUB PUSH2 0x1399 JUMPI PUSH1 0x40 MLOAD DUP1 PUSH1 0x40 ADD PUSH1 0x40 MSTORE DUP1 PUSH1 0x1 DUP2 MSTORE PUSH1 0x20 ADD PUSH32 0x3000000000000000000000000000000000000000000000000000000000000000 DUP2 MSTORE POP SWAP1 POP PUSH2 0x14A7 JUMP JUMPDEST PUSH0 DUP3 SWAP1 POP PUSH0 JUMPDEST PUSH0 DUP3 EQ PUSH2 0x13C8 JUMPI DUP1 DUP1 PUSH2 0x13B1 SWAP1 PUSH2 0x2102 JUMP JUMPDEST SWAP2 POP POP PUSH1 0xA DUP3 PUSH2 0x13C1 SWAP2 SWAP1 PUSH2 0x2176 JUMP JUMPDEST SWAP2 POP PUSH2 0x139F JUMP JUMPDEST PUSH0 DUP2 PUSH8 0xFFFFFFFFFFFFFFFF DUP2 GT ISZERO PUSH2 0x13E3 JUMPI PUSH2 0x13E2 PUSH2 0x195B JUMP JUMPDEST JUMPDEST PUSH1 0x40 MLOAD SWAP1 DUP1 DUP3 MSTORE DUP1 PUSH1 0x1F ADD PUSH1 0x1F NOT AND PUSH1 0x20 ADD DUP3 ADD PUSH1 0x40 MSTORE DUP1 ISZERO PUSH2 0x1415 JUMPI DUP2 PUSH1 0x20 ADD PUSH1 0x1 DUP3 MUL DUP1 CALLDATASIZE DUP4 CALLDATACOPY DUP1 DUP3 ADD SWAP2 POP POP SWAP1 POP JUMPDEST POP SWAP1 POP JUMPDEST PUSH0 DUP6 EQ PUSH2 0x14A0 JUMPI PUSH1 0x1 DUP3 PUSH2 0x142D SWAP2 SWAP1 PUSH2 0x1F64 JUMP JUMPDEST SWAP2 POP PUSH1 0xA DUP6 PUSH2 0x143C SWAP2 SWAP1 PUSH2 0x21A6 JUMP JUMPDEST PUSH1 0x30 PUSH2 0x1448 SWAP2 SWAP1 PUSH2 0x1F97 JUMP JUMPDEST PUSH1 0xF8 SHL DUP2 DUP4 DUP2 MLOAD DUP2 LT PUSH2 0x145E JUMPI PUSH2 0x145D PUSH2 0x21D6 JUMP JUMPDEST JUMPDEST PUSH1 0x20 ADD ADD SWAP1 PUSH31 0xFFFFFFFFFFFFFFFFFFFFFFFFFFFFFFFFFFFFFFFFFFFFFFFFFFFFFFFFFFFFFF NOT AND SWAP1 DUP2 PUSH0 BYTE SWAP1 MSTORE8 POP PUSH1 0xA DUP6 PUSH2 0x1499 SWAP2 SWAP1 PUSH2 0x2176 JUMP JUMPDEST SWAP5 POP PUSH2 0x1419 JUMP JUMPDEST DUP1 SWAP4 POP POP POP POP JUMPDEST SWAP2 SWAP1 POP JUMP JUMPDEST PUSH0 PUSH2 0x14CC DUP5 PUSH20 0xFFFFFFFFFFFFFFFFFFFFFFFFFFFFFFFFFFFFFFFF AND PUSH2 0x15AB JUMP JUMPDEST ISZERO PUSH2 0x159E JUMPI PUSH4 0x150B7A02 PUSH1 0xE0 SHL PUSH28 0xFFFFFFFFFFFFFFFFFFFFFFFFFFFFFFFFFFFFFFFFFFFFFFFFFFFFFFFF NOT AND DUP5 PUSH20 0xFFFFFFFFFFFFFFFFFFFFFFFFFFFFFFFFFFFFFFFF AND PUSH4 0x150B7A02 CALLER DUP9 DUP8 DUP8 PUSH1 0x40 MLOAD DUP6 PUSH4 0xFFFFFFFF AND PUSH1 0xE0 SHL DUP2 MSTORE PUSH1 0x4 ADD PUSH2 0x1537 SWAP5 SWAP4 SWAP3 SWAP2 SWAP1 PUSH2 0x2255 JUMP JUMPDEST PUSH1 0x20 PUSH1 0x40 MLOAD DUP1 DUP4 SUB DUP2 PUSH0 DUP8 GAS CALL ISZERO DUP1 ISZERO PUSH2 0x1553 JUMPI RETURNDATASIZE PUSH0 DUP1 RETURNDATACOPY RETURNDATASIZE PUSH0 REVERT JUMPDEST POP POP POP POP PUSH1 0x40 MLOAD RETURNDATASIZE PUSH1 0x1F NOT PUSH1 0x1F DUP3 ADD AND DUP3 ADD DUP1 PUSH1 0x40 MSTORE POP DUP2 ADD SWAP1 PUSH2 0x1577 SWAP2 SWAP1 PUSH2 0x22B3 JUMP JUMPDEST PUSH28 0xFFFFFFFFFFFFFFFFFFFFFFFFFFFFFFFFFFFFFFFFFFFFFFFFFFFFFFFF NOT AND EQ SWAP1 POP PUSH2 0x15A3 JUMP JUMPDEST PUSH1 0x1 SWAP1 POP JUMPDEST SWAP5 SWAP4 POP POP POP POP JUMP JUMPDEST PUSH0 DUP1 DUP3 EXTCODESIZE SWAP1 POP PUSH0 DUP2 GT SWAP2 POP POP SWAP2 SWAP1 POP JUMP JUMPDEST PUSH0 PUSH1 0x40 MLOAD SWAP1 POP SWAP1 JUMP JUMPDEST PUSH0 DUP1 REVERT JUMPDEST PUSH0 DUP1 REVERT JUMPDEST PUSH0 PUSH32 0xFFFFFFFF00000000000000000000000000000000000000000000000000000000 DUP3 AND SWAP1 POP SWAP2 SWAP1 POP JUMP JUMPDEST PUSH2 0x1601 DUP2 PUSH2 0x15CD JUMP JUMPDEST DUP2 EQ PUSH2 0x160B JUMPI PUSH0 DUP1 REVERT JUMPDEST POP JUMP JUMPDEST PUSH0 DUP2 CALLDATALOAD SWAP1 POP PUSH2 0x161C DUP2 PUSH2 0x15F8 JUMP JUMPDEST SWAP3 SWAP2 POP POP JUMP JUMPDEST PUSH0 PUSH1 0x20 DUP3 DUP5 SUB SLT ISZERO PUSH2 0x1637 JUMPI PUSH2 0x1636 PUSH2 0x15C5 JUMP JUMPDEST JUMPDEST PUSH0 PUSH2 0x1644 DUP5 DUP3 DUP6 ADD PUSH2 0x160E JUMP JUMPDEST SWAP2 POP POP SWAP3 SWAP2 POP POP JUMP JUMPDEST PUSH0 DUP2 ISZERO ISZERO SWAP1 POP SWAP2 SWAP1 POP JUMP JUMPDEST PUSH2 0x1661 DUP2 PUSH2 0x164D JUMP JUMPDEST DUP3 MSTORE POP POP JUMP JUMPDEST PUSH0 PUSH1 0x20 DUP3 ADD SWAP1 POP PUSH2 0x167A PUSH0 DUP4 ADD DUP5 PUSH2 0x1658 JUMP JUMPDEST SWAP3 SWAP2 POP POP JUMP JUMPDEST PUSH0 DUP2 MLOAD SWAP1 POP SWAP2 SWAP1 POP JUMP JUMPDEST PUSH0 DUP3 DUP3 MSTORE PUSH1 0x20 DUP3 ADD SWAP1 POP SWAP3 SWAP2 POP POP JUMP JUMPDEST PUSH0 JUMPDEST DUP4 DUP2 LT ISZERO PUSH2 0x16B7 JUMPI DUP1 DUP3 ADD MLOAD DUP2 DUP5 ADD MSTORE PUSH1 0x20 DUP2 ADD SWAP1 POP PUSH2 0x169C JUMP JUMPDEST PUSH0 DUP5 DUP5 ADD MSTORE POP POP POP POP JUMP JUMPDEST PUSH0 PUSH1 0x1F NOT PUSH1 0x1F DUP4 ADD AND SWAP1 POP SWAP2 SWAP1 POP JUMP JUMPDEST PUSH0 PUSH2 0x16DC DUP3 PUSH2 0x1680 JUMP JUMPDEST PUSH2 0x16E6 DUP2 DUP6 PUSH2 0x168A JUMP JUMPDEST SWAP4 POP PUSH2 0x16F6 DUP2 DUP6 PUSH1 0x20 DUP7 ADD PUSH2 0x169A JUMP JUMPDEST PUSH2 0x16FF DUP2 PUSH2 0x16C2 JUMP JUMPDEST DUP5 ADD SWAP2 POP POP SWAP3 SWAP2 POP POP JUMP JUMPDEST PUSH0 PUSH1 0x20 DUP3 ADD SWAP1 POP DUP2 DUP2 SUB PUSH0 DUP4 ADD MSTORE PUSH2 0x1722 DUP2 DUP5 PUSH2 0x16D2 JUMP JUMPDEST SWAP1 POP SWAP3 SWAP2 POP POP JUMP JUMPDEST PUSH0 DUP2 SWAP1 POP SWAP2 SWAP1 POP JUMP JUMPDEST PUSH2 0x173C DUP2 PUSH2 0x172A JUMP JUMPDEST DUP2 EQ PUSH2 0x1746 JUMPI PUSH0 DUP1 REVERT JUMPDEST POP JUMP JUMPDEST PUSH0 DUP2 CALLDATALOAD SWAP1 POP PUSH2 0x1757 DUP2 PUSH2 0x1733 JUMP JUMPDEST SWAP3 SWAP2 POP POP JUMP JUMPDEST PUSH0 PUSH1 0x20 DUP3 DUP5 SUB SLT ISZERO PUSH2 0x1772 JUMPI PUSH2 0x1771 PUSH2 0x15C5 JUMP JUMPDEST JUMPDEST PUSH0 PUSH2 0x177F DUP5 DUP3 DUP6 ADD PUSH2 0x1749 JUMP JUMPDEST SWAP2 POP POP SWAP3 SWAP2 POP POP JUMP JUMPDEST PUSH0 PUSH20 0xFFFFFFFFFFFFFFFFFFFFFFFFFFFFFFFFFFFFFFFF DUP3 AND SWAP1 POP SWAP2 SWAP1 POP JUMP JUMPDEST PUSH0 PUSH2 0x17B1 DUP3 PUSH2 0x1788 JUMP JUMPDEST SWAP1 POP SWAP2 SWAP1 POP JUMP JUMPDEST PUSH2 0x17C1 DUP2 PUSH2 0x17A7 JUMP JUMPDEST DUP3 MSTORE POP POP JUMP JUMPDEST PUSH0 PUSH1 0x20 DUP3 ADD SWAP1 POP PUSH2 0x17DA PUSH0 DUP4 ADD DUP5 PUSH2 0x17B8 JUMP JUMPDEST SWAP3 SWAP2 POP POP JUMP JUMPDEST PUSH2 0x17E9 DUP2 PUSH2 0x17A7 JUMP JUMPDEST DUP2 EQ PUSH2 0x17F3 JUMPI PUSH0 DUP1 REVERT JUMPDEST POP JUMP JUMPDEST PUSH0 DUP2 CALLDATALOAD SWAP1 POP PUSH2 0x1804 DUP2 PUSH2 0x17E0 JUMP JUMPDEST SWAP3 SWAP2 POP POP JUMP JUMPDEST PUSH0 DUP1 PUSH1 0x40 DUP4 DUP6 SUB SLT ISZERO PUSH2 0x1820 JUMPI PUSH2 0x181F PUSH2 0x15C5 JUMP JUMPDEST JUMPDEST PUSH0 PUSH2 0x182D DUP6 DUP3 DUP7 ADD PUSH2 0x17F6 JUMP JUMPDEST SWAP3 POP POP PUSH1 0x20 PUSH2 0x183E DUP6 DUP3 DUP7 ADD PUSH2 0x1749 JUMP JUMPDEST SWAP2 POP POP SWAP3 POP SWAP3 SWAP1 POP JUMP JUMPDEST PUSH0 DUP1 PUSH0 PUSH1 0x60 DUP5 DUP7 SUB SLT ISZERO PUSH2 0x185F JUMPI PUSH2 0x185E PUSH2 0x15C5 JUMP JUMPDEST JUMPDEST PUSH0 PUSH2 0x186C DUP7 DUP3 DUP8 ADD PUSH2 0x17F6 JUMP JUMPDEST SWAP4 POP POP PUSH1 0x20 PUSH2 0x187D DUP7 DUP3 DUP8 ADD PUSH2 0x17F6 JUMP JUMPDEST SWAP3 POP POP PUSH1 0x40 PUSH2 0x188E DUP7 DUP3 DUP8 ADD PUSH2 0x1749 JUMP JUMPDEST SWAP2 POP POP SWAP3 POP SWAP3 POP SWAP3 JUMP JUMPDEST PUSH0 PUSH1 0x20 DUP3 DUP5 SUB SLT ISZERO PUSH2 0x18AD JUMPI PUSH2 0x18AC PUSH2 0x15C5 JUMP JUMPDEST JUMPDEST PUSH0 PUSH2 0x18BA DUP5 DUP3 DUP6 ADD PUSH2 0x17F6 JUMP JUMPDEST SWAP2 POP POP SWAP3 SWAP2 POP POP JUMP JUMPDEST PUSH2 0x18CC DUP2 PUSH2 0x172A JUMP JUMPDEST DUP3 MSTORE POP POP JUMP JUMPDEST PUSH0 PUSH1 0x20 DUP3 ADD SWAP1 POP PUSH2 0x18E5 PUSH0 DUP4 ADD DUP5 PUSH2 0x18C3 JUMP JUMPDEST SWAP3 SWAP2 POP POP JUMP JUMPDEST PUSH2 0x18F4 DUP2 PUSH2 0x164D JUMP JUMPDEST DUP2 EQ PUSH2 0x18FE JUMPI PUSH0 DUP1 REVERT JUMPDEST POP JUMP JUMPDEST PUSH0 DUP2 CALLDATALOAD SWAP1 POP PUSH2 0x190F DUP2 PUSH2 0x18EB JUMP JUMPDEST SWAP3 SWAP2 POP POP JUMP JUMPDEST PUSH0 DUP1 PUSH1 0x40 DUP4 DUP6 SUB SLT ISZERO PUSH2 0x192B JUMPI PUSH2 0x192A PUSH2 0x15C5 JUMP JUMPDEST JUMPDEST PUSH0 PUSH2 0x1938 DUP6 DUP3 DUP7 ADD PUSH2 0x17F6 JUMP JUMPDEST SWAP3 POP POP PUSH1 0x20 PUSH2 0x1949 DUP6 DUP3 DUP7 ADD PUSH2 0x1901 JUMP JUMPDEST SWAP2 POP POP SWAP3 POP SWAP3 SWAP1 POP JUMP JUMPDEST PUSH0 DUP1 REVERT JUMPDEST PUSH0 DUP1 REVERT JUMPDEST PUSH32 0x4E487B7100000000000000000000000000000000000000000000000000000000 PUSH0 MSTORE PUSH1 0x41 PUSH1 0x4 MSTORE PUSH1 0x24 PUSH0 REVERT JUMPDEST PUSH2 0x1991 DUP3 PUSH2 0x16C2 JUMP JUMPDEST DUP2 ADD DUP2 DUP2 LT PUSH8 0xFFFFFFFFFFFFFFFF DUP3 GT OR ISZERO PUSH2 0x19B0 JUMPI PUSH2 0x19AF PUSH2 0x195B JUMP JUMPDEST JUMPDEST DUP1 PUSH1 0x40 MSTORE POP POP POP JUMP JUMPDEST PUSH0 PUSH2 0x19C2 PUSH2 0x15BC JUMP JUMPDEST SWAP1 POP PUSH2 0x19CE DUP3 DUP3 PUSH2 0x1988 JUMP JUMPDEST SWAP2 SWAP1 POP JUMP JUMPDEST PUSH0 PUSH8 0xFFFFFFFFFFFFFFFF DUP3 GT ISZERO PUSH2 0x19ED JUMPI PUSH2 0x19EC PUSH2 0x195B JUMP JUMPDEST JUMPDEST PUSH2 0x19F6 DUP3 PUSH2 0x16C2 JUMP JUMPDEST SWAP1 POP PUSH1 0x20 DUP2 ADD SWAP1 POP SWAP2 SWAP1 POP JUMP JUMPDEST DUP3 DUP2 DUP4 CALLDATACOPY PUSH0 DUP4 DUP4 ADD MSTORE POP POP POP JUMP JUMPDEST PUSH0 PUSH2 0x1A23 PUSH2 0x1A1E DUP5 PUSH2 0x19D3 JUMP JUMPDEST PUSH2 0x19B9 JUMP JUMPDEST SWAP1 POP DUP3 DUP2 MSTORE PUSH1 0x20 DUP2 ADD DUP5 DUP5 DUP5 ADD GT ISZERO PUSH2 0x1A3F JUMPI PUSH2 0x1A3E PUSH2 0x1957 JUMP JUMPDEST JUMPDEST PUSH2 0x1A4A DUP5 DUP3 DUP6 PUSH2 0x1A03 JUMP JUMPDEST POP SWAP4 SWAP3 POP POP POP JUMP JUMPDEST PUSH0 DUP3 PUSH1 0x1F DUP4 ADD SLT PUSH2 0x1A66 JUMPI PUSH2 0x1A65 PUSH2 0x1953 JUMP JUMPDEST JUMPDEST DUP2 CALLDATALOAD PUSH2 0x1A76 DUP5 DUP3 PUSH1 0x20 DUP7 ADD PUSH2 0x1A11 JUMP JUMPDEST SWAP2 POP POP SWAP3 SWAP2 POP POP JUMP JUMPDEST PUSH0 DUP1 PUSH0 DUP1 PUSH1 0x80 DUP6 DUP8 SUB SLT ISZERO PUSH2 0x1A97 JUMPI PUSH2 0x1A96 PUSH2 0x15C5 JUMP JUMPDEST JUMPDEST PUSH0 PUSH2 0x1AA4 DUP8 DUP3 DUP9 ADD PUSH2 0x17F6 JUMP JUMPDEST SWAP5 POP POP PUSH1 0x20 PUSH2 0x1AB5 DUP8 DUP3 DUP9 ADD PUSH2 0x17F6 JUMP JUMPDEST SWAP4 POP POP PUSH1 0x40 PUSH2 0x1AC6 DUP8 DUP3 DUP9 ADD PUSH2 0x1749 JUMP JUMPDEST SWAP3 POP POP PUSH1 0x60 DUP6 ADD CALLDATALOAD PUSH8 0xFFFFFFFFFFFFFFFF DUP2 GT ISZERO PUSH2 0x1AE7 JUMPI PUSH2 0x1AE6 PUSH2 0x15C9 JUMP JUMPDEST JUMPDEST PUSH2 0x1AF3 DUP8 DUP3 DUP9 ADD PUSH2 0x1A52 JUMP JUMPDEST SWAP2 POP POP SWAP3 SWAP6 SWAP2 SWAP5 POP SWAP3 POP JUMP JUMPDEST PUSH0 DUP1 PUSH1 0x40 DUP4 DUP6 SUB SLT ISZERO PUSH2 0x1B15 JUMPI PUSH2 0x1B14 PUSH2 0x15C5 JUMP JUMPDEST JUMPDEST PUSH0 PUSH2 0x1B22 DUP6 DUP3 DUP7 ADD PUSH2 0x17F6 JUMP JUMPDEST SWAP3 POP POP PUSH1 0x20 PUSH2 0x1B33 DUP6 DUP3 DUP7 ADD PUSH2 0x17F6 JUMP JUMPDEST SWAP2 POP POP SWAP3 POP SWAP3 SWAP1 POP JUMP JUMPDEST PUSH32 0x4E487B7100000000000000000000000000000000000000000000000000000000 PUSH0 MSTORE PUSH1 0x22 PUSH1 0x4 MSTORE PUSH1 0x24 PUSH0 REVERT JUMPDEST PUSH0 PUSH1 0x2 DUP3 DIV SWAP1 POP PUSH1 0x1 DUP3 AND DUP1 PUSH2 0x1B81 JUMPI PUSH1 0x7F DUP3 AND SWAP2 POP JUMPDEST PUSH1 0x20 DUP3 LT DUP2 SUB PUSH2 0x1B94 JUMPI PUSH2 0x1B93 PUSH2 0x1B3D JUMP JUMPDEST JUMPDEST POP SWAP2 SWAP1 POP JUMP JUMPDEST PUSH32 0x746F6B656E20646F65736E277420657869737400000000000000000000000000 PUSH0 DUP3 ADD MSTORE POP JUMP JUMPDEST PUSH0 PUSH2 0x1BCE PUSH1 0x13 DUP4 PUSH2 0x168A JUMP JUMPDEST SWAP2 POP PUSH2 0x1BD9 DUP3 PUSH2 0x1B9A JUMP JUMPDEST PUSH1 0x20 DUP3 ADD SWAP1 POP SWAP2 SWAP1 POP JUMP JUMPDEST PUSH0 PUSH1 0x20 DUP3 ADD SWAP1 POP DUP2 DUP2 SUB PUSH0 DUP4 ADD MSTORE PUSH2 0x1BFB DUP2 PUSH2 0x1BC2 JUMP JUMPDEST SWAP1 POP SWAP2 SWAP1 POP JUMP JUMPDEST PUSH32 0x6E6F74206F776E6572206E6F7220617070726F76656420666F7220616C6C0000 PUSH0 DUP3 ADD MSTORE POP JUMP JUMPDEST PUSH0 PUSH2 0x1C36 PUSH1 0x1E DUP4 PUSH2 0x168A JUMP JUMPDEST SWAP2 POP PUSH2 0x1C41 DUP3 PUSH2 0x1C02 JUMP JUMPDEST PUSH1 0x20 DUP3 ADD SWAP1 POP SWAP2 SWAP1 POP JUMP JUMPDEST PUSH0 PUSH1 0x20 DUP3 ADD SWAP1 POP DUP2 DUP2 SUB PUSH0 DUP4 ADD MSTORE PUSH2 0x1C63 DUP2 PUSH2 0x1C2A JUMP JUMPDEST SWAP1 POP SWAP2 SWAP1 POP JUMP JUMPDEST PUSH32 0x6E6F74206F776E6572206E6F7220617070726F76656400000000000000000000 PUSH0 DUP3 ADD MSTORE POP JUMP JUMPDEST PUSH0 PUSH2 0x1C9E PUSH1 0x16 DUP4 PUSH2 0x168A JUMP JUMPDEST SWAP2 POP PUSH2 0x1CA9 DUP3 PUSH2 0x1C6A JUMP JUMPDEST PUSH1 0x20 DUP3 ADD SWAP1 POP SWAP2 SWAP1 POP JUMP JUMPDEST PUSH0 PUSH1 0x20 DUP3 ADD SWAP1 POP DUP2 DUP2 SUB PUSH0 DUP4 ADD MSTORE PUSH2 0x1CCB DUP2 PUSH2 0x1C92 JUMP JUMPDEST SWAP1 POP SWAP2 SWAP1 POP JUMP JUMPDEST PUSH32 0x746F6B656E4964206F7574206F662072616E6765000000000000000000000000 PUSH0 DUP3 ADD MSTORE POP JUMP JUMPDEST PUSH0 PUSH2 0x1D06 PUSH1 0x14 DUP4 PUSH2 0x168A JUMP JUMPDEST SWAP2 POP PUSH2 0x1D11 DUP3 PUSH2 0x1CD2 JUMP JUMPDEST PUSH1 0x20 DUP3 ADD SWAP1 POP SWAP2 SWAP1 POP JUMP JUMPDEST PUSH0 PUSH1 0x20 DUP3 ADD SWAP1 POP DUP2 DUP2 SUB PUSH0 DUP4 ADD MSTORE PUSH2 0x1D33 DUP2 PUSH2 0x1CFA JUMP JUMPDEST SWAP1 POP SWAP2 SWAP1 POP JUMP JUMPDEST PUSH32 0x6F776E6572203D207A65726F2061646472657373000000000000000000000000 PUSH0 DUP3 ADD MSTORE POP JUMP JUMPDEST PUSH0 PUSH2 0x1D6E PUSH1 0x14 DUP4 PUSH2 0x168A JUMP JUMPDEST SWAP2 POP PUSH2 0x1D79 DUP3 PUSH2 0x1D3A JUMP JUMPDEST PUSH1 0x20 DUP3 ADD SWAP1 POP SWAP2 SWAP1 POP JUMP JUMPDEST PUSH0 PUSH1 0x20 DUP3 ADD SWAP1 POP DUP2 DUP2 SUB PUSH0 DUP4 ADD MSTORE PUSH2 0x1D9B DUP2 PUSH2 0x1D62 JUMP JUMPDEST SWAP1 POP SWAP2 SWAP1 POP JUMP JUMPDEST PUSH32 0x546F6B656E204E6F742045786973740000000000000000000000000000000000 PUSH0 DUP3 ADD MSTORE POP JUMP JUMPDEST PUSH0 PUSH2 0x1DD6 PUSH1 0xF DUP4 PUSH2 0x168A JUMP JUMPDEST SWAP2 POP PUSH2 0x1DE1 DUP3 PUSH2 0x1DA2 JUMP JUMPDEST PUSH1 0x20 DUP3 ADD SWAP1 POP SWAP2 SWAP1 POP JUMP JUMPDEST PUSH0 PUSH1 0x20 DUP3 ADD SWAP1 POP DUP2 DUP2 SUB PUSH0 DUP4 ADD MSTORE PUSH2 0x1E03 DUP2 PUSH2 0x1DCA JUMP JUMPDEST SWAP1 POP SWAP2 SWAP1 POP JUMP JUMPDEST PUSH0 DUP2 SWAP1 POP SWAP3 SWAP2 POP POP JUMP JUMPDEST PUSH0 PUSH2 0x1E1E DUP3 PUSH2 0x1680 JUMP JUMPDEST PUSH2 0x1E28 DUP2 DUP6 PUSH2 0x1E0A JUMP JUMPDEST SWAP4 POP PUSH2 0x1E38 DUP2 DUP6 PUSH1 0x20 DUP7 ADD PUSH2 0x169A JUMP JUMPDEST DUP1 DUP5 ADD SWAP2 POP POP SWAP3 SWAP2 POP POP JUMP JUMPDEST PUSH0 PUSH2 0x1E4F DUP3 DUP6 PUSH2 0x1E14 JUMP JUMPDEST SWAP2 POP PUSH2 0x1E5B DUP3 DUP5 PUSH2 0x1E14 JUMP JUMPDEST SWAP2 POP DUP2 SWAP1 POP SWAP4 SWAP3 POP POP POP JUMP JUMPDEST PUSH32 0x6E6F74206F776E65720000000000000000000000000000000000000000000000 PUSH0 DUP3 ADD MSTORE POP JUMP JUMPDEST PUSH0 PUSH2 0x1E9B PUSH1 0x9 DUP4 PUSH2 0x168A JUMP JUMPDEST SWAP2 POP PUSH2 0x1EA6 DUP3 PUSH2 0x1E67 JUMP JUMPDEST PUSH1 0x20 DUP3 ADD SWAP1 POP SWAP2 SWAP1 POP JUMP JUMPDEST PUSH0 PUSH1 0x20 DUP3 ADD SWAP1 POP DUP2 DUP2 SUB PUSH0 DUP4 ADD MSTORE PUSH2 0x1EC8 DUP2 PUSH2 0x1E8F JUMP JUMPDEST SWAP1 POP SWAP2 SWAP1 POP JUMP JUMPDEST PUSH32 0x7472616E7366657220746F20746865207A65726F206164647265737300000000 PUSH0 DUP3 ADD MSTORE POP JUMP JUMPDEST PUSH0 PUSH2 0x1F03 PUSH1 0x1C DUP4 PUSH2 0x168A JUMP JUMPDEST SWAP2 POP PUSH2 0x1F0E DUP3 PUSH2 0x1ECF JUMP JUMPDEST PUSH1 0x20 DUP3 ADD SWAP1 POP SWAP2 SWAP1 POP JUMP JUMPDEST PUSH0 PUSH1 0x20 DUP3 ADD SWAP1 POP DUP2 DUP2 SUB PUSH0 DUP4 ADD MSTORE PUSH2 0x1F30 DUP2 PUSH2 0x1EF7 JUMP JUMPDEST SWAP1 POP SWAP2 SWAP1 POP JUMP JUMPDEST PUSH32 0x4E487B7100000000000000000000000000000000000000000000000000000000 PUSH0 MSTORE PUSH1 0x11 PUSH1 0x4 MSTORE PUSH1 0x24 PUSH0 REVERT JUMPDEST PUSH0 PUSH2 0x1F6E DUP3 PUSH2 0x172A JUMP JUMPDEST SWAP2 POP PUSH2 0x1F79 DUP4 PUSH2 0x172A JUMP JUMPDEST SWAP3 POP DUP3 DUP3 SUB SWAP1 POP DUP2 DUP2 GT ISZERO PUSH2 0x1F91 JUMPI PUSH2 0x1F90 PUSH2 0x1F37 JUMP JUMPDEST JUMPDEST SWAP3 SWAP2 POP POP JUMP JUMPDEST PUSH0 PUSH2 0x1FA1 DUP3 PUSH2 0x172A JUMP JUMPDEST SWAP2 POP PUSH2 0x1FAC DUP4 PUSH2 0x172A JUMP JUMPDEST SWAP3 POP DUP3 DUP3 ADD SWAP1 POP DUP1 DUP3 GT ISZERO PUSH2 0x1FC4 JUMPI PUSH2 0x1FC3 PUSH2 0x1F37 JUMP JUMPDEST JUMPDEST SWAP3 SWAP2 POP POP JUMP JUMPDEST PUSH32 0x6D696E7420746F207A65726F2061646472657373000000000000000000000000 PUSH0 DUP3 ADD MSTORE POP JUMP JUMPDEST PUSH0 PUSH2 0x1FFE PUSH1 0x14 DUP4 PUSH2 0x168A JUMP JUMPDEST SWAP2 POP PUSH2 0x2009 DUP3 PUSH2 0x1FCA JUMP JUMPDEST PUSH1 0x20 DUP3 ADD SWAP1 POP SWAP2 SWAP1 POP JUMP JUMPDEST PUSH0 PUSH1 0x20 DUP3 ADD SWAP1 POP DUP2 DUP2 SUB PUSH0 DUP4 ADD MSTORE PUSH2 0x202B DUP2 PUSH2 0x1FF2 JUMP JUMPDEST SWAP1 POP SWAP2 SWAP1 POP JUMP JUMPDEST PUSH32 0x746F6B656E20616C7265616479206D696E746564000000000000000000000000 PUSH0 DUP3 ADD MSTORE POP JUMP JUMPDEST PUSH0 PUSH2 0x2066 PUSH1 0x14 DUP4 PUSH2 0x168A JUMP JUMPDEST SWAP2 POP PUSH2 0x2071 DUP3 PUSH2 0x2032 JUMP JUMPDEST PUSH1 0x20 DUP3 ADD SWAP1 POP SWAP2 SWAP1 POP JUMP JUMPDEST PUSH0 PUSH1 0x20 DUP3 ADD SWAP1 POP DUP2 DUP2 SUB PUSH0 DUP4 ADD MSTORE PUSH2 0x2093 DUP2 PUSH2 0x205A JUMP JUMPDEST SWAP1 POP SWAP2 SWAP1 POP JUMP JUMPDEST PUSH32 0x6E6F742045524337323152656365697665720000000000000000000000000000 PUSH0 DUP3 ADD MSTORE POP JUMP JUMPDEST PUSH0 PUSH2 0x20CE PUSH1 0x12 DUP4 PUSH2 0x168A JUMP JUMPDEST SWAP2 POP PUSH2 0x20D9 DUP3 PUSH2 0x209A JUMP JUMPDEST PUSH1 0x20 DUP3 ADD SWAP1 POP SWAP2 SWAP1 POP JUMP JUMPDEST PUSH0 PUSH1 0x20 DUP3 ADD SWAP1 POP DUP2 DUP2 SUB PUSH0 DUP4 ADD MSTORE PUSH2 0x20FB DUP2 PUSH2 0x20C2 JUMP JUMPDEST SWAP1 POP SWAP2 SWAP1 POP JUMP JUMPDEST PUSH0 PUSH2 0x210C DUP3 PUSH2 0x172A JUMP JUMPDEST SWAP2 POP PUSH32 0xFFFFFFFFFFFFFFFFFFFFFFFFFFFFFFFFFFFFFFFFFFFFFFFFFFFFFFFFFFFFFFFF DUP3 SUB PUSH2 0x213E JUMPI PUSH2 0x213D PUSH2 0x1F37 JUMP JUMPDEST JUMPDEST PUSH1 0x1 DUP3 ADD SWAP1 POP SWAP2 SWAP1 POP JUMP JUMPDEST PUSH32 0x4E487B7100000000000000000000000000000000000000000000000000000000 PUSH0 MSTORE PUSH1 0x12 PUSH1 0x4 MSTORE PUSH1 0x24 PUSH0 REVERT JUMPDEST PUSH0 PUSH2 0x2180 DUP3 PUSH2 0x172A JUMP JUMPDEST SWAP2 POP PUSH2 0x218B DUP4 PUSH2 0x172A JUMP JUMPDEST SWAP3 POP DUP3 PUSH2 0x219B JUMPI PUSH2 0x219A PUSH2 0x2149 JUMP JUMPDEST JUMPDEST DUP3 DUP3 DIV SWAP1 POP SWAP3 SWAP2 POP POP JUMP JUMPDEST PUSH0 PUSH2 0x21B0 DUP3 PUSH2 0x172A JUMP JUMPDEST SWAP2 POP PUSH2 0x21BB DUP4 PUSH2 0x172A JUMP JUMPDEST SWAP3 POP DUP3 PUSH2 0x21CB JUMPI PUSH2 0x21CA PUSH2 0x2149 JUMP JUMPDEST JUMPDEST DUP3 DUP3 MOD SWAP1 POP SWAP3 SWAP2 POP POP JUMP JUMPDEST PUSH32 0x4E487B7100000000000000000000000000000000000000000000000000000000 PUSH0 MSTORE PUSH1 0x32 PUSH1 0x4 MSTORE PUSH1 0x24 PUSH0 REVERT JUMPDEST PUSH0 DUP2 MLOAD SWAP1 POP SWAP2 SWAP1 POP JUMP JUMPDEST PUSH0 DUP3 DUP3 MSTORE PUSH1 0x20 DUP3 ADD SWAP1 POP SWAP3 SWAP2 POP POP JUMP JUMPDEST PUSH0 PUSH2 0x2227 DUP3 PUSH2 0x2203 JUMP JUMPDEST PUSH2 0x2231 DUP2 DUP6 PUSH2 0x220D JUMP JUMPDEST SWAP4 POP PUSH2 0x2241 DUP2 DUP6 PUSH1 0x20 DUP7 ADD PUSH2 0x169A JUMP JUMPDEST PUSH2 0x224A DUP2 PUSH2 0x16C2 JUMP JUMPDEST DUP5 ADD SWAP2 POP POP SWAP3 SWAP2 POP POP JUMP JUMPDEST PUSH0 PUSH1 0x80 DUP3 ADD SWAP1 POP PUSH2 0x2268 PUSH0 DUP4 ADD DUP8 PUSH2 0x17B8 JUMP JUMPDEST PUSH2 0x2275 PUSH1 0x20 DUP4 ADD DUP7 PUSH2 0x17B8 JUMP JUMPDEST PUSH2 0x2282 PUSH1 0x40 DUP4 ADD DUP6 PUSH2 0x18C3 JUMP JUMPDEST DUP2 DUP2 SUB PUSH1 0x60 DUP4 ADD MSTORE PUSH2 0x2294 DUP2 DUP5 PUSH2 0x221D JUMP JUMPDEST SWAP1 POP SWAP6 SWAP5 POP POP POP POP POP JUMP JUMPDEST PUSH0 DUP2 MLOAD SWAP1 POP PUSH2 0x22AD DUP2 PUSH2 0x15F8 JUMP JUMPDEST SWAP3 SWAP2 POP POP JUMP JUMPDEST PUSH0 PUSH1 0x20 DUP3 DUP5 SUB SLT ISZERO PUSH2 0x22C8 JUMPI PUSH2 0x22C7 PUSH2 0x15C5 JUMP JUMPDEST JUMPDEST PUSH0 PUSH2 0x22D5 DUP5 DUP3 DUP6 ADD PUSH2 0x229F JUMP JUMPDEST SWAP2 POP POP SWAP3 SWAP2 POP POP JUMP INVALID PUSH10 0x7066733A2F2F516D6553 PUSH11 0x53696E4870506E6D586D73 PUSH17 0x4D6A776958794E367A533445397A636361 PUSH19 0x694752336A7863615774712FA2646970667358 0x22 SLT KECCAK256 CHAINID JUMP 0xE1 0xC5 PUSH19 0x44570CB89D02EA514B959289C4E28EBD9A53A9 DIV GT 0xBD PUSH18 0xE29430A664736F6C63430008150033000000 "
				},
				"gasEstimates": {
					"creation": {
						"codeDepositCost": "1806800",
						"executionCost": "infinite",
						"totalCost": "infinite"
					},
					"external": {
						"MAX_APES()": "2469",
						"approve(address,uint256)": "31536",
						"balanceOf(address)": "2909",
						"getApproved(uint256)": "5166",
						"isApprovedForAll(address,address)": "infinite",
						"mint(address,uint256)": "infinite",
						"name()": "infinite",
						"ownerOf(uint256)": "2961",
						"safeTransferFrom(address,address,uint256)": "infinite",
						"safeTransferFrom(address,address,uint256,bytes)": "infinite",
						"setApprovalForAll(address,bool)": "infinite",
						"supportsInterface(bytes4)": "745",
						"symbol()": "infinite",
						"tokenURI(uint256)": "infinite",
						"transferFrom(address,address,uint256)": "infinite"
					},
					"internal": {
						"_baseURI()": "infinite"
					}
				},
				"methodIdentifiers": {
					"MAX_APES()": "bb8a16bd",
					"approve(address,uint256)": "095ea7b3",
					"balanceOf(address)": "70a08231",
					"getApproved(uint256)": "081812fc",
					"isApprovedForAll(address,address)": "e985e9c5",
					"mint(address,uint256)": "40c10f19",
					"name()": "06fdde03",
					"ownerOf(uint256)": "6352211e",
					"safeTransferFrom(address,address,uint256)": "42842e0e",
					"safeTransferFrom(address,address,uint256,bytes)": "b88d4fde",
					"setApprovalForAll(address,bool)": "a22cb465",
					"supportsInterface(bytes4)": "01ffc9a7",
					"symbol()": "95d89b41",
					"tokenURI(uint256)": "c87b56dd",
					"transferFrom(address,address,uint256)": "23b872dd"
				}
			},
			"storageLayout": {
				"storage": [
					{
						"astId": 39,
						"contract": "Project/ERC721/SCUtest.sol:SCUtest",
						"label": "name",
						"offset": 0,
						"slot": "0",
						"type": "t_string_storage"
					},
					{
						"astId": 42,
						"contract": "Project/ERC721/SCUtest.sol:SCUtest",
						"label": "symbol",
						"offset": 0,
						"slot": "1",
						"type": "t_string_storage"
					},
					{
						"astId": 46,
						"contract": "Project/ERC721/SCUtest.sol:SCUtest",
						"label": "_owners",
						"offset": 0,
						"slot": "2",
						"type": "t_mapping(t_uint256,t_address)"
					},
					{
						"astId": 50,
						"contract": "Project/ERC721/SCUtest.sol:SCUtest",
						"label": "_balances",
						"offset": 0,
						"slot": "3",
						"type": "t_mapping(t_address,t_uint256)"
					},
					{
						"astId": 54,
						"contract": "Project/ERC721/SCUtest.sol:SCUtest",
						"label": "_tokenApprovals",
						"offset": 0,
						"slot": "4",
						"type": "t_mapping(t_uint256,t_address)"
					},
					{
						"astId": 60,
						"contract": "Project/ERC721/SCUtest.sol:SCUtest",
						"label": "_operatorApprovals",
						"offset": 0,
						"slot": "5",
						"type": "t_mapping(t_address,t_mapping(t_address,t_bool))"
					},
					{
						"astId": 848,
						"contract": "Project/ERC721/SCUtest.sol:SCUtest",
						"label": "MAX_APES",
						"offset": 0,
						"slot": "6",
						"type": "t_uint256"
					}
				],
				"types": {
					"t_address": {
						"encoding": "inplace",
						"label": "address",
						"numberOfBytes": "20"
					},
					"t_bool": {
						"encoding": "inplace",
						"label": "bool",
						"numberOfBytes": "1"
					},
					"t_mapping(t_address,t_bool)": {
						"encoding": "mapping",
						"key": "t_address",
						"label": "mapping(address => bool)",
						"numberOfBytes": "32",
						"value": "t_bool"
					},
					"t_mapping(t_address,t_mapping(t_address,t_bool))": {
						"encoding": "mapping",
						"key": "t_address",
						"label": "mapping(address => mapping(address => bool))",
						"numberOfBytes": "32",
						"value": "t_mapping(t_address,t_bool)"
					},
					"t_mapping(t_address,t_uint256)": {
						"encoding": "mapping",
						"key": "t_address",
						"label": "mapping(address => uint256)",
						"numberOfBytes": "32",
						"value": "t_uint256"
					},
					"t_mapping(t_uint256,t_address)": {
						"encoding": "mapping",
						"key": "t_uint256",
						"label": "mapping(uint256 => address)",
						"numberOfBytes": "32",
						"value": "t_address"
					},
					"t_string_storage": {
						"encoding": "bytes",
						"label": "string",
						"numberOfBytes": "32"
					},
					"t_uint256": {
						"encoding": "inplace",
						"label": "uint256",
						"numberOfBytes": "32"
					}
				}
			},
			"userdoc": {
				"kind": "user",
				"methods": {
					"safeTransferFrom(address,address,uint256,bytes)": {
						"notice": "實現IERC721的safeTransferFrom，安全轉帳，調用了_safeTransfer函數。"
					},
					"tokenURI(uint256)": {
						"notice": "實現IERC721Metadata的tokenURI函数，查詢metadata。"
					}
				},
				"version": 1
			}
		}
	}
}